{
  "_format": "hh-sol-artifact-1",
  "contractName": "YieldToken",
  "sourceName": "contracts/YieldToken.sol",
  "abi": [
    {
      "inputs": [
        {
          "internalType": "address",
          "name": "_minter",
          "type": "address"
        },
        {
          "internalType": "string",
          "name": "_name",
          "type": "string"
        },
        {
          "internalType": "string",
          "name": "_symbol",
          "type": "string"
        }
      ],
      "stateMutability": "nonpayable",
      "type": "constructor"
    },
    {
      "inputs": [
        {
          "internalType": "address",
          "name": "spender",
          "type": "address"
        },
        {
          "internalType": "uint256",
          "name": "allowance",
          "type": "uint256"
        },
        {
          "internalType": "uint256",
          "name": "needed",
          "type": "uint256"
        }
      ],
      "name": "ERC20InsufficientAllowance",
      "type": "error"
    },
    {
      "inputs": [
        {
          "internalType": "address",
          "name": "sender",
          "type": "address"
        },
        {
          "internalType": "uint256",
          "name": "balance",
          "type": "uint256"
        },
        {
          "internalType": "uint256",
          "name": "needed",
          "type": "uint256"
        }
      ],
      "name": "ERC20InsufficientBalance",
      "type": "error"
    },
    {
      "inputs": [
        {
          "internalType": "address",
          "name": "approver",
          "type": "address"
        }
      ],
      "name": "ERC20InvalidApprover",
      "type": "error"
    },
    {
      "inputs": [
        {
          "internalType": "address",
          "name": "receiver",
          "type": "address"
        }
      ],
      "name": "ERC20InvalidReceiver",
      "type": "error"
    },
    {
      "inputs": [
        {
          "internalType": "address",
          "name": "sender",
          "type": "address"
        }
      ],
      "name": "ERC20InvalidSender",
      "type": "error"
    },
    {
      "inputs": [
        {
          "internalType": "address",
          "name": "spender",
          "type": "address"
        }
      ],
      "name": "ERC20InvalidSpender",
      "type": "error"
    },
    {
      "inputs": [
        {
          "internalType": "address",
          "name": "owner",
          "type": "address"
        }
      ],
      "name": "OwnableInvalidOwner",
      "type": "error"
    },
    {
      "inputs": [
        {
          "internalType": "address",
          "name": "account",
          "type": "address"
        }
      ],
      "name": "OwnableUnauthorizedAccount",
      "type": "error"
    },
    {
      "inputs": [
        {
          "internalType": "address",
          "name": "caller",
          "type": "address"
        }
      ],
      "name": "UnauthorizedMinter",
      "type": "error"
    },
    {
      "inputs": [],
      "name": "ZeroAddressMint",
      "type": "error"
    },
    {
      "anonymous": false,
      "inputs": [
        {
          "indexed": true,
          "internalType": "address",
          "name": "owner",
          "type": "address"
        },
        {
          "indexed": true,
          "internalType": "address",
          "name": "spender",
          "type": "address"
        },
        {
          "indexed": false,
          "internalType": "uint256",
          "name": "value",
          "type": "uint256"
        }
      ],
      "name": "Approval",
      "type": "event"
    },
    {
      "anonymous": false,
      "inputs": [
        {
          "indexed": true,
          "internalType": "address",
          "name": "previousOwner",
          "type": "address"
        },
        {
          "indexed": true,
          "internalType": "address",
          "name": "newOwner",
          "type": "address"
        }
      ],
      "name": "OwnershipTransferred",
      "type": "event"
    },
    {
      "anonymous": false,
      "inputs": [
        {
          "indexed": true,
          "internalType": "address",
          "name": "to",
          "type": "address"
        },
        {
          "indexed": false,
          "internalType": "uint256",
          "name": "amount",
          "type": "uint256"
        },
        {
          "indexed": true,
          "internalType": "address",
          "name": "minter",
          "type": "address"
        }
      ],
      "name": "TokensMinted",
      "type": "event"
    },
    {
      "anonymous": false,
      "inputs": [
        {
          "indexed": true,
          "internalType": "address",
          "name": "from",
          "type": "address"
        },
        {
          "indexed": true,
          "internalType": "address",
          "name": "to",
          "type": "address"
        },
        {
          "indexed": false,
          "internalType": "uint256",
          "name": "value",
          "type": "uint256"
        }
      ],
      "name": "Transfer",
      "type": "event"
    },
    {
      "inputs": [
        {
          "internalType": "address",
          "name": "owner",
          "type": "address"
        },
        {
          "internalType": "address",
          "name": "spender",
          "type": "address"
        }
      ],
      "name": "allowance",
      "outputs": [
        {
          "internalType": "uint256",
          "name": "",
          "type": "uint256"
        }
      ],
      "stateMutability": "view",
      "type": "function"
    },
    {
      "inputs": [
        {
          "internalType": "address",
          "name": "spender",
          "type": "address"
        },
        {
          "internalType": "uint256",
          "name": "value",
          "type": "uint256"
        }
      ],
      "name": "approve",
      "outputs": [
        {
          "internalType": "bool",
          "name": "",
          "type": "bool"
        }
      ],
      "stateMutability": "nonpayable",
      "type": "function"
    },
    {
      "inputs": [
        {
          "internalType": "address",
          "name": "account",
          "type": "address"
        }
      ],
      "name": "balanceOf",
      "outputs": [
        {
          "internalType": "uint256",
          "name": "",
          "type": "uint256"
        }
      ],
      "stateMutability": "view",
      "type": "function"
    },
    {
      "inputs": [],
      "name": "decimals",
      "outputs": [
        {
          "internalType": "uint8",
          "name": "",
          "type": "uint8"
        }
      ],
      "stateMutability": "view",
      "type": "function"
    },
    {
      "inputs": [
        {
          "internalType": "address",
          "name": "to",
          "type": "address"
        },
        {
          "internalType": "uint256",
          "name": "amount",
          "type": "uint256"
        }
      ],
      "name": "mint",
      "outputs": [],
      "stateMutability": "nonpayable",
      "type": "function"
    },
    {
      "inputs": [],
      "name": "minter",
      "outputs": [
        {
          "internalType": "address",
          "name": "",
          "type": "address"
        }
      ],
      "stateMutability": "view",
      "type": "function"
    },
    {
      "inputs": [],
      "name": "name",
      "outputs": [
        {
          "internalType": "string",
          "name": "",
          "type": "string"
        }
      ],
      "stateMutability": "view",
      "type": "function"
    },
    {
      "inputs": [],
      "name": "owner",
      "outputs": [
        {
          "internalType": "address",
          "name": "",
          "type": "address"
        }
      ],
      "stateMutability": "view",
      "type": "function"
    },
    {
      "inputs": [],
      "name": "renounceOwnership",
      "outputs": [],
      "stateMutability": "nonpayable",
      "type": "function"
    },
    {
      "inputs": [
        {
          "internalType": "address",
          "name": "_newMinter",
          "type": "address"
        }
      ],
      "name": "setMinter",
      "outputs": [],
      "stateMutability": "nonpayable",
      "type": "function"
    },
    {
      "inputs": [],
      "name": "symbol",
      "outputs": [
        {
          "internalType": "string",
          "name": "",
          "type": "string"
        }
      ],
      "stateMutability": "view",
      "type": "function"
    },
    {
      "inputs": [],
      "name": "totalSupply",
      "outputs": [
        {
          "internalType": "uint256",
          "name": "",
          "type": "uint256"
        }
      ],
      "stateMutability": "view",
      "type": "function"
    },
    {
      "inputs": [
        {
          "internalType": "address",
          "name": "to",
          "type": "address"
        },
        {
          "internalType": "uint256",
          "name": "value",
          "type": "uint256"
        }
      ],
      "name": "transfer",
      "outputs": [
        {
          "internalType": "bool",
          "name": "",
          "type": "bool"
        }
      ],
      "stateMutability": "nonpayable",
      "type": "function"
    },
    {
      "inputs": [
        {
          "internalType": "address",
          "name": "from",
          "type": "address"
        },
        {
          "internalType": "address",
          "name": "to",
          "type": "address"
        },
        {
          "internalType": "uint256",
          "name": "value",
          "type": "uint256"
        }
      ],
      "name": "transferFrom",
      "outputs": [
        {
          "internalType": "bool",
          "name": "",
          "type": "bool"
        }
      ],
      "stateMutability": "nonpayable",
      "type": "function"
    },
    {
      "inputs": [
        {
          "internalType": "address",
          "name": "newOwner",
          "type": "address"
        }
      ],
      "name": "transferOwnership",
      "outputs": [],
      "stateMutability": "nonpayable",
      "type": "function"
    }
  ],
  "bytecode": "0x608060405234801561001057600080fd5b50604051610d94380380610d9483398101604081905261002f916101b9565b828282600361003e83826102ca565b50600461004b82826102ca565b5050506001600160a01b03811661007c57604051631e4fbdf760e01b81526000600482015260240160405180910390fd5b610085816100ae565b5050600680546001600160a01b0319166001600160a01b03939093169290921790915550610388565b600580546001600160a01b038381166001600160a01b0319831681179093556040519116919082907f8be0079c531659141344cd1fd0a4f28419497f9722a3daafe3b4186f6b6457e090600090a35050565b634e487b7160e01b600052604160045260246000fd5b600082601f83011261012757600080fd5b81516001600160401b0381111561014057610140610100565b604051601f8201601f19908116603f011681016001600160401b038111828210171561016e5761016e610100565b60405281815283820160200185101561018657600080fd5b60005b828110156101a557602081860181015183830182015201610189565b506000918101602001919091529392505050565b6000806000606084860312156101ce57600080fd5b83516001600160a01b03811681146101e557600080fd5b60208501519093506001600160401b0381111561020157600080fd5b61020d86828701610116565b604086015190935090506001600160401b0381111561022b57600080fd5b61023786828701610116565b9150509250925092565b600181811c9082168061025557607f821691505b60208210810361027557634e487b7160e01b600052602260045260246000fd5b50919050565b601f8211156102c557806000526020600020601f840160051c810160208510156102a25750805b601f840160051c820191505b818110156102c257600081556001016102ae565b50505b505050565b81516001600160401b038111156102e3576102e3610100565b6102f7816102f18454610241565b8461027b565b6020601f82116001811461032b57600083156103135750848201515b600019600385901b1c1916600184901b1784556102c2565b600084815260208120601f198516915b8281101561035b578785015182556020948501946001909201910161033b565b50848210156103795786840151600019600387901b60f8161c191681555b50505050600190811b01905550565b6109fd806103976000396000f3fe608060405234801561001057600080fd5b50600436106100f55760003560e01c806370a0823111610097578063a9059cbb11610066578063a9059cbb146101f9578063dd62ed3e1461020c578063f2fde38b14610245578063fca3b5aa1461025857600080fd5b806370a08231146101af578063715018a6146101d85780638da5cb5b146101e057806395d89b41146101f157600080fd5b806318160ddd116100d357806318160ddd1461016657806323b872dd14610178578063313ce5671461018b57806340c10f191461019a57600080fd5b806306fdde03146100fa5780630754617214610118578063095ea7b314610143575b600080fd5b61010261026b565b60405161010f9190610846565b60405180910390f35b60065461012b906001600160a01b031681565b6040516001600160a01b03909116815260200161010f565b6101566101513660046108b0565b6102fd565b604051901515815260200161010f565b6002545b60405190815260200161010f565b6101566101863660046108da565b610317565b6040516012815260200161010f565b6101ad6101a83660046108b0565b61033b565b005b61016a6101bd366004610917565b6001600160a01b031660009081526020819052604090205490565b6101ad610405565b6005546001600160a01b031661012b565b610102610419565b6101566102073660046108b0565b610428565b61016a61021a366004610939565b6001600160a01b03918216600090815260016020908152604080832093909416825291909152205490565b6101ad610253366004610917565b610436565b6101ad610266366004610917565b610474565b60606003805461027a9061096c565b80601f01602080910402602001604051908101604052809291908181526020018280546102a69061096c565b80156102f35780601f106102c8576101008083540402835291602001916102f3565b820191906000526020600020905b8154815290600101906020018083116102d657829003601f168201915b5050505050905090565b60003361030b81858561049e565b60019150505b92915050565b6000336103258582856104b0565b61033085858561052f565b506001949350505050565b6006546001600160a01b031633146103905760405162461bcd60e51b81526020600482015260136024820152722ab730baba3437b934bd32b21036b4b73a32b960691b60448201526064015b60405180910390fd5b6001600160a01b0382166103b7576040516322ce111360e11b815260040160405180910390fd5b6103c1828261058e565b60405181815233906001600160a01b038416907f969cd201f68f120baff2bf3c59bc3b534434e08b69a71a14ab85cb79cd3b63e49060200160405180910390a35050565b61040d6105c8565b61041760006105f5565b565b60606004805461027a9061096c565b60003361030b81858561052f565b61043e6105c8565b6001600160a01b03811661046857604051631e4fbdf760e01b815260006004820152602401610387565b610471816105f5565b50565b61047c6105c8565b600680546001600160a01b0319166001600160a01b0392909216919091179055565b6104ab8383836001610647565b505050565b6001600160a01b03838116600090815260016020908152604080832093861683529290522054600019811015610529578181101561051a57604051637dc7a0d960e11b81526001600160a01b03841660048201526024810182905260448101839052606401610387565b61052984848484036000610647565b50505050565b6001600160a01b03831661055957604051634b637e8f60e11b815260006004820152602401610387565b6001600160a01b0382166105835760405163ec442f0560e01b815260006004820152602401610387565b6104ab83838361071c565b6001600160a01b0382166105b85760405163ec442f0560e01b815260006004820152602401610387565b6105c46000838361071c565b5050565b6005546001600160a01b031633146104175760405163118cdaa760e01b8152336004820152602401610387565b600580546001600160a01b038381166001600160a01b0319831681179093556040519116919082907f8be0079c531659141344cd1fd0a4f28419497f9722a3daafe3b4186f6b6457e090600090a35050565b6001600160a01b0384166106715760405163e602df0560e01b815260006004820152602401610387565b6001600160a01b03831661069b57604051634a1406b160e11b815260006004820152602401610387565b6001600160a01b038085166000908152600160209081526040808320938716835292905220829055801561052957826001600160a01b0316846001600160a01b03167f8c5be1e5ebec7d5bd14f71427d1e84f3dd0314c0f7b2291e5b200ac8c7c3b9258460405161070e91815260200190565b60405180910390a350505050565b6001600160a01b03831661074757806002600082825461073c91906109a6565b909155506107b99050565b6001600160a01b0383166000908152602081905260409020548181101561079a5760405163391434e360e21b81526001600160a01b03851660048201526024810182905260448101839052606401610387565b6001600160a01b03841660009081526020819052604090209082900390555b6001600160a01b0382166107d5576002805482900390556107f4565b6001600160a01b03821660009081526020819052604090208054820190555b816001600160a01b0316836001600160a01b03167fddf252ad1be2c89b69c2b068fc378daa952ba7f163c4a11628f55a4df523b3ef8360405161083991815260200190565b60405180910390a3505050565b602081526000825180602084015260005b818110156108745760208186018101516040868401015201610857565b506000604082850101526040601f19601f83011684010191505092915050565b80356001600160a01b03811681146108ab57600080fd5b919050565b600080604083850312156108c357600080fd5b6108cc83610894565b946020939093013593505050565b6000806000606084860312156108ef57600080fd5b6108f884610894565b925061090660208501610894565b929592945050506040919091013590565b60006020828403121561092957600080fd5b61093282610894565b9392505050565b6000806040838503121561094c57600080fd5b61095583610894565b915061096360208401610894565b90509250929050565b600181811c9082168061098057607f821691505b6020821081036109a057634e487b7160e01b600052602260045260246000fd5b50919050565b8082018082111561031157634e487b7160e01b600052601160045260246000fdfea26469706673582212209e036311b82aaa754158068db0a98a960d1f6af3cb6715fc34d3308daea02b3c64736f6c634300081c0033",
  "linkReferences": {},
  "deployedLinkReferences": {}
}