{
  "_format": "hh-sol-artifact-1",
  "contractName": "BorrowProtocol",
  "sourceName": "contracts/BorrowProtocol.sol",
  "abi": [
    {
      "inputs": [
        {
          "internalType": "address",
          "name": "_yieldPoolAddress",
          "type": "address"
        },
        {
          "internalType": "address",
          "name": "_yieldTokenAddress",
          "type": "address"
        },
        {
          "internalType": "address",
          "name": "_owner",
          "type": "address"
        }
      ],
      "stateMutability": "nonpayable",
      "type": "constructor"
    },
    {
      "inputs": [
        {
          "internalType": "address",
          "name": "owner",
          "type": "address"
        }
      ],
      "name": "OwnableInvalidOwner",
      "type": "error"
    },
    {
      "inputs": [
        {
          "internalType": "address",
          "name": "account",
          "type": "address"
        }
      ],
      "name": "OwnableUnauthorizedAccount",
      "type": "error"
    },
    {
      "inputs": [],
      "name": "ReentrancyGuardReentrantCall",
      "type": "error"
    },
    {
      "inputs": [
        {
          "internalType": "address",
          "name": "token",
          "type": "address"
        }
      ],
      "name": "SafeERC20FailedOperation",
      "type": "error"
    },
    {
      "anonymous": false,
      "inputs": [
        {
          "indexed": false,
          "internalType": "uint256",
          "name": "loanId",
          "type": "uint256"
        },
        {
          "indexed": false,
          "internalType": "bool",
          "name": "active",
          "type": "bool"
        }
      ],
      "name": "ActiveLoanUpdated",
      "type": "event"
    },
    {
      "anonymous": false,
      "inputs": [
        {
          "indexed": true,
          "internalType": "address",
          "name": "user",
          "type": "address"
        },
        {
          "indexed": true,
          "internalType": "address",
          "name": "token",
          "type": "address"
        },
        {
          "indexed": false,
          "internalType": "uint256",
          "name": "amount",
          "type": "uint256"
        }
      ],
      "name": "CollateralDeposited",
      "type": "event"
    },
    {
      "anonymous": false,
      "inputs": [
        {
          "indexed": true,
          "internalType": "address",
          "name": "user",
          "type": "address"
        },
        {
          "indexed": false,
          "internalType": "uint256",
          "name": "loanId",
          "type": "uint256"
        },
        {
          "indexed": false,
          "internalType": "uint256",
          "name": "amount",
          "type": "uint256"
        }
      ],
      "name": "CollateralWithdrawn",
      "type": "event"
    },
    {
      "anonymous": false,
      "inputs": [
        {
          "indexed": true,
          "internalType": "address",
          "name": "user",
          "type": "address"
        },
        {
          "indexed": false,
          "internalType": "uint256",
          "name": "loanId",
          "type": "uint256"
        },
        {
          "indexed": false,
          "internalType": "uint256",
          "name": "amount",
          "type": "uint256"
        },
        {
          "indexed": false,
          "internalType": "address",
          "name": "token",
          "type": "address"
        },
        {
          "indexed": false,
          "internalType": "uint256",
          "name": "duration",
          "type": "uint256"
        }
      ],
      "name": "LoanCreated",
      "type": "event"
    },
    {
      "anonymous": false,
      "inputs": [
        {
          "indexed": true,
          "internalType": "address",
          "name": "user",
          "type": "address"
        },
        {
          "indexed": false,
          "internalType": "uint256",
          "name": "loanId",
          "type": "uint256"
        },
        {
          "indexed": false,
          "internalType": "address",
          "name": "liquidator",
          "type": "address"
        }
      ],
      "name": "LoanLiquidated",
      "type": "event"
    },
    {
      "anonymous": false,
      "inputs": [
        {
          "indexed": true,
          "internalType": "address",
          "name": "user",
          "type": "address"
        },
        {
          "indexed": false,
          "internalType": "uint256",
          "name": "loanId",
          "type": "uint256"
        },
        {
          "indexed": false,
          "internalType": "uint256",
          "name": "amount",
          "type": "uint256"
        }
      ],
      "name": "LoanRepaid",
      "type": "event"
    },
    {
      "anonymous": false,
      "inputs": [
        {
          "indexed": true,
          "internalType": "address",
          "name": "previousOwner",
          "type": "address"
        },
        {
          "indexed": true,
          "internalType": "address",
          "name": "newOwner",
          "type": "address"
        }
      ],
      "name": "OwnershipTransferred",
      "type": "event"
    },
    {
      "anonymous": false,
      "inputs": [
        {
          "indexed": true,
          "internalType": "address",
          "name": "funder",
          "type": "address"
        },
        {
          "indexed": true,
          "internalType": "address",
          "name": "token",
          "type": "address"
        },
        {
          "indexed": false,
          "internalType": "uint256",
          "name": "amount",
          "type": "uint256"
        }
      ],
      "name": "PoolFunded",
      "type": "event"
    },
    {
      "inputs": [
        {
          "internalType": "address",
          "name": "_collateralToken",
          "type": "address"
        },
        {
          "internalType": "uint256",
          "name": "_collateralAmount",
          "type": "uint256"
        },
        {
          "internalType": "address",
          "name": "_borrowToken",
          "type": "address"
        },
        {
          "internalType": "uint256",
          "name": "_borrowAmount",
          "type": "uint256"
        },
        {
          "internalType": "uint256",
          "name": "_duration",
          "type": "uint256"
        },
        {
          "internalType": "uint256",
          "name": "_interestRate",
          "type": "uint256"
        }
      ],
      "name": "Borrow",
      "outputs": [],
      "stateMutability": "nonpayable",
      "type": "function"
    },
    {
      "inputs": [
        {
          "internalType": "uint256",
          "name": "",
          "type": "uint256"
        }
      ],
      "name": "allActiveLoans",
      "outputs": [
        {
          "internalType": "uint256",
          "name": "loanId",
          "type": "uint256"
        },
        {
          "internalType": "uint256",
          "name": "collateralAmount",
          "type": "uint256"
        },
        {
          "internalType": "address",
          "name": "collateralToken",
          "type": "address"
        },
        {
          "internalType": "address",
          "name": "borrowToken",
          "type": "address"
        },
        {
          "internalType": "uint256",
          "name": "borrowAmount",
          "type": "uint256"
        },
        {
          "internalType": "uint256",
          "name": "duration",
          "type": "uint256"
        },
        {
          "internalType": "uint256",
          "name": "startTime",
          "type": "uint256"
        },
        {
          "internalType": "uint256",
          "name": "interestRate",
          "type": "uint256"
        },
        {
          "internalType": "address",
          "name": "userAddress",
          "type": "address"
        },
        {
          "internalType": "uint256",
          "name": "amountPaid",
          "type": "uint256"
        },
        {
          "internalType": "bool",
          "name": "active",
          "type": "bool"
        }
      ],
      "stateMutability": "view",
      "type": "function"
    },
    {
      "inputs": [
        {
          "internalType": "address[]",
          "name": "users",
          "type": "address[]"
        },
        {
          "internalType": "uint256[]",
          "name": "loanIds",
          "type": "uint256[]"
        }
      ],
      "name": "batchLiquidate",
      "outputs": [],
      "stateMutability": "nonpayable",
      "type": "function"
    },
    {
      "inputs": [
        {
          "internalType": "address",
          "name": "_collateralToken",
          "type": "address"
        },
        {
          "internalType": "uint256",
          "name": "_collateralAmount",
          "type": "uint256"
        },
        {
          "internalType": "address",
          "name": "_borrowToken",
          "type": "address"
        },
        {
          "internalType": "uint256",
          "name": "_borrowAmount",
          "type": "uint256"
        },
        {
          "internalType": "uint256",
          "name": "_duration",
          "type": "uint256"
        },
        {
          "internalType": "uint256",
          "name": "_interestRate",
          "type": "uint256"
        }
      ],
      "name": "borrowNative",
      "outputs": [],
      "stateMutability": "payable",
      "type": "function"
    },
    {
      "inputs": [
        {
          "internalType": "uint256",
          "name": "_collateralAmount",
          "type": "uint256"
        },
        {
          "internalType": "uint256",
          "name": "_borrowAmount",
          "type": "uint256"
        },
        {
          "internalType": "address",
          "name": "_collateralTokenAddress",
          "type": "address"
        }
      ],
      "name": "calculateHealthFactorSimulated",
      "outputs": [
        {
          "internalType": "uint256",
          "name": "",
          "type": "uint256"
        }
      ],
      "stateMutability": "view",
      "type": "function"
    },
    {
      "inputs": [
        {
          "internalType": "address",
          "name": "user",
          "type": "address"
        },
        {
          "internalType": "uint256",
          "name": "loanId",
          "type": "uint256"
        }
      ],
      "name": "calculateTotalDue",
      "outputs": [
        {
          "internalType": "uint256",
          "name": "",
          "type": "uint256"
        }
      ],
      "stateMutability": "view",
      "type": "function"
    },
    {
      "inputs": [],
      "name": "currentLoanId",
      "outputs": [
        {
          "internalType": "uint256",
          "name": "",
          "type": "uint256"
        }
      ],
      "stateMutability": "view",
      "type": "function"
    },
    {
      "inputs": [],
      "name": "fundNativePool",
      "outputs": [],
      "stateMutability": "payable",
      "type": "function"
    },
    {
      "inputs": [
        {
          "internalType": "address",
          "name": "token",
          "type": "address"
        },
        {
          "internalType": "uint256",
          "name": "amount",
          "type": "uint256"
        }
      ],
      "name": "fundPool",
      "outputs": [],
      "stateMutability": "nonpayable",
      "type": "function"
    },
    {
      "inputs": [],
      "name": "getAllActiveLoans",
      "outputs": [
        {
          "components": [
            {
              "internalType": "uint256",
              "name": "loanId",
              "type": "uint256"
            },
            {
              "internalType": "uint256",
              "name": "collateralAmount",
              "type": "uint256"
            },
            {
              "internalType": "address",
              "name": "collateralToken",
              "type": "address"
            },
            {
              "internalType": "address",
              "name": "borrowToken",
              "type": "address"
            },
            {
              "internalType": "uint256",
              "name": "borrowAmount",
              "type": "uint256"
            },
            {
              "internalType": "uint256",
              "name": "duration",
              "type": "uint256"
            },
            {
              "internalType": "uint256",
              "name": "startTime",
              "type": "uint256"
            },
            {
              "internalType": "uint256",
              "name": "interestRate",
              "type": "uint256"
            },
            {
              "internalType": "address",
              "name": "userAddress",
              "type": "address"
            },
            {
              "internalType": "uint256",
              "name": "amountPaid",
              "type": "uint256"
            },
            {
              "internalType": "bool",
              "name": "active",
              "type": "bool"
            }
          ],
          "internalType": "struct BorrowProtocol.Loan[]",
          "name": "",
          "type": "tuple[]"
        }
      ],
      "stateMutability": "view",
      "type": "function"
    },
    {
      "inputs": [
        {
          "internalType": "address",
          "name": "token",
          "type": "address"
        }
      ],
      "name": "getLiquidationThreshold",
      "outputs": [
        {
          "internalType": "uint256",
          "name": "",
          "type": "uint256"
        }
      ],
      "stateMutability": "view",
      "type": "function"
    },
    {
      "inputs": [
        {
          "internalType": "address",
          "name": "_tokenAddress",
          "type": "address"
        }
      ],
      "name": "getMinCollateralAmount",
      "outputs": [
        {
          "internalType": "uint256",
          "name": "",
          "type": "uint256"
        }
      ],
      "stateMutability": "view",
      "type": "function"
    },
    {
      "inputs": [],
      "name": "getMinHealthFactor",
      "outputs": [
        {
          "internalType": "uint256",
          "name": "",
          "type": "uint256"
        }
      ],
      "stateMutability": "view",
      "type": "function"
    },
    {
      "inputs": [],
      "name": "getMinimumDuration",
      "outputs": [
        {
          "internalType": "uint256",
          "name": "",
          "type": "uint256"
        }
      ],
      "stateMutability": "view",
      "type": "function"
    },
    {
      "inputs": [
        {
          "internalType": "address",
          "name": "user",
          "type": "address"
        }
      ],
      "name": "getUserLoans",
      "outputs": [
        {
          "components": [
            {
              "internalType": "uint256",
              "name": "loanId",
              "type": "uint256"
            },
            {
              "internalType": "uint256",
              "name": "collateralAmount",
              "type": "uint256"
            },
            {
              "internalType": "address",
              "name": "collateralToken",
              "type": "address"
            },
            {
              "internalType": "address",
              "name": "borrowToken",
              "type": "address"
            },
            {
              "internalType": "uint256",
              "name": "borrowAmount",
              "type": "uint256"
            },
            {
              "internalType": "uint256",
              "name": "duration",
              "type": "uint256"
            },
            {
              "internalType": "uint256",
              "name": "startTime",
              "type": "uint256"
            },
            {
              "internalType": "uint256",
              "name": "interestRate",
              "type": "uint256"
            },
            {
              "internalType": "address",
              "name": "userAddress",
              "type": "address"
            },
            {
              "internalType": "uint256",
              "name": "amountPaid",
              "type": "uint256"
            },
            {
              "internalType": "bool",
              "name": "active",
              "type": "bool"
            }
          ],
          "internalType": "struct BorrowProtocol.Loan[]",
          "name": "",
          "type": "tuple[]"
        }
      ],
      "stateMutability": "view",
      "type": "function"
    },
    {
      "inputs": [
        {
          "internalType": "address",
          "name": "user",
          "type": "address"
        },
        {
          "internalType": "uint256",
          "name": "loanId",
          "type": "uint256"
        }
      ],
      "name": "liquidate",
      "outputs": [],
      "stateMutability": "nonpayable",
      "type": "function"
    },
    {
      "inputs": [],
      "name": "minHealthFactor",
      "outputs": [
        {
          "internalType": "uint256",
          "name": "",
          "type": "uint256"
        }
      ],
      "stateMutability": "view",
      "type": "function"
    },
    {
      "inputs": [],
      "name": "minimumDuration",
      "outputs": [
        {
          "internalType": "uint256",
          "name": "",
          "type": "uint256"
        }
      ],
      "stateMutability": "view",
      "type": "function"
    },
    {
      "inputs": [],
      "name": "owner",
      "outputs": [
        {
          "internalType": "address",
          "name": "",
          "type": "address"
        }
      ],
      "stateMutability": "view",
      "type": "function"
    },
    {
      "inputs": [
        {
          "internalType": "uint256",
          "name": "_loanId",
          "type": "uint256"
        }
      ],
      "name": "payLoan",
      "outputs": [],
      "stateMutability": "payable",
      "type": "function"
    },
    {
      "inputs": [],
      "name": "renounceOwnership",
      "outputs": [],
      "stateMutability": "nonpayable",
      "type": "function"
    },
    {
      "inputs": [
        {
          "internalType": "address",
          "name": "token",
          "type": "address"
        },
        {
          "internalType": "uint256",
          "name": "threshold",
          "type": "uint256"
        }
      ],
      "name": "setLiquidationThreshold",
      "outputs": [],
      "stateMutability": "nonpayable",
      "type": "function"
    },
    {
      "inputs": [
        {
          "internalType": "address",
          "name": "_yieldToken",
          "type": "address"
        },
        {
          "internalType": "uint256",
          "name": "_minimumCollateralAmount",
          "type": "uint256"
        }
      ],
      "name": "setMinCollateralAmount",
      "outputs": [],
      "stateMutability": "nonpayable",
      "type": "function"
    },
    {
      "inputs": [
        {
          "internalType": "uint256",
          "name": "_minHealthFactor",
          "type": "uint256"
        }
      ],
      "name": "setMinHealthFactor",
      "outputs": [],
      "stateMutability": "nonpayable",
      "type": "function"
    },
    {
      "inputs": [
        {
          "internalType": "uint256",
          "name": "_minimumDuration",
          "type": "uint256"
        }
      ],
      "name": "setMinimumDuration",
      "outputs": [],
      "stateMutability": "nonpayable",
      "type": "function"
    },
    {
      "inputs": [
        {
          "internalType": "address",
          "name": "newOwner",
          "type": "address"
        }
      ],
      "name": "transferOwnership",
      "outputs": [],
      "stateMutability": "nonpayable",
      "type": "function"
    },
    {
      "inputs": [],
      "name": "yieldPool",
      "outputs": [
        {
          "internalType": "contract IYieldPool",
          "name": "",
          "type": "address"
        }
      ],
      "stateMutability": "view",
      "type": "function"
    },
    {
      "inputs": [],
      "name": "yieldTokenAddress",
      "outputs": [
        {
          "internalType": "address",
          "name": "",
          "type": "address"
        }
      ],
      "stateMutability": "view",
      "type": "function"
    }
  ],
  "bytecode": "0x608060405260966008556201518060095534801561001c57600080fd5b50604051612d4f380380612d4f83398101604081905261003b91610191565b6001600055806001600160a01b03811661006f57604051631e4fbdf760e01b81526000600482015260240160405180910390fd5b61007881610123565b5050600280546001600160a01b039384166001600160a01b031991821617909155600380549290931691168117909155600090815260056020818152604080842060509081905560078352908420670de0b6b3a7640000908190559380527f6d5257204ebe7d88fd91ae87941cb2dd9d8062b64ae5a2bd2d28ec40b9fbf6df93909355527f05b8ccbb9d4d8fb16ea74ce3c29a41f1b461fbdaff4714a0d9a8eb05499746bc556101d4565b600180546001600160a01b038381166001600160a01b0319831681179093556040519116919082907f8be0079c531659141344cd1fd0a4f28419497f9722a3daafe3b4186f6b6457e090600090a35050565b80516001600160a01b038116811461018c57600080fd5b919050565b6000806000606084860312156101a657600080fd5b6101af84610175565b92506101bd60208501610175565b91506101cb60408501610175565b90509250925092565b612b6c806101e36000396000f3fe6080604052600436106101b75760003560e01c80638c1ae6c8116100ec578063cd06b6e91161008a578063e1b4264c11610064578063e1b4264c14610515578063e34969551461052b578063ed5ec6481461054b578063f2fde38b1461056b57600080fd5b8063cd06b6e9146104cb578063da7a4576146104eb578063de4e5ec81461050057600080fd5b8063a8d7b3ec116100c6578063a8d7b3ec1461045a578063b39087821461046d578063b67b8331146104a3578063bcbaf487146104ab57600080fd5b80638c1ae6c8146104075780638da5cb5b1461041c5780638f188dd41461043a57600080fd5b80632bfd5146116101595780634d5c11ee116101335780634d5c11ee14610386578063715018a6146103a65780637b86e42c146103bb57806387f7d5bd146103f157600080fd5b80632bfd51461461033d578063303b7fb91461035d5780633e3ee5a21461037057600080fd5b80630d406817116101955780630d4068171461024c5780630e30428d146102cf57806318fa17d4146102ef5780631c1c4c441461031d57600080fd5b806301b08d58146101bc57806302bf321f146101de5780630accd96014610214575b600080fd5b3480156101c857600080fd5b506101dc6101d7366004612771565b61058b565b005b3480156101ea57600080fd5b506101fe6101f93660046127a6565b610598565b60405161020b91906127c1565b60405180910390f35b34801561022057600080fd5b50600354610234906001600160a01b031681565b6040516001600160a01b03909116815260200161020b565b34801561025857600080fd5b5061026c610267366004612771565b6107db565b604080519b8c5260208c019a909a526001600160a01b03988916998b019990995295871660608a0152608089019490945260a088019290925260c087015260e086015290911661010084015261012083015215156101408201526101600161020b565b3480156102db57600080fd5b506101dc6102ea3660046128b4565b610857565b3480156102fb57600080fd5b5061030f61030a3660046128de565b6108d1565b60405190815260200161020b565b34801561032957600080fd5b506101dc61033836600461295f565b61091d565b34801561034957600080fd5b506101dc6103583660046128b4565b6109e0565b6101dc61036b3660046129d0565b610aaa565b34801561037c57600080fd5b5061030f60095481565b34801561039257600080fd5b506101dc6103a13660046129d0565b61134a565b3480156103b257600080fd5b506101dc611b29565b3480156103c757600080fd5b5061030f6103d63660046127a6565b6001600160a01b031660009081526005602052604090205490565b3480156103fd57600080fd5b5061030f600a5481565b34801561041357600080fd5b5060085461030f565b34801561042857600080fd5b506001546001600160a01b0316610234565b34801561044657600080fd5b50600254610234906001600160a01b031681565b6101dc610468366004612771565b611b3d565b34801561047957600080fd5b5061030f6104883660046127a6565b6001600160a01b031660009081526007602052604090205490565b6101dc611f86565b3480156104b757600080fd5b506101dc6104c63660046128b4565b612018565b3480156104d757600080fd5b5061030f6104e63660046128b4565b6123f7565b3480156104f757600080fd5b506101fe61246e565b34801561050c57600080fd5b5060095461030f565b34801561052157600080fd5b5061030f60085481565b34801561053757600080fd5b506101dc6105463660046128b4565b61254e565b34801561055757600080fd5b506101dc610566366004612771565b612572565b34801561057757600080fd5b506101dc6105863660046127a6565b61257f565b6105936125ba565b600855565b6001600160a01b03811660009081526006602090815260408083208054825181850281018501909352808352606094938301828280156105f757602002820191906000526020600020905b8154815260200190600101908083116105e3575b505050505090506000815167ffffffffffffffff81111561061a5761061a612a28565b6040519080825280602002602001820160405280156106c557816020015b6106b2604051806101600160405280600081526020016000815260200160006001600160a01b0316815260200160006001600160a01b031681526020016000815260200160008152602001600081526020016000815260200160006001600160a01b03168152602001600081526020016000151581525090565b8152602001906001900390816106385790505b50905060005b82518110156107d3576001600160a01b0385166000908152600460205260408120845190919085908490811061070357610703612a3e565b60209081029190910181015182528181019290925260409081016000208151610160810183528154815260018201549381019390935260028101546001600160a01b039081169284019290925260038101548216606084015260048101546080840152600581015460a0840152600681015460c0840152600781015460e084015260088101549091166101008301526009810154610120830152600a015460ff16151561014082015282518390839081106107c0576107c0612a3e565b60209081029190910101526001016106cb565b509392505050565b600b81815481106107eb57600080fd5b60009182526020909120600b9091020180546001820154600283015460038401546004850154600586015460068701546007880154600889015460098a0154600a909a0154989a5096986001600160a01b03968716989587169794969395929491939091169160ff168b565b61085f6125ba565b60648111156108b55760405162461bcd60e51b815260206004820152601960248201527f5468726573686f6c64206d757374206265203c3d20313030250000000000000060448201526064015b60405180910390fd5b6001600160a01b03909116600090815260056020526040902055565b6000826000036108e45750600019610916565b6001600160a01b03821660009081526005602052604090205483906109099086612a6a565b6109139190612a81565b90505b9392505050565b6109256125e7565b8281146109745760405162461bcd60e51b815260206004820152601c60248201527f417272617973206d75737420686176652073616d65206c656e6774680000000060448201526064016108ac565b60005b838110156109cf576109c785858381811061099457610994612a3e565b90506020020160208101906109a991906127a6565b8484848181106109bb576109bb612a3e565b90506020020135612018565b600101610977565b506109da6001600055565b50505050565b6109e86125ba565b6001600160a01b038216610a515760405162461bcd60e51b815260206004820152602a60248201527f43616e6e6f742066756e64206e617469766520746f6b656e20766961207468696044820152693990333ab731ba34b7b760b11b60648201526084016108ac565b610a666001600160a01b038316333084612611565b6040518181526001600160a01b0383169033907faa1ff9f7fea9b0b6004b27d6dafaf7545a080426cc7115c6a8bd9019957c43539060200160405180910390a35050565b610ab26125e7565b6003546001600160a01b0390811690851603610b0b5760405162461bcd60e51b815260206004820152601860248201527721b0b73737ba103137b93937bb902cb4b2b6322a37b5b2b760411b60448201526064016108ac565b6003546001600160a01b0390811690871603610b755760405162461bcd60e51b815260206004820152602360248201527f43616e6e6f7420757365205969656c64546f6b656e20617320636f6c6c6174656044820152621c985b60ea1b60648201526084016108ac565b60025460405163f9eaee0d60e01b81526001600160a01b0388811660048301529091169063f9eaee0d90602401602060405180830381865afa158015610bbf573d6000803e3d6000fd5b505050506040513d601f19601f82011682018060405250810190610be39190612aa3565b80610bf557506001600160a01b038616155b610c415760405162461bcd60e51b815260206004820152601b60248201527f636f6c6c61746572616c546f6b656e206e6f7420616c6c6f776564000000000060448201526064016108ac565b60008111610c895760405162461bcd60e51b8152602060048201526015602482015274696e76616c696420696e746572657374207261746560581b60448201526064016108ac565b60008311610cce5760405162461bcd60e51b81526020600482015260126024820152710626f72726f7720616d6f756e7420697320360741b60448201526064016108ac565b600954821015610d155760405162461bcd60e51b8152602060048201526012602482015271191d5c985d1a5bdb881d1bdbc81cda1bdc9d60721b60448201526064016108ac565b82471015610d5c5760405162461bcd60e51b81526020600482015260146024820152734e6f7420656e6f756768206c697175696469747960601b60448201526064016108ac565b60006001600160a01b038716610e3257853414610de15760405162461bcd60e51b815260206004820152603c60248201527f6d73672e76616c7565206d757374206d61746368205f636f6c6c61746572616c60448201527f416d6f756e7420666f72206e617469766520636f6c6c61746572616c0000000060648201526084016108ac565b6000805260076020527f6d5257204ebe7d88fd91ae87941cb2dd9d8062b64ae5a2bd2d28ec40b9fbf6df54341015610e2b5760405162461bcd60e51b81526004016108ac90612ac5565b5034610e82565b6001600160a01b038716600090815260076020526040902054861015610e6a5760405162461bcd60e51b81526004016108ac90612ac5565b610e7f6001600160a01b038816333089612611565b50845b6000610e8f82868a6108d1565b9050600854811015610edb5760405162461bcd60e51b81526020600482015260156024820152744865616c746820666163746f7220746f6f206c6f7760581b60448201526064016108ac565b600a805460009182610eec83612af1565b91905055905060006040518061016001604052808381526020018581526020018b6001600160a01b03168152602001896001600160a01b03168152602001888152602001878152602001428152602001868152602001336001600160a01b031681526020016000815260200160011515815250905060066000336001600160a01b03166001600160a01b03168152602001908152602001600020829080600181540180825580915050600190039060005260206000200160009091909190915055600b8190806001815401808255809150506001900390600052602060002090600b0201600090919091909150600082015181600001556020820151816001015560408201518160020160006101000a8154816001600160a01b0302191690836001600160a01b0316021790555060608201518160030160006101000a8154816001600160a01b0302191690836001600160a01b031602179055506080820151816004015560a0820151816005015560c0820151816006015560e082015181600701556101008201518160080160006101000a8154816001600160a01b0302191690836001600160a01b03160217905550610120820151816009015561014082015181600a0160006101000a81548160ff02191690831515021790555050508060046000336001600160a01b03166001600160a01b031681526020019081526020016000206000848152602001908152602001600020600082015181600001556020820151816001015560408201518160020160006101000a8154816001600160a01b0302191690836001600160a01b0316021790555060608201518160030160006101000a8154816001600160a01b0302191690836001600160a01b031602179055506080820151816004015560a0820151816005015560c0820151816006015560e082015181600701556101008201518160080160006101000a8154816001600160a01b0302191690836001600160a01b03160217905550610120820151816009015561014082015181600a0160006101000a81548160ff021916908315150217905550905050336001600160a01b03167f3b2b81666fe526902fa85ba380549dd59f155d7258e132ec0bb898f26ede3d2083898b8a604051611253949392919093845260208401929092526001600160a01b03166040830152606082015260800190565b60405180910390a26040518481526001600160a01b038b169033907ff1c0dd7e9b98bbff859029005ef89b127af049cd18df1a8d79f0b7e019911e569060200160405180910390a3604051600090339089908381818185875af1925050503d80600081146112dd576040519150601f19603f3d011682016040523d82523d6000602084013e6112e2565b606091505b50509050806113335760405162461bcd60e51b815260206004820152601b60248201527f4661696c656420746f2073656e64206e617469766520746f6b656e000000000060448201526064016108ac565b50505050506113426001600055565b505050505050565b6113526125e7565b60025460405163f9eaee0d60e01b81526001600160a01b0388811660048301529091169063f9eaee0d90602401602060405180830381865afa15801561139c573d6000803e3d6000fd5b505050506040513d601f19601f820116820180604052508101906113c09190612aa3565b61140c5760405162461bcd60e51b815260206004820152601b60248201527f636f6c6c61746572616c546f6b656e206e6f7420616c6c6f776564000000000060448201526064016108ac565b60025460405163f9eaee0d60e01b81526001600160a01b0386811660048301529091169063f9eaee0d90602401602060405180830381865afa158015611456573d6000803e3d6000fd5b505050506040513d601f19601f8201168201806040525081019061147a9190612aa3565b6114c65760405162461bcd60e51b815260206004820152601760248201527f626f72726f77546f6b656e206e6f7420616c6c6f77656400000000000000000060448201526064016108ac565b6000811161150e5760405162461bcd60e51b8152602060048201526015602482015274696e76616c696420696e746572657374207261746560581b60448201526064016108ac565b6001600160a01b0386166000908152600760205260409020548510156115465760405162461bcd60e51b81526004016108ac90612ac5565b6000831161158b5760405162461bcd60e51b81526020600482015260126024820152710626f72726f7720616d6f756e7420697320360741b60448201526064016108ac565b6009548210156115d25760405162461bcd60e51b8152602060048201526012602482015271191d5c985d1a5bdb881d1bdbc81cda1bdc9d60721b60448201526064016108ac565b6003546001600160a01b039081169085160361162b5760405162461bcd60e51b815260206004820152601860248201527721b0b73737ba103137b93937bb902cb4b2b6322a37b5b2b760411b60448201526064016108ac565b6040516370a0823160e01b815230600482015283906001600160a01b038616906370a0823190602401602060405180830381865afa158015611671573d6000803e3d6000fd5b505050506040513d601f19601f820116820180604052508101906116959190612b0a565b10156116da5760405162461bcd60e51b81526020600482015260146024820152734e6f7420656e6f756768206c697175696469747960601b60448201526064016108ac565b60006116e78685896108d1565b90506008548110156117335760405162461bcd60e51b81526020600482015260156024820152744865616c746820666163746f7220746f6f206c6f7760581b60448201526064016108ac565b600a80546000918261174483612af1565b90915550905061175f6001600160a01b03891633308a612611565b60006040518061016001604052808381526020018981526020018a6001600160a01b03168152602001886001600160a01b03168152602001878152602001868152602001428152602001858152602001336001600160a01b031681526020016000815260200160011515815250905060066000336001600160a01b03166001600160a01b03168152602001908152602001600020829080600181540180825580915050600190039060005260206000200160009091909190915055600b8190806001815401808255809150506001900390600052602060002090600b0201600090919091909150600082015181600001556020820151816001015560408201518160020160006101000a8154816001600160a01b0302191690836001600160a01b0316021790555060608201518160030160006101000a8154816001600160a01b0302191690836001600160a01b031602179055506080820151816004015560a0820151816005015560c0820151816006015560e082015181600701556101008201518160080160006101000a8154816001600160a01b0302191690836001600160a01b03160217905550610120820151816009015561014082015181600a0160006101000a81548160ff02191690831515021790555050508060046000336001600160a01b03166001600160a01b031681526020019081526020016000206000848152602001908152602001600020600082015181600001556020820151816001015560408201518160020160006101000a8154816001600160a01b0302191690836001600160a01b0316021790555060608201518160030160006101000a8154816001600160a01b0302191690836001600160a01b031602179055506080820151816004015560a0820151816005015560c0820151816006015560e082015181600701556101008201518160080160006101000a8154816001600160a01b0302191690836001600160a01b03160217905550610120820151816009015561014082015181600a0160006101000a81548160ff021916908315150217905550905050336001600160a01b03167f3b2b81666fe526902fa85ba380549dd59f155d7258e132ec0bb898f26ede3d2083888a89604051611ac0949392919093845260208401929092526001600160a01b03166040830152606082015260800190565b60405180910390a26040518881526001600160a01b038a169033907ff1c0dd7e9b98bbff859029005ef89b127af049cd18df1a8d79f0b7e019911e569060200160405180910390a3611b1c6001600160a01b0388163388612678565b5050506113426001600055565b611b316125ba565b611b3b60006126ae565b565b611b456125e7565b336000908152600460209081526040808320848452909152902080548214611ba05760405162461bcd60e51b815260206004820152600e60248201526d131bd85b881b9bdd08199bdd5b9960921b60448201526064016108ac565b600a81015460ff16611be95760405162461bcd60e51b81526020600482015260126024820152714c6f616e206973206e6f742061637469766560701b60448201526064016108ac565b80600501548160060154611bfd9190612b23565b421115611c3b5760405162461bcd60e51b815260206004820152600c60248201526b131bd85b88195e1c1a5c995960a21b60448201526064016108ac565b6000611c4733846123f7565b60038301549091506001600160a01b0316611cc65780341015611cc15760405162461bcd60e51b815260206004820152602c60248201527f496e73756666696369656e74206e617469766520746f6b656e2073656e74206660448201526b1bdc881c995c185e5b595b9d60a21b60648201526084016108ac565b611ce0565b6003820154611ce0906001600160a01b0316333084612611565b600a8201805460ff1916905560005b600b54811015611e165783600b8281548110611d0d57611d0d612a3e565b90600052602060002090600b020160000154148015611d635750336001600160a01b0316600b8281548110611d4457611d44612a3e565b600091825260209091206008600b9092020101546001600160a01b0316145b15611e0e576000600b8281548110611d7d57611d7d612a3e565b90600052602060002090600b0201600a0160006101000a81548160ff0219169083151502179055507ff7bdb03fba5957a14f016deea0beb505430aa6a80b743df13510db2e32cbfa86600b8281548110611dd957611dd9612a3e565b600091825260208220600b9091020154604051611e0192909182521515602082015260400190565b60405180910390a1611e16565b600101611cef565b5060028201546001600160a01b0316611ed557600182015460405160009133918381818185875af1925050503d8060008114611e6e576040519150601f19603f3d011682016040523d82523d6000602084013e611e73565b606091505b5050905080611ecf5760405162461bcd60e51b815260206004820152602260248201527f4661696c656420746f2072657475726e206e617469766520636f6c6c61746572604482015261185b60f21b60648201526084016108ac565b50611ef6565b60018201546002830154611ef6916001600160a01b03909116903390612678565b604080518481526020810183905233917fc7ce0a35f17b490de2a317e7fecb2cae86b1abffb03800b2f492823521382698910160405180910390a2600182015460405133917fdaed309a628faec6cab72194019e2a1a34e890ca9bf9be99788992dd5469281991611f6f91878252602082015260400190565b60405180910390a25050611f836001600055565b50565b611f8e6125ba565b60003411611fde5760405162461bcd60e51b815260206004820152601d60248201527f416d6f756e74206d7573742062652067726561746572207468616e203000000060448201526064016108ac565b60405134815260009033907faa1ff9f7fea9b0b6004b27d6dafaf7545a080426cc7115c6a8bd9019957c43539060200160405180910390a3565b6001600160a01b03821660009081526004602090815260408083208484529091529020600a81015460ff166120845760405162461bcd60e51b81526020600482015260126024820152714c6f616e206973206e6f742061637469766560701b60448201526064016108ac565b60028101546001600160a01b0316600090815260056020526040902054806120ee5760405162461bcd60e51b815260206004820152601d60248201527f4c69717569646174696f6e207468726573686f6c64206e6f742073657400000060448201526064016108ac565b60006120fa85856123f7565b6001840154600285015491925060009161211f919084906001600160a01b03166108d1565b90508281108061214157508360050154846006015461213e9190612b23565b42115b6121975760405162461bcd60e51b815260206004820152602160248201527f4c6f616e206e6f7420656c696769626c6520666f72206c69717569646174696f6044820152603760f91b60648201526084016108ac565b600a8401805460ff1916905560005b600b548110156122cd5785600b82815481106121c4576121c4612a3e565b90600052602060002090600b02016000015414801561221a5750866001600160a01b0316600b82815481106121fb576121fb612a3e565b600091825260209091206008600b9092020101546001600160a01b0316145b156122c5576000600b828154811061223457612234612a3e565b90600052602060002090600b0201600a0160006101000a81548160ff0219169083151502179055507ff7bdb03fba5957a14f016deea0beb505430aa6a80b743df13510db2e32cbfa86600b828154811061229057612290612a3e565b600091825260208220600b90910201546040516122b892909182521515602082015260400190565b60405180910390a16122cd565b6001016121a6565b5060028401546001600160a01b031661238b57600184015460405160009133918381818185875af1925050503d8060008114612325576040519150601f19603f3d011682016040523d82523d6000602084013e61232a565b606091505b50509050806123855760405162461bcd60e51b815260206004820152602160248201527f4661696c656420746f207365697a65206e617469766520636f6c6c61746572616044820152601b60fa1b60648201526084016108ac565b506123ac565b600184015460028501546123ac916001600160a01b03909116903390612678565b604080518681523360208201526001600160a01b038816917fde21b2a43b0a2c2109c049fb1e4bb8653fd67d0ffd74fdcb662db381f1eeab38910160405180910390a2505050505050565b6001600160a01b0382166000908152600460208181526040808420858552909152822090810154600782015460058301548464496cebb8008261243a8587612a6a565b6124449190612a6a565b61244e9190612a81565b90508085600401546124609190612b23565b955050505050505b92915050565b6060600b805480602002602001604051908101604052809291908181526020016000905b828210156125455760008481526020908190206040805161016081018252600b8602909201805483526001808201548486015260028201546001600160a01b039081169385019390935260038201548316606085015260048201546080850152600582015460a0850152600682015460c0850152600782015460e085015260088201549092166101008401526009810154610120840152600a015460ff1615156101408301529083529092019101612492565b50505050905090565b6125566125ba565b6001600160a01b03909116600090815260076020526040902055565b61257a6125ba565b600955565b6125876125ba565b6001600160a01b0381166125b157604051631e4fbdf760e01b8152600060048201526024016108ac565b611f83816126ae565b6001546001600160a01b03163314611b3b5760405163118cdaa760e01b81523360048201526024016108ac565b60026000540361260a57604051633ee5aeb560e01b815260040160405180910390fd5b6002600055565b6040516001600160a01b0384811660248301528381166044830152606482018390526109da9186918216906323b872dd906084015b604051602081830303815290604052915060e01b6020820180516001600160e01b038381831617835250505050612700565b6040516001600160a01b038381166024830152604482018390526126a991859182169063a9059cbb90606401612646565b505050565b600180546001600160a01b038381166001600160a01b0319831681179093556040519116919082907f8be0079c531659141344cd1fd0a4f28419497f9722a3daafe3b4186f6b6457e090600090a35050565b600080602060008451602086016000885af180612723576040513d6000823e3d81fd5b50506000513d9150811561273b578060011415612748565b6001600160a01b0384163b155b156109da57604051635274afe760e01b81526001600160a01b03851660048201526024016108ac565b60006020828403121561278357600080fd5b5035919050565b80356001600160a01b03811681146127a157600080fd5b919050565b6000602082840312156127b857600080fd5b6109168261278a565b602080825282518282018190526000918401906040840190835b818110156128a95783518051845260208101516020850152604081015161280d60408601826001600160a01b03169052565b50606081015161282860608601826001600160a01b03169052565b506080810151608085015260a081015160a085015260c081015160c085015260e081015160e085015261010081015161286d6101008601826001600160a01b03169052565b50610120810151610120850152610140810151905061289161014085018215159052565b506020939093019261016092909201916001016127db565b509095945050505050565b600080604083850312156128c757600080fd5b6128d08361278a565b946020939093013593505050565b6000806000606084860312156128f357600080fd5b833592506020840135915061290a6040850161278a565b90509250925092565b60008083601f84011261292557600080fd5b50813567ffffffffffffffff81111561293d57600080fd5b6020830191508360208260051b850101111561295857600080fd5b9250929050565b6000806000806040858703121561297557600080fd5b843567ffffffffffffffff81111561298c57600080fd5b61299887828801612913565b909550935050602085013567ffffffffffffffff8111156129b857600080fd5b6129c487828801612913565b95989497509550505050565b60008060008060008060c087890312156129e957600080fd5b6129f28761278a565b955060208701359450612a076040880161278a565b959894975094956060810135955060808101359460a0909101359350915050565b634e487b7160e01b600052604160045260246000fd5b634e487b7160e01b600052603260045260246000fd5b634e487b7160e01b600052601160045260246000fd5b808202811582820484141761246857612468612a54565b600082612a9e57634e487b7160e01b600052601260045260246000fd5b500490565b600060208284031215612ab557600080fd5b8151801515811461091657600080fd5b602080825260129082015271636f6c6c61746572616c20746f6f206c6f7760701b604082015260600190565b600060018201612b0357612b03612a54565b5060010190565b600060208284031215612b1c57600080fd5b5051919050565b8082018082111561246857612468612a5456fea264697066735822122092ae5cb08bf3506c01241d9ecdbf70e8cfe5b694e65ae8693d7e30fd1217fbe564736f6c634300081c0033",
  "linkReferences": {},
  "deployedLinkReferences": {}
}