{
  "_format": "hh-sol-artifact-1",
  "contractName": "BorrowProtocol",
  "sourceName": "contracts/BorrowProtocol.sol",
  "abi": [
    {
      "inputs": [
        {
          "internalType": "address",
          "name": "_yieldPoolAddress",
          "type": "address"
        },
        {
          "internalType": "address",
          "name": "_owner",
          "type": "address"
        },
        {
          "internalType": "address",
          "name": "_aaveLikeYieldPoolAddress",
          "type": "address"
        },
        {
          "internalType": "address",
          "name": "_xfiAddress",
          "type": "address"
        }
      ],
      "stateMutability": "nonpayable",
      "type": "constructor"
    },
    {
      "inputs": [
        {
          "internalType": "address",
          "name": "owner",
          "type": "address"
        }
      ],
      "name": "OwnableInvalidOwner",
      "type": "error"
    },
    {
      "inputs": [
        {
          "internalType": "address",
          "name": "account",
          "type": "address"
        }
      ],
      "name": "OwnableUnauthorizedAccount",
      "type": "error"
    },
    {
      "inputs": [],
      "name": "ReentrancyGuardReentrantCall",
      "type": "error"
    },
    {
      "inputs": [
        {
          "internalType": "address",
          "name": "token",
          "type": "address"
        }
      ],
      "name": "SafeERC20FailedOperation",
      "type": "error"
    },
    {
      "anonymous": false,
      "inputs": [
        {
          "indexed": false,
          "internalType": "uint256",
          "name": "loanId",
          "type": "uint256"
        },
        {
          "indexed": false,
          "internalType": "bool",
          "name": "active",
          "type": "bool"
        }
      ],
      "name": "ActiveLoanUpdated",
      "type": "event"
    },
    {
      "anonymous": false,
      "inputs": [
        {
          "indexed": true,
          "internalType": "address",
          "name": "user",
          "type": "address"
        },
        {
          "indexed": true,
          "internalType": "address",
          "name": "token",
          "type": "address"
        },
        {
          "indexed": false,
          "internalType": "uint256",
          "name": "amount",
          "type": "uint256"
        }
      ],
      "name": "CollateralDeposited",
      "type": "event"
    },
    {
      "anonymous": false,
      "inputs": [
        {
          "indexed": true,
          "internalType": "address",
          "name": "user",
          "type": "address"
        },
        {
          "indexed": false,
          "internalType": "uint256",
          "name": "loanId",
          "type": "uint256"
        },
        {
          "indexed": false,
          "internalType": "uint256",
          "name": "amount",
          "type": "uint256"
        }
      ],
      "name": "CollateralWithdrawn",
      "type": "event"
    },
    {
      "anonymous": false,
      "inputs": [
        {
          "indexed": true,
          "internalType": "address",
          "name": "user",
          "type": "address"
        },
        {
          "indexed": false,
          "internalType": "uint256",
          "name": "stakedAmount",
          "type": "uint256"
        },
        {
          "indexed": false,
          "internalType": "uint256",
          "name": "borrowedAmount",
          "type": "uint256"
        },
        {
          "indexed": false,
          "internalType": "uint256",
          "name": "destinationChainId",
          "type": "uint256"
        }
      ],
      "name": "CrossChainDataSent",
      "type": "event"
    },
    {
      "anonymous": false,
      "inputs": [
        {
          "indexed": true,
          "internalType": "address",
          "name": "user",
          "type": "address"
        },
        {
          "indexed": false,
          "internalType": "uint256",
          "name": "loanId",
          "type": "uint256"
        },
        {
          "indexed": false,
          "internalType": "uint256",
          "name": "amount",
          "type": "uint256"
        },
        {
          "indexed": false,
          "internalType": "address",
          "name": "token",
          "type": "address"
        },
        {
          "indexed": false,
          "internalType": "uint256",
          "name": "duration",
          "type": "uint256"
        }
      ],
      "name": "LoanCreated",
      "type": "event"
    },
    {
      "anonymous": false,
      "inputs": [
        {
          "indexed": true,
          "internalType": "address",
          "name": "user",
          "type": "address"
        },
        {
          "indexed": false,
          "internalType": "uint256",
          "name": "loanId",
          "type": "uint256"
        },
        {
          "indexed": false,
          "internalType": "address",
          "name": "liquidator",
          "type": "address"
        }
      ],
      "name": "LoanLiquidated",
      "type": "event"
    },
    {
      "anonymous": false,
      "inputs": [
        {
          "indexed": true,
          "internalType": "address",
          "name": "user",
          "type": "address"
        },
        {
          "indexed": false,
          "internalType": "uint256",
          "name": "loanId",
          "type": "uint256"
        },
        {
          "indexed": false,
          "internalType": "uint256",
          "name": "amount",
          "type": "uint256"
        }
      ],
      "name": "LoanRepaid",
      "type": "event"
    },
    {
      "anonymous": false,
      "inputs": [
        {
          "indexed": true,
          "internalType": "address",
          "name": "previousOwner",
          "type": "address"
        },
        {
          "indexed": true,
          "internalType": "address",
          "name": "newOwner",
          "type": "address"
        }
      ],
      "name": "OwnershipTransferred",
      "type": "event"
    },
    {
      "anonymous": false,
      "inputs": [
        {
          "indexed": true,
          "internalType": "address",
          "name": "funder",
          "type": "address"
        },
        {
          "indexed": true,
          "internalType": "address",
          "name": "token",
          "type": "address"
        },
        {
          "indexed": false,
          "internalType": "uint256",
          "name": "amount",
          "type": "uint256"
        }
      ],
      "name": "PoolFunded",
      "type": "event"
    },
    {
      "anonymous": false,
      "inputs": [
        {
          "indexed": true,
          "internalType": "address",
          "name": "token",
          "type": "address"
        },
        {
          "indexed": false,
          "internalType": "uint256",
          "name": "amount",
          "type": "uint256"
        },
        {
          "indexed": true,
          "internalType": "address",
          "name": "to",
          "type": "address"
        }
      ],
      "name": "ProtocolFeeCollected",
      "type": "event"
    },
    {
      "inputs": [
        {
          "internalType": "address",
          "name": "_collateralToken",
          "type": "address"
        },
        {
          "internalType": "uint256",
          "name": "_collateralAmount",
          "type": "uint256"
        },
        {
          "internalType": "address",
          "name": "_borrowToken",
          "type": "address"
        },
        {
          "internalType": "uint256",
          "name": "_borrowAmount",
          "type": "uint256"
        },
        {
          "internalType": "uint256",
          "name": "_duration",
          "type": "uint256"
        },
        {
          "internalType": "uint256",
          "name": "_destinationChainId",
          "type": "uint256"
        }
      ],
      "name": "Borrow",
      "outputs": [],
      "stateMutability": "payable",
      "type": "function"
    },
    {
      "inputs": [
        {
          "internalType": "address",
          "name": "user",
          "type": "address"
        }
      ],
      "name": "calculateCreditScore",
      "outputs": [
        {
          "internalType": "uint256",
          "name": "",
          "type": "uint256"
        }
      ],
      "stateMutability": "view",
      "type": "function"
    },
    {
      "inputs": [
        {
          "internalType": "uint256",
          "name": "_collateralAmount",
          "type": "uint256"
        },
        {
          "internalType": "uint256",
          "name": "_borrowAmount",
          "type": "uint256"
        },
        {
          "internalType": "address",
          "name": "_collateralToken",
          "type": "address"
        }
      ],
      "name": "calculateHealthFactorSimulated",
      "outputs": [
        {
          "internalType": "uint256",
          "name": "",
          "type": "uint256"
        }
      ],
      "stateMutability": "view",
      "type": "function"
    },
    {
      "inputs": [
        {
          "internalType": "address",
          "name": "user",
          "type": "address"
        },
        {
          "internalType": "uint256",
          "name": "loanId",
          "type": "uint256"
        }
      ],
      "name": "calculateTotalDue",
      "outputs": [
        {
          "internalType": "uint256",
          "name": "",
          "type": "uint256"
        }
      ],
      "stateMutability": "view",
      "type": "function"
    },
    {
      "inputs": [
        {
          "internalType": "address",
          "name": "",
          "type": "address"
        },
        {
          "internalType": "uint256",
          "name": "",
          "type": "uint256"
        }
      ],
      "name": "crossChainBorrowedAmount",
      "outputs": [
        {
          "internalType": "uint256",
          "name": "",
          "type": "uint256"
        }
      ],
      "stateMutability": "view",
      "type": "function"
    },
    {
      "inputs": [
        {
          "internalType": "address",
          "name": "",
          "type": "address"
        },
        {
          "internalType": "uint256",
          "name": "",
          "type": "uint256"
        }
      ],
      "name": "crossChainStakedAmount",
      "outputs": [
        {
          "internalType": "uint256",
          "name": "",
          "type": "uint256"
        }
      ],
      "stateMutability": "view",
      "type": "function"
    },
    {
      "inputs": [
        {
          "internalType": "address",
          "name": "token",
          "type": "address"
        },
        {
          "internalType": "uint256",
          "name": "amount",
          "type": "uint256"
        }
      ],
      "name": "fundPool",
      "outputs": [],
      "stateMutability": "nonpayable",
      "type": "function"
    },
    {
      "inputs": [],
      "name": "getAaveLikeYieldPool",
      "outputs": [
        {
          "internalType": "contract IMockAavePool",
          "name": "",
          "type": "address"
        }
      ],
      "stateMutability": "view",
      "type": "function"
    },
    {
      "inputs": [],
      "name": "getAaveLikeYieldPoolAddress",
      "outputs": [
        {
          "internalType": "address",
          "name": "",
          "type": "address"
        }
      ],
      "stateMutability": "view",
      "type": "function"
    },
    {
      "inputs": [
        {
          "internalType": "address",
          "name": "user",
          "type": "address"
        }
      ],
      "name": "getCreditProfile",
      "outputs": [
        {
          "components": [
            {
              "internalType": "uint256",
              "name": "totalBorrowed",
              "type": "uint256"
            },
            {
              "internalType": "uint256",
              "name": "totalRepaid",
              "type": "uint256"
            },
            {
              "internalType": "uint256",
              "name": "activeLoans",
              "type": "uint256"
            },
            {
              "internalType": "uint256",
              "name": "onTimeRepayments",
              "type": "uint256"
            },
            {
              "internalType": "uint256",
              "name": "lateRepayments",
              "type": "uint256"
            },
            {
              "internalType": "uint256",
              "name": "lastUpdated",
              "type": "uint256"
            },
            {
              "internalType": "uint256",
              "name": "score",
              "type": "uint256"
            }
          ],
          "internalType": "struct BorrowProtocol.CreditProfile",
          "name": "",
          "type": "tuple"
        }
      ],
      "stateMutability": "view",
      "type": "function"
    },
    {
      "inputs": [
        {
          "internalType": "address",
          "name": "user",
          "type": "address"
        }
      ],
      "name": "getCreditScore",
      "outputs": [
        {
          "internalType": "uint256",
          "name": "",
          "type": "uint256"
        }
      ],
      "stateMutability": "view",
      "type": "function"
    },
    {
      "inputs": [],
      "name": "getCurrentLoanId",
      "outputs": [
        {
          "internalType": "uint256",
          "name": "",
          "type": "uint256"
        }
      ],
      "stateMutability": "view",
      "type": "function"
    },
    {
      "inputs": [
        {
          "internalType": "address",
          "name": "token",
          "type": "address"
        }
      ],
      "name": "getLiquidationThreshold",
      "outputs": [
        {
          "internalType": "uint256",
          "name": "",
          "type": "uint256"
        }
      ],
      "stateMutability": "view",
      "type": "function"
    },
    {
      "inputs": [
        {
          "internalType": "address",
          "name": "_tokenAddress",
          "type": "address"
        }
      ],
      "name": "getMinCollateralAmount",
      "outputs": [
        {
          "internalType": "uint256",
          "name": "",
          "type": "uint256"
        }
      ],
      "stateMutability": "view",
      "type": "function"
    },
    {
      "inputs": [],
      "name": "getMinHealthFactor",
      "outputs": [
        {
          "internalType": "uint256",
          "name": "",
          "type": "uint256"
        }
      ],
      "stateMutability": "view",
      "type": "function"
    },
    {
      "inputs": [
        {
          "internalType": "address",
          "name": "token",
          "type": "address"
        }
      ],
      "name": "getMinimumCollateralAmount",
      "outputs": [
        {
          "internalType": "uint256",
          "name": "",
          "type": "uint256"
        }
      ],
      "stateMutability": "view",
      "type": "function"
    },
    {
      "inputs": [],
      "name": "getMinimumDuration",
      "outputs": [
        {
          "internalType": "uint256",
          "name": "",
          "type": "uint256"
        }
      ],
      "stateMutability": "view",
      "type": "function"
    },
    {
      "inputs": [],
      "name": "getMinimumHealthFactor",
      "outputs": [
        {
          "internalType": "uint256",
          "name": "",
          "type": "uint256"
        }
      ],
      "stateMutability": "view",
      "type": "function"
    },
    {
      "inputs": [],
      "name": "getProtocolFee",
      "outputs": [
        {
          "internalType": "uint256",
          "name": "",
          "type": "uint256"
        }
      ],
      "stateMutability": "view",
      "type": "function"
    },
    {
      "inputs": [],
      "name": "getTreasury",
      "outputs": [
        {
          "internalType": "address",
          "name": "",
          "type": "address"
        }
      ],
      "stateMutability": "view",
      "type": "function"
    },
    {
      "inputs": [
        {
          "internalType": "address",
          "name": "user",
          "type": "address"
        },
        {
          "internalType": "uint256",
          "name": "loanId",
          "type": "uint256"
        }
      ],
      "name": "getUserLoan",
      "outputs": [
        {
          "components": [
            {
              "internalType": "uint256",
              "name": "loanId",
              "type": "uint256"
            },
            {
              "internalType": "uint256",
              "name": "collateralAmount",
              "type": "uint256"
            },
            {
              "internalType": "address",
              "name": "collateralToken",
              "type": "address"
            },
            {
              "internalType": "address",
              "name": "borrowToken",
              "type": "address"
            },
            {
              "internalType": "uint256",
              "name": "borrowAmount",
              "type": "uint256"
            },
            {
              "internalType": "uint256",
              "name": "duration",
              "type": "uint256"
            },
            {
              "internalType": "uint256",
              "name": "startTime",
              "type": "uint256"
            },
            {
              "internalType": "uint256",
              "name": "interestRate",
              "type": "uint256"
            },
            {
              "internalType": "address",
              "name": "userAddress",
              "type": "address"
            },
            {
              "internalType": "uint256",
              "name": "amountPaid",
              "type": "uint256"
            },
            {
              "internalType": "bool",
              "name": "active",
              "type": "bool"
            },
            {
              "internalType": "uint256",
              "name": "chainId",
              "type": "uint256"
            }
          ],
          "internalType": "struct BorrowProtocol.Loan",
          "name": "",
          "type": "tuple"
        }
      ],
      "stateMutability": "view",
      "type": "function"
    },
    {
      "inputs": [
        {
          "internalType": "address",
          "name": "user",
          "type": "address"
        }
      ],
      "name": "getUserLoanIds",
      "outputs": [
        {
          "internalType": "uint256[]",
          "name": "",
          "type": "uint256[]"
        }
      ],
      "stateMutability": "view",
      "type": "function"
    },
    {
      "inputs": [
        {
          "internalType": "address",
          "name": "user",
          "type": "address"
        }
      ],
      "name": "getUserLoans",
      "outputs": [
        {
          "components": [
            {
              "internalType": "uint256",
              "name": "loanId",
              "type": "uint256"
            },
            {
              "internalType": "uint256",
              "name": "collateralAmount",
              "type": "uint256"
            },
            {
              "internalType": "address",
              "name": "collateralToken",
              "type": "address"
            },
            {
              "internalType": "address",
              "name": "borrowToken",
              "type": "address"
            },
            {
              "internalType": "uint256",
              "name": "borrowAmount",
              "type": "uint256"
            },
            {
              "internalType": "uint256",
              "name": "duration",
              "type": "uint256"
            },
            {
              "internalType": "uint256",
              "name": "startTime",
              "type": "uint256"
            },
            {
              "internalType": "uint256",
              "name": "interestRate",
              "type": "uint256"
            },
            {
              "internalType": "address",
              "name": "userAddress",
              "type": "address"
            },
            {
              "internalType": "uint256",
              "name": "amountPaid",
              "type": "uint256"
            },
            {
              "internalType": "bool",
              "name": "active",
              "type": "bool"
            },
            {
              "internalType": "uint256",
              "name": "chainId",
              "type": "uint256"
            }
          ],
          "internalType": "struct BorrowProtocol.Loan[]",
          "name": "",
          "type": "tuple[]"
        }
      ],
      "stateMutability": "view",
      "type": "function"
    },
    {
      "inputs": [],
      "name": "getXfiAddress",
      "outputs": [
        {
          "internalType": "address",
          "name": "",
          "type": "address"
        }
      ],
      "stateMutability": "view",
      "type": "function"
    },
    {
      "inputs": [],
      "name": "getYieldPool",
      "outputs": [
        {
          "internalType": "contract IYieldPool",
          "name": "",
          "type": "address"
        }
      ],
      "stateMutability": "view",
      "type": "function"
    },
    {
      "inputs": [
        {
          "internalType": "address",
          "name": "user",
          "type": "address"
        },
        {
          "internalType": "uint256",
          "name": "loanId",
          "type": "uint256"
        }
      ],
      "name": "liquidate",
      "outputs": [],
      "stateMutability": "nonpayable",
      "type": "function"
    },
    {
      "inputs": [],
      "name": "owner",
      "outputs": [
        {
          "internalType": "address",
          "name": "",
          "type": "address"
        }
      ],
      "stateMutability": "view",
      "type": "function"
    },
    {
      "inputs": [
        {
          "internalType": "uint256",
          "name": "_loanId",
          "type": "uint256"
        },
        {
          "internalType": "uint256",
          "name": "_destinationChainId",
          "type": "uint256"
        }
      ],
      "name": "payLoan",
      "outputs": [],
      "stateMutability": "payable",
      "type": "function"
    },
    {
      "inputs": [
        {
          "internalType": "address",
          "name": "_user",
          "type": "address"
        },
        {
          "internalType": "uint256",
          "name": "_stakedAmount",
          "type": "uint256"
        },
        {
          "internalType": "uint256",
          "name": "_borrowedAmount",
          "type": "uint256"
        },
        {
          "internalType": "uint256",
          "name": "_sourceChainId",
          "type": "uint256"
        }
      ],
      "name": "receiveCrossChainData",
      "outputs": [],
      "stateMutability": "nonpayable",
      "type": "function"
    },
    {
      "inputs": [
        {
          "internalType": "address",
          "name": "token",
          "type": "address"
        },
        {
          "internalType": "uint256",
          "name": "amount",
          "type": "uint256"
        }
      ],
      "name": "receiveFunds",
      "outputs": [],
      "stateMutability": "nonpayable",
      "type": "function"
    },
    {
      "inputs": [],
      "name": "renounceOwnership",
      "outputs": [],
      "stateMutability": "nonpayable",
      "type": "function"
    },
    {
      "inputs": [
        {
          "internalType": "address",
          "name": "user",
          "type": "address"
        },
        {
          "internalType": "uint256",
          "name": "score",
          "type": "uint256"
        }
      ],
      "name": "setCreditScoreForTesting",
      "outputs": [],
      "stateMutability": "nonpayable",
      "type": "function"
    },
    {
      "inputs": [
        {
          "internalType": "address",
          "name": "token",
          "type": "address"
        },
        {
          "internalType": "uint256",
          "name": "threshold",
          "type": "uint256"
        }
      ],
      "name": "setLiquidationThreshold",
      "outputs": [],
      "stateMutability": "nonpayable",
      "type": "function"
    },
    {
      "inputs": [
        {
          "internalType": "address",
          "name": "_token",
          "type": "address"
        },
        {
          "internalType": "uint256",
          "name": "_minimumCollateralAmount",
          "type": "uint256"
        }
      ],
      "name": "setMinCollateralAmount",
      "outputs": [],
      "stateMutability": "nonpayable",
      "type": "function"
    },
    {
      "inputs": [
        {
          "internalType": "uint256",
          "name": "_minHealthFactor",
          "type": "uint256"
        }
      ],
      "name": "setMinHealthFactor",
      "outputs": [],
      "stateMutability": "nonpayable",
      "type": "function"
    },
    {
      "inputs": [
        {
          "internalType": "uint256",
          "name": "_minimumDuration",
          "type": "uint256"
        }
      ],
      "name": "setMinimumDuration",
      "outputs": [],
      "stateMutability": "nonpayable",
      "type": "function"
    },
    {
      "inputs": [
        {
          "internalType": "uint256",
          "name": "_protocolFee",
          "type": "uint256"
        }
      ],
      "name": "setProtocolFee",
      "outputs": [],
      "stateMutability": "nonpayable",
      "type": "function"
    },
    {
      "inputs": [
        {
          "internalType": "address",
          "name": "_treasury",
          "type": "address"
        }
      ],
      "name": "setTreasury",
      "outputs": [],
      "stateMutability": "nonpayable",
      "type": "function"
    },
    {
      "inputs": [
        {
          "internalType": "address",
          "name": "_yieldPoolAddress",
          "type": "address"
        }
      ],
      "name": "setYieldPool",
      "outputs": [],
      "stateMutability": "nonpayable",
      "type": "function"
    },
    {
      "inputs": [
        {
          "internalType": "address",
          "name": "newOwner",
          "type": "address"
        }
      ],
      "name": "transferOwnership",
      "outputs": [],
      "stateMutability": "nonpayable",
      "type": "function"
    },
    {
      "stateMutability": "payable",
      "type": "receive"
    }
  ],
  "bytecode": "0x6080604052609660095534801561001557600080fd5b50604051612d15380380612d158339810160408190526100349161018e565b6001600055826001600160a01b03811661006857604051631e4fbdf760e01b81526000600482015260240160405180910390fd5b61007181610120565b50600280546001600160a01b03199081166001600160a01b039687161790915560038054821693861693909317909255600e805483169185169190911790556000805260507f54cdd369e4e8a8515e52ca72ec816c2101831ad1f18bf44102ed171459c9b4f8556008602052670de0b6b3a76400007f5eff886ea0ce6ca488a3d6e336d6c0f75f46d19b42c06ce5ee98e42c96d256c75560c8600a55600b8054909116919092161790556101e2565b600180546001600160a01b038381166001600160a01b0319831681179093556040519116919082907f8be0079c531659141344cd1fd0a4f28419497f9722a3daafe3b4186f6b6457e090600090a35050565b80516001600160a01b038116811461018957600080fd5b919050565b600080600080608085870312156101a457600080fd5b6101ad85610172565b93506101bb60208601610172565b92506101c960408601610172565b91506101d760608601610172565b905092959194509250565b612b24806101f16000396000f3fe60806040526004361061023f5760003560e01c80637b86e42c1161012e578063d3dd2bdf116100ab578063ea9bc0d81161006f578063ea9bc0d8146105c8578063ed5ec6481461072f578063f0f442601461074f578063f1c3753a1461076f578063f2fde38b1461078f57600080fd5b8063d3dd2bdf14610676578063d5c05940146106af578063de4e5ec8146106dc578063e2d07a52146106f1578063e34969551461070f57600080fd5b8063a5a41031116100f2578063a5a41031146105b3578063b3908782146105c8578063bcbaf487146105fe578063c7aeda001461061e578063cd06b6e91461065657600080fd5b80637b86e42c1461052e57806389306e61146105645780638c1ae6c81461048f5780638da5cb5b146105775780638e1d518b1461059557600080fd5b80633fa09ece116101bc5780636c53236b116101805780636c53236b146104b9578063715018a6146104d9578063740227d1146104ee5780637805505e1461043e578063787dce3d1461050e57600080fd5b80633fa09ece1461043e57806342a94b9d1461045c5780634d5c11ee1461047c57806354fc49e21461048f5780635628d03e146104a457600080fd5b806317fd56ba1161020357806317fd56ba1461035957806318fa17d4146103865780632bfd5146146103b45780633b19e84a146103d45780633f8b96ae1461040657600080fd5b806301b08d581461024b57806302bf321f1461026d578063079bafe3146102a35780630e30428d14610319578063168c2efe1461033957600080fd5b3661024657005b600080fd5b34801561025757600080fd5b5061026b610266366004612739565b6107af565b005b34801561027957600080fd5b5061028d610288366004612769565b6107bc565b60405161029a919061283b565b60405180910390f35b3480156102af57600080fd5b506102c36102be366004612769565b610998565b60405161029a9190600060e082019050825182526020830151602083015260408301516040830152606083015160608301526080830151608083015260a083015160a083015260c083015160c083015292915050565b34801561032557600080fd5b5061026b61033436600461288a565b610a43565b34801561034557600080fd5b5061026b61035436600461288a565b610abd565b34801561036557600080fd5b50610379610374366004612769565b610ae4565b60405161029a91906128b4565b34801561039257600080fd5b506103a66103a13660046128ec565b610b50565b60405190815260200161029a565b3480156103c057600080fd5b5061026b6103cf36600461288a565b610b9c565b3480156103e057600080fd5b50600b546001600160a01b03165b6040516001600160a01b03909116815260200161029a565b34801561041257600080fd5b506103a661042136600461288a565b600f60209081526000928352604080842090915290825290205481565b34801561044a57600080fd5b506003546001600160a01b03166103ee565b34801561046857600080fd5b5061026b610477366004612921565b610bfd565b61026b61048a36600461295a565b610c42565b34801561049b57600080fd5b506009546103a6565b3480156104b057600080fd5b50600c546103a6565b3480156104c557600080fd5b5061026b6104d4366004612769565b61166c565b3480156104e557600080fd5b5061026b611696565b3480156104fa57600080fd5b5061026b61050936600461288a565b6116aa565b34801561051a57600080fd5b5061026b610529366004612739565b611704565b34801561053a57600080fd5b506103a6610549366004612769565b6001600160a01b031660009081526006602052604090205490565b61026b6105723660046129b2565b611711565b34801561058357600080fd5b506001546001600160a01b03166103ee565b3480156105a157600080fd5b506002546001600160a01b03166103ee565b3480156105bf57600080fd5b50600a546103a6565b3480156105d457600080fd5b506103a66105e3366004612769565b6001600160a01b031660009081526008602052604090205490565b34801561060a57600080fd5b5061026b61061936600461288a565b611e30565b34801561062a57600080fd5b506103a661063936600461288a565b601060209081526000928352604080842090915290825290205481565b34801561066257600080fd5b506103a661067136600461288a565b61202e565b34801561068257600080fd5b506103a6610691366004612769565b6001600160a01b031660009081526005602052604090206006015490565b3480156106bb57600080fd5b506106cf6106ca36600461288a565b6120d4565b60405161029a91906129d4565b3480156106e857600080fd5b50600d546103a6565b3480156106fd57600080fd5b50600e546001600160a01b03166103ee565b34801561071b57600080fd5b5061026b61072a36600461288a565b612192565b34801561073b57600080fd5b5061026b61074a366004612739565b6121b6565b34801561075b57600080fd5b5061026b61076a366004612769565b6121c3565b34801561077b57600080fd5b506103a661078a366004612769565b6121ed565b34801561079b57600080fd5b5061026b6107aa366004612769565b6122f0565b6107b761232e565b600955565b6001600160a01b038116600090815260076020908152604080832080548251818502810185019093528083526060949383018282801561081b57602002820191906000526020600020905b815481526020019060010190808311610807575b505050505090506000815167ffffffffffffffff81111561083e5761083e6129e3565b60405190808252806020026020018201604052801561087757816020015b6108646126bb565b81526020019060019003908161085c5790505b50905060005b8251811015610990576001600160a01b038516600090815260046020526040812084519091908590849081106108b5576108b56129f9565b60209081029190910181015182528181019290925260409081016000208151610180810183528154815260018201549381019390935260028101546001600160a01b039081169284019290925260038101548216606084015260048101546080840152600581015460a0840152600681015460c0840152600781015460e084015260088101549091166101008301526009810154610120830152600a81015460ff161515610140830152600b0154610160820152825183908390811061097d5761097d6129f9565b602090810291909101015260010161087d565b509392505050565b6109d86040518060e00160405280600081526020016000815260200160008152602001600081526020016000815260200160008152602001600081525090565b506001600160a01b0316600090815260056020818152604092839020835160e0810185528154815260018201549281019290925260028101549382019390935260038301546060820152600483015460808201529082015460a082015260069091015460c082015290565b610a4b61232e565b6064811115610aa15760405162461bcd60e51b815260206004820152601960248201527f5468726573686f6c64206d757374206265203c3d20313030250000000000000060448201526064015b60405180910390fd5b6001600160a01b03909116600090815260066020526040902055565b610ac561232e565b6001600160a01b03909116600090815260056020526040902060060155565b6001600160a01b038116600090815260076020908152604091829020805483518184028101840190945280845260609392830182828015610b4457602002820191906000526020600020905b815481526020019060010190808311610b30575b50505050509050919050565b600082600003610b635750600019610b95565b6001600160a01b0382166000908152600660205260409020548390610b889086612a25565b610b929190612a3c565b90505b9392505050565b610ba461232e565b610bb96001600160a01b03831633308461235b565b6040518181526001600160a01b0383169033907faa1ff9f7fea9b0b6004b27d6dafaf7545a080426cc7115c6a8bd9019957c43539060200160405180910390a35050565b610c0561232e565b6001600160a01b039093166000818152600f6020908152604080832087845282528083209590955591815260108252838120948152939052912055565b610c4a6123c8565b3360009081526005602052604081206006015490610c67826123f2565b90506000816003811115610c7d57610c7d612a5e565b03610cca5760405162461bcd60e51b815260206004820152601e60248201527f4372656469742073636f726520746f6f206c6f7720746f20626f72726f7700006044820152606401610a98565b60025460405163f9eaee0d60e01b81526001600160a01b038a811660048301529091169063f9eaee0d90602401602060405180830381865afa158015610d14573d6000803e3d6000fd5b505050506040513d601f19601f82011682018060405250810190610d389190612a74565b80610d4a57506001600160a01b038816155b610d965760405162461bcd60e51b815260206004820152601b60248201527f636f6c6c61746572616c546f6b656e206e6f7420616c6c6f77656400000000006044820152606401610a98565b60025460405163f9eaee0d60e01b81526001600160a01b0388811660048301529091169063f9eaee0d90602401602060405180830381865afa158015610de0573d6000803e3d6000fd5b505050506040513d601f19601f82011682018060405250810190610e049190612a74565b80610e1657506001600160a01b038616155b610e625760405162461bcd60e51b815260206004820152601760248201527f626f72726f77546f6b656e206e6f7420616c6c6f7765640000000000000000006044820152606401610a98565b6001600160a01b038816600090815260086020526040902054871015610ebf5760405162461bcd60e51b8152602060048201526012602482015271636f6c6c61746572616c20746f6f206c6f7760701b6044820152606401610a98565b60008511610f045760405162461bcd60e51b81526020600482015260126024820152710626f72726f7720616d6f756e7420697320360741b6044820152606401610a98565b600d54841015610f4b5760405162461bcd60e51b8152602060048201526012602482015271191d5c985d1a5bdb881d1bdbc81cda1bdc9d60721b6044820152606401610a98565b6001600160a01b0386161561100e576040516370a0823160e01b815230600482015285906001600160a01b038816906370a0823190602401602060405180830381865afa158015610fa0573d6000803e3d6000fd5b505050506040513d601f19601f82011682018060405250810190610fc49190612a96565b10156110095760405162461bcd60e51b81526020600482015260146024820152734e6f7420656e6f756768206c697175696469747960601b6044820152606401610a98565b611068565b844710156110685760405162461bcd60e51b815260206004820152602160248201527f4e6f7420656e6f756768206e617469766520746f6b656e206c697175696469746044820152607960f81b6064820152608401610a98565b600061107333612434565b9050600061108289888c610b50565b9050818110156110e85760405162461bcd60e51b815260206004820152602b60248201527f4865616c746820666163746f7220746f6f206c6f7720666f7220796f7572206360448201526a72656469742073636f726560a81b6064820152608401610a98565b6001600160a01b038a16156111f55761110c6001600160a01b038b1633308c61235b565b60035460405163095ea7b360e01b81526001600160a01b039182166004820152602481018b9052908b169063095ea7b3906044016020604051808303816000875af115801561115f573d6000803e3d6000fd5b505050506040513d601f19601f820116820180604052508101906111839190612a74565b50600354604051633d14d1b760e21b81526001600160a01b038c81166004830152602482018c90523360448301529091169063f45346dc90606401600060405180830381600087803b1580156111d857600080fd5b505af11580156111ec573d6000803e3d6000fd5b50505050611260565b8834146112605760405162461bcd60e51b815260206004820152603360248201527f4d7573742073656e6420657861637420636f6c6c61746572616c20616d6f756e6044820152723a103bb4ba34103730ba34bb32903a37b5b2b760691b6064820152608401610a98565b6001600160a01b03881615611288576112836001600160a01b03891633896124d0565b611322565b604051600090339089908381818185875af1925050503d80600081146112ca576040519150601f19603f3d011682016040523d82523d6000602084013e6112cf565b606091505b50509050806113205760405162461bcd60e51b815260206004820152601f60248201527f4661696c656420746f207472616e73666572206e617469766520746f6b656e006044820152606401610a98565b505b600c80546000918261133383612aaf565b919050559050600061134433612506565b905060006040518061018001604052808481526020018d81526020018e6001600160a01b031681526020018c6001600160a01b031681526020018b81526020018a8152602001428152602001838152602001336001600160a01b031681526020016000815260200160011515815260200146815250905060076000336001600160a01b03166001600160a01b031681526020019081526020016000208390806001815401808255809150506001900390600052602060002001600090919091909150558060046000336001600160a01b03166001600160a01b031681526020019081526020016000206000858152602001908152602001600020600082015181600001556020820151816001015560408201518160020160006101000a8154816001600160a01b0302191690836001600160a01b0316021790555060608201518160030160006101000a8154816001600160a01b0302191690836001600160a01b031602179055506080820151816004015560a0820151816005015560c0820151816006015560e082015181600701556101008201518160080160006101000a8154816001600160a01b0302191690836001600160a01b03160217905550610120820151816009015561014082015181600a0160006101000a81548160ff02191690831515021790555061016082015181600b01559050508960056000336001600160a01b03166001600160a01b0316815260200190815260200160002060000160008282546115749190612ac8565b909155505033600090815260056020526040812060020180546001929061159c908490612ac8565b9091555050336000818152600560208181526040928390204292019190915581518681529081018d90526001600160a01b038e1681830152606081018c905290517f3b2b81666fe526902fa85ba380549dd59f155d7258e132ec0bb898f26ede3d209181900360800190a26040518c81526001600160a01b038e169033907ff1c0dd7e9b98bbff859029005ef89b127af049cd18df1a8d79f0b7e019911e569060200160405180910390a3611653338d8c8b6125a6565b505050505050506116646001600055565b505050505050565b61167461232e565b600280546001600160a01b0319166001600160a01b0392909216919091179055565b61169e61232e565b6116a860006125f8565b565b6002546001600160a01b03163314610bb95760405162461bcd60e51b815260206004820152601d60248201527f4f6e6c79205969656c64506f6f6c2063616e2073656e642066756e64730000006044820152606401610a98565b61170c61232e565b600a55565b6117196123c8565b3360009081526004602090815260408083208584529091529020805483146117745760405162461bcd60e51b815260206004820152600e60248201526d131bd85b881b9bdd08199bdd5b9960921b6044820152606401610a98565b600a81015460ff166117bd5760405162461bcd60e51b81526020600482015260126024820152714c6f616e206973206e6f742061637469766560701b6044820152606401610a98565b600064496cebb8008260050154836007015484600401546117de9190612a25565b6117e89190612a25565b6117f29190612a3c565b90506000612710600a54836118079190612a25565b6118119190612a3c565b9050600061181f8284612adb565b60038501549091506001600160a01b0316156119415761185a3330611844338a61202e565b60038801546001600160a01b031692919061235b565b81156118cb57600b54600385015461187f916001600160a01b039182169116846124d0565b600b5460038501546040518481526001600160a01b0392831692909116907f03a3fa4e6fa897fbf8dc6330ae4fe6c60fa0f0b559b71d500d3f657120e289539060200160405180910390a35b801561193c576002546003850154604051637ecb8bcf60e01b81526001600160a01b03918216600482015260248101849052911690637ecb8bcf90604401600060405180830381600087803b15801561192357600080fd5b505af1158015611937573d6000803e3d6000fd5b505050505b611b1e565b61194b338761202e565b34146119ae5760405162461bcd60e51b815260206004820152602c60248201527f4d7573742073656e6420657861637420616d6f756e742064756520776974682060448201526b3730ba34bb32903a37b5b2b760a11b6064820152608401610a98565b8115611ab257600b546040516000916001600160a01b03169084908381818185875af1925050503d8060008114611a01576040519150601f19603f3d011682016040523d82523d6000602084013e611a06565b606091505b5050905080611a6b5760405162461bcd60e51b815260206004820152602b60248201527f4661696c656420746f207472616e73666572206e617469766520746f6b656e2060448201526a746f20747265617375727960a81b6064820152608401610a98565b600b546040518481526001600160a01b03909116906000907f03a3fa4e6fa897fbf8dc6330ae4fe6c60fa0f0b559b71d500d3f657120e289539060200160405180910390a3505b8015611b1e57600254604051637ecb8bcf60e01b815260006004820152602481018390526001600160a01b0390911690637ecb8bcf90604401600060405180830381600087803b158015611b0557600080fd5b505af1158015611b19573d6000803e3d6000fd5b505050505b600a8401805460ff1916905560028401546001600160a01b031615611bb85760035460028501546001860154604051631a4ca37b60e21b81526001600160a01b03928316600482015260248101919091523360448201529116906369328dec90606401600060405180830381600087803b158015611b9b57600080fd5b505af1158015611baf573d6000803e3d6000fd5b50505050611c76565b600884015460018501546040516000926001600160a01b031691908381818185875af1925050503d8060008114611c0b576040519150601f19603f3d011682016040523d82523d6000602084013e611c10565b606091505b5050905080611c745760405162461bcd60e51b815260206004820152602a60248201527f4661696c656420746f207472616e7366657220636f6c6c61746572616c20626160448201526931b5903a37903ab9b2b960b11b6064820152608401610a98565b505b828460040154611c869190612ac8565b3360009081526005602052604081206001018054909190611ca8908490612ac8565b9091555050336000908152600560205260408120600201805460019290611cd0908490612adb565b909155505060058401546006850154611ce99190612ac8565b4211611d1d57336000908152600560205260408120600301805460019290611d12908490612ac8565b90915550611d469050565b336000908152600560205260408120600401805460019290611d40908490612ac8565b90915550505b33600081815260056020819052604090912042910155611d65906121ed565b3360008181526005602052604090206006019190915560048501547fc7ce0a35f17b490de2a317e7fecb2cae86b1abffb03800b2f492823521382698908890611daf908790612ac8565b6040805192835260208301919091520160405180910390a2600184015460405133917fdaed309a628faec6cab72194019e2a1a34e890ca9bf9be99788992dd5469281991611e05918a8252602082015260400190565b60405180910390a2611e1e3385600101546000886125a6565b50505050611e2c6001600055565b5050565b611e386123c8565b6001600160a01b03821660009081526004602090815260408083208484529091529020600a81015460ff16611ea45760405162461bcd60e51b81526020600482015260126024820152714c6f616e206973206e6f742061637469766560701b6044820152606401610a98565b60028101546001600160a01b031660009081526006602052604090205480611f0e5760405162461bcd60e51b815260206004820152601d60248201527f4c69717569646174696f6e207468726573686f6c64206e6f74207365740000006044820152606401610a98565b6000611f1a858561202e565b60018401546002850154919250600091611f3f919084906001600160a01b0316610b50565b90506000611f4c87612434565b9050808210611faf5760405162461bcd60e51b815260206004820152602960248201527f4865616c746820666163746f722061626f7665206c69717569646174696f6e206044820152681d1a1c995cda1bdb1960ba1b6064820152608401610a98565b60018501546002860154611fd0916001600160a01b039091169033906124d0565b600a8501805460ff19169055604080518781523360208201526001600160a01b038916917fde21b2a43b0a2c2109c049fb1e4bb8653fd67d0ffd74fdcb662db381f1eeab38910160405180910390a25050505050611e2c6001600055565b6001600160a01b0382166000908152600460208181526040808420858552909152822090810154600782015460058301548464496cebb800826120718587612a25565b61207b9190612a25565b6120859190612a3c565b905060008186600401546120999190612ac8565b90506000612710600a54836120ae9190612a25565b6120b89190612a3c565b90506120c48183612ac8565b9750505050505050505b92915050565b6120dc6126bb565b506001600160a01b039182166000908152600460208181526040808420948452938152918390208351610180810185528154815260018201549381019390935260028101548516938301939093526003830154841660608301528201546080820152600582015460a0820152600682015460c0820152600782015460e082015260088201549092166101008301526009810154610120830152600a81015460ff161515610140830152600b015461016082015290565b61219a61232e565b6001600160a01b03909116600090815260086020526040902055565b6121be61232e565b600d55565b6121cb61232e565b600b80546001600160a01b0319166001600160a01b0392909216919091179055565b6001600160a01b0381166000908152600560208181526040808420815160e081018352815480825260018301549482019490945260028201549281019290925260038101546060830152600481015460808301529283015460a082015260069092015460c083015261012c90156122885781516020830151612271906101f4612a25565b61227b9190612a3c565b6122859082612ac8565b90505b6060820151156122a05761229d606482612ac8565b90505b6080820151156122db576000826080015160326122bd9190612a25565b90508082116122cd5760006122d7565b6122d78183612adb565b9150505b6103e8811115610b9557506103e89392505050565b6122f861232e565b6001600160a01b03811661232257604051631e4fbdf760e01b815260006004820152602401610a98565b61232b816125f8565b50565b6001546001600160a01b031633146116a85760405163118cdaa760e01b8152336004820152602401610a98565b6040516001600160a01b0384811660248301528381166044830152606482018390526123c29186918216906323b872dd906084015b604051602081830303815290604052915060e01b6020820180516001600160e01b03838183161783525050505061264a565b50505050565b6002600054036123eb57604051633ee5aeb560e01b815260040160405180910390fd5b6002600055565b6000610320821061240557506003919050565b61029e821061241657506002919050565b610244821061242757506001919050565b506000919050565b919050565b6001600160a01b038116600090815260056020526040812060060154600061245b826123f2565b9050600381600381111561247157612471612a5e565b03612480575060789392505050565b600281600381111561249457612494612a5e565b036124a3575060829392505050565b60018160038111156124b7576124b7612a5e565b036124c65750608c9392505050565b5060969392505050565b6040516001600160a01b0383811660248301526044820183905261250191859182169063a9059cbb90606401612390565b505050565b6001600160a01b038116600090815260056020526040812060060154600061252d826123f2565b9050600381600381111561254357612543612a5e565b0361255357506101f49392505050565b600281600381111561256757612567612a5e565b0361257757506102ee9392505050565b600181600381111561258b5761258b612a5e565b0361259b57506103e89392505050565b506104e29392505050565b60408051848152602081018490529081018290526001600160a01b038516907fe1470674dbced85b0bffae04056b6f8a3eff8322ab18bc22c117bc17437447a59060600160405180910390a250505050565b600180546001600160a01b038381166001600160a01b0319831681179093556040519116919082907f8be0079c531659141344cd1fd0a4f28419497f9722a3daafe3b4186f6b6457e090600090a35050565b600080602060008451602086016000885af18061266d576040513d6000823e3d81fd5b50506000513d91508115612685578060011415612692565b6001600160a01b0384163b155b156123c257604051635274afe760e01b81526001600160a01b0385166004820152602401610a98565b604051806101800160405280600081526020016000815260200160006001600160a01b0316815260200160006001600160a01b031681526020016000815260200160008152602001600081526020016000815260200160006001600160a01b0316815260200160008152602001600015158152602001600081525090565b60006020828403121561274b57600080fd5b5035919050565b80356001600160a01b038116811461242f57600080fd5b60006020828403121561277b57600080fd5b610b9582612752565b805182526020810151602083015260408101516127ac60408401826001600160a01b03169052565b5060608101516127c760608401826001600160a01b03169052565b506080810151608083015260a081015160a083015260c081015160c083015260e081015160e083015261010081015161280c6101008401826001600160a01b03169052565b5061012081015161012083015261014081015161282e61014084018215159052565b5061016090810151910152565b602080825282518282018190526000918401906040840190835b8181101561287f57612868838551612784565b602093909301926101809290920191600101612855565b509095945050505050565b6000806040838503121561289d57600080fd5b6128a683612752565b946020939093013593505050565b602080825282518282018190526000918401906040840190835b8181101561287f5783518352602093840193909201916001016128ce565b60008060006060848603121561290157600080fd5b833592506020840135915061291860408501612752565b90509250925092565b6000806000806080858703121561293757600080fd5b61294085612752565b966020860135965060408601359560600135945092505050565b60008060008060008060c0878903121561297357600080fd5b61297c87612752565b95506020870135945061299160408801612752565b959894975094956060810135955060808101359460a0909101359350915050565b600080604083850312156129c557600080fd5b50508035926020909101359150565b61018081016120ce8284612784565b634e487b7160e01b600052604160045260246000fd5b634e487b7160e01b600052603260045260246000fd5b634e487b7160e01b600052601160045260246000fd5b80820281158282048414176120ce576120ce612a0f565b600082612a5957634e487b7160e01b600052601260045260246000fd5b500490565b634e487b7160e01b600052602160045260246000fd5b600060208284031215612a8657600080fd5b81518015158114610b9557600080fd5b600060208284031215612aa857600080fd5b5051919050565b600060018201612ac157612ac1612a0f565b5060010190565b808201808211156120ce576120ce612a0f565b818103818111156120ce576120ce612a0f56fea2646970667358221220cad62cef61a3fb8a62784118cad85649fac019d1fc80efefe19d571f0b89b74164736f6c634300081c0033",
  "linkReferences": {},
  "deployedLinkReferences": {}
}