{
  "_format": "hh-sol-artifact-1",
  "contractName": "MockAavePool",
  "sourceName": "contracts/MockAavePool.sol",
  "abi": [
    {
      "inputs": [
        {
          "internalType": "address",
          "name": "token",
          "type": "address"
        }
      ],
      "name": "SafeERC20FailedOperation",
      "type": "error"
    },
    {
      "inputs": [
        {
          "internalType": "address",
          "name": "",
          "type": "address"
        },
        {
          "internalType": "address",
          "name": "",
          "type": "address"
        }
      ],
      "name": "balances",
      "outputs": [
        {
          "internalType": "uint256",
          "name": "",
          "type": "uint256"
        }
      ],
      "stateMutability": "view",
      "type": "function"
    },
    {
      "inputs": [
        {
          "internalType": "address",
          "name": "asset",
          "type": "address"
        },
        {
          "internalType": "uint256",
          "name": "amount",
          "type": "uint256"
        },
        {
          "internalType": "address",
          "name": "onBehalfOf",
          "type": "address"
        }
      ],
      "name": "deposit",
      "outputs": [],
      "stateMutability": "nonpayable",
      "type": "function"
    },
    {
      "inputs": [
        {
          "internalType": "address",
          "name": "asset",
          "type": "address"
        },
        {
          "internalType": "uint256",
          "name": "amount",
          "type": "uint256"
        },
        {
          "internalType": "address",
          "name": "to",
          "type": "address"
        }
      ],
      "name": "withdraw",
      "outputs": [],
      "stateMutability": "nonpayable",
      "type": "function"
    }
  ],
  "bytecode": "0x6080604052348015600f57600080fd5b506103e48061001f6000396000f3fe608060405234801561001057600080fd5b50600436106100415760003560e01c806369328dec14610046578063c23f001f1461005b578063f45346dc14610095575b600080fd5b6100596100543660046102fd565b6100a8565b005b610083610069366004610339565b600060208181529281526040808220909352908152205481565b60405190815260200160405180910390f35b6100596100a33660046102fd565b61017e565b6001600160a01b038084166000908152602081815260408083209385168352929052205482111561012a5760405162461bcd60e51b815260206004820152602160248201527f496e73756666696369656e742062616c616e636520696e204161766520706f6f6044820152601b60fa1b60648201526084015b60405180910390fd5b6001600160a01b038084166000908152602081815260408083209385168352929052908120805484929061015f908490610382565b9091555061017990506001600160a01b03841682846101d2565b505050565b6101936001600160a01b038416333085610231565b6001600160a01b03808416600090815260208181526040808320938516835292905290812080548492906101c890849061039b565b9091555050505050565b6040516001600160a01b0383811660248301526044820183905261017991859182169063a9059cbb906064015b604051602081830303815290604052915060e01b6020820180516001600160e01b038381831617835250505050610270565b6040516001600160a01b03848116602483015283811660448301526064820183905261026a9186918216906323b872dd906084016101ff565b50505050565b600080602060008451602086016000885af180610293576040513d6000823e3d81fd5b50506000513d915081156102ab5780600114156102b8565b6001600160a01b0384163b155b1561026a57604051635274afe760e01b81526001600160a01b0385166004820152602401610121565b80356001600160a01b03811681146102f857600080fd5b919050565b60008060006060848603121561031257600080fd5b61031b846102e1565b925060208401359150610330604085016102e1565b90509250925092565b6000806040838503121561034c57600080fd5b610355836102e1565b9150610363602084016102e1565b90509250929050565b634e487b7160e01b600052601160045260246000fd5b818103818111156103955761039561036c565b92915050565b808201808211156103955761039561036c56fea26469706673582212206448df9e0f24614634c87ba280c98d1c106acac4b8988b064e78d9cf5c48ab5864736f6c634300081c0033",
  "linkReferences": {},
  "deployedLinkReferences": {}
}