{
  "_format": "hh-sol-artifact-1",
  "contractName": "YieldPool",
  "sourceName": "contracts/YieldPool.sol",
  "abi": [
    {
      "inputs": [
        {
          "internalType": "uint256",
          "name": "_yieldRate",
          "type": "uint256"
        },
        {
          "internalType": "uint256",
          "name": "_minDuration",
          "type": "uint256"
        },
        {
          "internalType": "uint256",
          "name": "_maxDuration",
          "type": "uint256"
        }
      ],
      "stateMutability": "nonpayable",
      "type": "constructor"
    },
    {
      "inputs": [],
      "name": "EnforcedPause",
      "type": "error"
    },
    {
      "inputs": [],
      "name": "ExpectedPause",
      "type": "error"
    },
    {
      "inputs": [
        {
          "internalType": "address",
          "name": "owner",
          "type": "address"
        }
      ],
      "name": "OwnableInvalidOwner",
      "type": "error"
    },
    {
      "inputs": [
        {
          "internalType": "address",
          "name": "account",
          "type": "address"
        }
      ],
      "name": "OwnableUnauthorizedAccount",
      "type": "error"
    },
    {
      "inputs": [],
      "name": "ReentrancyGuardReentrantCall",
      "type": "error"
    },
    {
      "inputs": [
        {
          "internalType": "address",
          "name": "token",
          "type": "address"
        }
      ],
      "name": "SafeERC20FailedOperation",
      "type": "error"
    },
    {
      "anonymous": false,
      "inputs": [
        {
          "indexed": true,
          "internalType": "address",
          "name": "user",
          "type": "address"
        },
        {
          "indexed": false,
          "internalType": "address",
          "name": "token",
          "type": "address"
        },
        {
          "indexed": false,
          "internalType": "uint256",
          "name": "amount",
          "type": "uint256"
        },
        {
          "indexed": false,
          "internalType": "uint256",
          "name": "duration",
          "type": "uint256"
        }
      ],
      "name": "Deposited",
      "type": "event"
    },
    {
      "anonymous": false,
      "inputs": [
        {
          "indexed": false,
          "internalType": "uint256",
          "name": "timestamp",
          "type": "uint256"
        }
      ],
      "name": "EmergencyWithdrawalInitiated",
      "type": "event"
    },
    {
      "anonymous": false,
      "inputs": [
        {
          "indexed": true,
          "internalType": "address",
          "name": "previousOwner",
          "type": "address"
        },
        {
          "indexed": true,
          "internalType": "address",
          "name": "newOwner",
          "type": "address"
        }
      ],
      "name": "OwnershipTransferred",
      "type": "event"
    },
    {
      "anonymous": false,
      "inputs": [
        {
          "indexed": false,
          "internalType": "address",
          "name": "account",
          "type": "address"
        }
      ],
      "name": "Paused",
      "type": "event"
    },
    {
      "anonymous": false,
      "inputs": [
        {
          "indexed": false,
          "internalType": "address",
          "name": "token",
          "type": "address"
        },
        {
          "indexed": false,
          "internalType": "uint256",
          "name": "amount",
          "type": "uint256"
        }
      ],
      "name": "PenaltyCollected",
      "type": "event"
    },
    {
      "anonymous": false,
      "inputs": [
        {
          "indexed": false,
          "internalType": "address",
          "name": "token",
          "type": "address"
        },
        {
          "indexed": false,
          "internalType": "bool",
          "name": "allowed",
          "type": "bool"
        }
      ],
      "name": "TokenAllowedStatusChanged",
      "type": "event"
    },
    {
      "anonymous": false,
      "inputs": [
        {
          "indexed": false,
          "internalType": "address",
          "name": "account",
          "type": "address"
        }
      ],
      "name": "Unpaused",
      "type": "event"
    },
    {
      "anonymous": false,
      "inputs": [
        {
          "indexed": true,
          "internalType": "address",
          "name": "user",
          "type": "address"
        },
        {
          "indexed": false,
          "internalType": "address",
          "name": "token",
          "type": "address"
        },
        {
          "indexed": false,
          "internalType": "uint256",
          "name": "amount",
          "type": "uint256"
        },
        {
          "indexed": false,
          "internalType": "uint256",
          "name": "yield",
          "type": "uint256"
        }
      ],
      "name": "Withdrawn",
      "type": "event"
    },
    {
      "anonymous": false,
      "inputs": [
        {
          "indexed": false,
          "internalType": "uint256",
          "name": "yieldRate",
          "type": "uint256"
        },
        {
          "indexed": false,
          "internalType": "uint256",
          "name": "minDuration",
          "type": "uint256"
        },
        {
          "indexed": false,
          "internalType": "uint256",
          "name": "maxDuration",
          "type": "uint256"
        }
      ],
      "name": "YieldParametersUpdated",
      "type": "event"
    },
    {
      "anonymous": false,
      "inputs": [
        {
          "indexed": true,
          "internalType": "address",
          "name": "token",
          "type": "address"
        },
        {
          "indexed": false,
          "internalType": "uint256",
          "name": "amount",
          "type": "uint256"
        }
      ],
      "name": "YieldReserveAdded",
      "type": "event"
    },
    {
      "inputs": [
        {
          "internalType": "address",
          "name": "token",
          "type": "address"
        },
        {
          "internalType": "uint256",
          "name": "amount",
          "type": "uint256"
        }
      ],
      "name": "addYield",
      "outputs": [],
      "stateMutability": "nonpayable",
      "type": "function"
    },
    {
      "inputs": [
        {
          "internalType": "address",
          "name": "token",
          "type": "address"
        },
        {
          "internalType": "uint256",
          "name": "amount",
          "type": "uint256"
        }
      ],
      "name": "addYieldReserves",
      "outputs": [],
      "stateMutability": "payable",
      "type": "function"
    },
    {
      "inputs": [
        {
          "internalType": "uint256",
          "name": "amount",
          "type": "uint256"
        },
        {
          "internalType": "uint256",
          "name": "duration",
          "type": "uint256"
        }
      ],
      "name": "calculateYield",
      "outputs": [
        {
          "internalType": "uint256",
          "name": "",
          "type": "uint256"
        }
      ],
      "stateMutability": "view",
      "type": "function"
    },
    {
      "inputs": [
        {
          "internalType": "address",
          "name": "token",
          "type": "address"
        }
      ],
      "name": "claimWithdrawal",
      "outputs": [],
      "stateMutability": "nonpayable",
      "type": "function"
    },
    {
      "inputs": [
        {
          "internalType": "address",
          "name": "token",
          "type": "address"
        },
        {
          "internalType": "uint256",
          "name": "amount",
          "type": "uint256"
        },
        {
          "internalType": "uint256",
          "name": "duration",
          "type": "uint256"
        }
      ],
      "name": "deposit",
      "outputs": [],
      "stateMutability": "payable",
      "type": "function"
    },
    {
      "inputs": [
        {
          "internalType": "address",
          "name": "token",
          "type": "address"
        },
        {
          "internalType": "uint256",
          "name": "amount",
          "type": "uint256"
        }
      ],
      "name": "executeEmergencyWithdrawal",
      "outputs": [],
      "stateMutability": "nonpayable",
      "type": "function"
    },
    {
      "inputs": [
        {
          "internalType": "address",
          "name": "user",
          "type": "address"
        }
      ],
      "name": "getActivePositionsCount",
      "outputs": [
        {
          "internalType": "uint256",
          "name": "",
          "type": "uint256"
        }
      ],
      "stateMutability": "view",
      "type": "function"
    },
    {
      "inputs": [],
      "name": "getActiveStakers",
      "outputs": [
        {
          "internalType": "address[]",
          "name": "",
          "type": "address[]"
        }
      ],
      "stateMutability": "view",
      "type": "function"
    },
    {
      "inputs": [],
      "name": "getAllowedTokenList",
      "outputs": [
        {
          "internalType": "address[]",
          "name": "",
          "type": "address[]"
        }
      ],
      "stateMutability": "view",
      "type": "function"
    },
    {
      "inputs": [],
      "name": "getEmergencyWithdrawalTime",
      "outputs": [
        {
          "internalType": "uint256",
          "name": "",
          "type": "uint256"
        }
      ],
      "stateMutability": "view",
      "type": "function"
    },
    {
      "inputs": [],
      "name": "getMaxDuration",
      "outputs": [
        {
          "internalType": "uint256",
          "name": "",
          "type": "uint256"
        }
      ],
      "stateMutability": "view",
      "type": "function"
    },
    {
      "inputs": [],
      "name": "getMinDuration",
      "outputs": [
        {
          "internalType": "uint256",
          "name": "",
          "type": "uint256"
        }
      ],
      "stateMutability": "view",
      "type": "function"
    },
    {
      "inputs": [
        {
          "internalType": "address",
          "name": "user",
          "type": "address"
        },
        {
          "internalType": "address",
          "name": "token",
          "type": "address"
        }
      ],
      "name": "getPendingWithdrawals",
      "outputs": [
        {
          "internalType": "uint256",
          "name": "",
          "type": "uint256"
        }
      ],
      "stateMutability": "view",
      "type": "function"
    },
    {
      "inputs": [
        {
          "internalType": "address",
          "name": "user",
          "type": "address"
        },
        {
          "internalType": "uint256",
          "name": "index",
          "type": "uint256"
        }
      ],
      "name": "getPosition",
      "outputs": [
        {
          "components": [
            {
              "internalType": "address",
              "name": "token",
              "type": "address"
            },
            {
              "internalType": "uint256",
              "name": "id",
              "type": "uint256"
            },
            {
              "internalType": "uint256",
              "name": "amount",
              "type": "uint256"
            },
            {
              "internalType": "uint256",
              "name": "startTime",
              "type": "uint256"
            },
            {
              "internalType": "uint256",
              "name": "lockDuration",
              "type": "uint256"
            },
            {
              "internalType": "bool",
              "name": "withdrawn",
              "type": "bool"
            }
          ],
          "internalType": "struct YieldPool.Position",
          "name": "",
          "type": "tuple"
        }
      ],
      "stateMutability": "view",
      "type": "function"
    },
    {
      "inputs": [
        {
          "internalType": "uint256",
          "name": "positionId",
          "type": "uint256"
        }
      ],
      "name": "getPositionOwner",
      "outputs": [
        {
          "internalType": "address",
          "name": "",
          "type": "address"
        }
      ],
      "stateMutability": "view",
      "type": "function"
    },
    {
      "inputs": [
        {
          "internalType": "address",
          "name": "user",
          "type": "address"
        }
      ],
      "name": "getStakerIndex",
      "outputs": [
        {
          "internalType": "uint256",
          "name": "",
          "type": "uint256"
        }
      ],
      "stateMutability": "view",
      "type": "function"
    },
    {
      "inputs": [],
      "name": "getTotalStakers",
      "outputs": [
        {
          "internalType": "uint256",
          "name": "",
          "type": "uint256"
        }
      ],
      "stateMutability": "view",
      "type": "function"
    },
    {
      "inputs": [],
      "name": "getTotalValueLocked",
      "outputs": [
        {
          "internalType": "uint256",
          "name": "",
          "type": "uint256"
        }
      ],
      "stateMutability": "view",
      "type": "function"
    },
    {
      "inputs": [
        {
          "internalType": "address",
          "name": "user",
          "type": "address"
        },
        {
          "internalType": "address",
          "name": "token",
          "type": "address"
        }
      ],
      "name": "getUserTokenBalance",
      "outputs": [
        {
          "internalType": "uint256",
          "name": "",
          "type": "uint256"
        }
      ],
      "stateMutability": "view",
      "type": "function"
    },
    {
      "inputs": [],
      "name": "getYieldRate",
      "outputs": [
        {
          "internalType": "uint256",
          "name": "",
          "type": "uint256"
        }
      ],
      "stateMutability": "view",
      "type": "function"
    },
    {
      "inputs": [
        {
          "internalType": "address",
          "name": "token",
          "type": "address"
        }
      ],
      "name": "getYieldReserves",
      "outputs": [
        {
          "internalType": "uint256",
          "name": "",
          "type": "uint256"
        }
      ],
      "stateMutability": "view",
      "type": "function"
    },
    {
      "inputs": [],
      "name": "initiateEmergencyWithdrawal",
      "outputs": [],
      "stateMutability": "nonpayable",
      "type": "function"
    },
    {
      "inputs": [
        {
          "internalType": "address",
          "name": "token",
          "type": "address"
        }
      ],
      "name": "isTokenAllowed",
      "outputs": [
        {
          "internalType": "bool",
          "name": "",
          "type": "bool"
        }
      ],
      "stateMutability": "view",
      "type": "function"
    },
    {
      "inputs": [],
      "name": "owner",
      "outputs": [
        {
          "internalType": "address",
          "name": "",
          "type": "address"
        }
      ],
      "stateMutability": "view",
      "type": "function"
    },
    {
      "inputs": [],
      "name": "paused",
      "outputs": [
        {
          "internalType": "bool",
          "name": "",
          "type": "bool"
        }
      ],
      "stateMutability": "view",
      "type": "function"
    },
    {
      "inputs": [],
      "name": "renounceOwnership",
      "outputs": [],
      "stateMutability": "nonpayable",
      "type": "function"
    },
    {
      "inputs": [
        {
          "internalType": "address",
          "name": "_borrowProtocolAddress",
          "type": "address"
        }
      ],
      "name": "setBorrowProtocol",
      "outputs": [],
      "stateMutability": "nonpayable",
      "type": "function"
    },
    {
      "inputs": [
        {
          "internalType": "address",
          "name": "_borrowProtocolAddress",
          "type": "address"
        }
      ],
      "name": "setBorrowProtocolAddress",
      "outputs": [],
      "stateMutability": "nonpayable",
      "type": "function"
    },
    {
      "inputs": [
        {
          "internalType": "address",
          "name": "token",
          "type": "address"
        },
        {
          "internalType": "bool",
          "name": "allowed",
          "type": "bool"
        }
      ],
      "name": "setTokenAllowed",
      "outputs": [],
      "stateMutability": "nonpayable",
      "type": "function"
    },
    {
      "inputs": [
        {
          "internalType": "address",
          "name": "newOwner",
          "type": "address"
        }
      ],
      "name": "transferOwnership",
      "outputs": [],
      "stateMutability": "nonpayable",
      "type": "function"
    },
    {
      "inputs": [
        {
          "internalType": "address",
          "name": "token",
          "type": "address"
        },
        {
          "internalType": "uint256",
          "name": "amount",
          "type": "uint256"
        }
      ],
      "name": "transferToBorrowProtocol",
      "outputs": [],
      "stateMutability": "nonpayable",
      "type": "function"
    },
    {
      "inputs": [
        {
          "internalType": "uint256",
          "name": "positionId",
          "type": "uint256"
        }
      ],
      "name": "unstake",
      "outputs": [],
      "stateMutability": "nonpayable",
      "type": "function"
    },
    {
      "inputs": [
        {
          "internalType": "uint256",
          "name": "_rate",
          "type": "uint256"
        },
        {
          "internalType": "uint256",
          "name": "_min",
          "type": "uint256"
        },
        {
          "internalType": "uint256",
          "name": "_max",
          "type": "uint256"
        }
      ],
      "name": "updateYieldParameters",
      "outputs": [],
      "stateMutability": "nonpayable",
      "type": "function"
    },
    {
      "inputs": [
        {
          "internalType": "uint256",
          "name": "positionId",
          "type": "uint256"
        }
      ],
      "name": "withdraw",
      "outputs": [],
      "stateMutability": "nonpayable",
      "type": "function"
    },
    {
      "stateMutability": "payable",
      "type": "receive"
    }
  ],
  "bytecode": "0x60806040526001600b5534801561001557600080fd5b5060405161258e38038061258e83398101604081905261003491610222565b6001600055338061006057604051631e4fbdf760e01b8152600060048201526024015b60405180910390fd5b610069816101d0565b5060008311801561007c57506127108311155b6100bd5760405162461bcd60e51b8152602060048201526012602482015271496e76616c6964207969656c64207261746560701b6044820152606401610057565b6000821180156100cc57508181115b61010c5760405162461bcd60e51b8152602060048201526011602482015270496e76616c6964206475726174696f6e7360781b6044820152606401610057565b600283905560038290556004819055600660209081527f54cdd369e4e8a8515e52ca72ec816c2101831ad1f18bf44102ed171459c9b4f8805460ff1916600190811790915560078054808301825560009182527fa66cc928b5edb82af9bd49922954155ab7b0942694bea4ce44661d9a8736c6880180546001600160a01b031916905560408051918252928101919091527f35ec8a295a68c142349d2e1ff041d419582a35f45de73279a3f0d331004c1e46910160405180910390a1505050610250565b600180546001600160a01b038381166001600160a01b0319831681179093556040519116919082907f8be0079c531659141344cd1fd0a4f28419497f9722a3daafe3b4186f6b6457e090600090a35050565b60008060006060848603121561023757600080fd5b5050815160208301516040909301519094929350919050565b61232f8061025f6000396000f3fe6080604052600436106101fc5760003560e01c806373f8fd4b1161010d578063b49a2db9116100a0578063db8194e41161006f578063db8194e414610614578063e3fbd2471461064a578063f100989914610680578063f2fde38b14610695578063f9eaee0d146106b557600080fd5b8063b49a2db914610591578063ba479d33146105a6578063c0cb6783146105bb578063d2b291d1146105ce57600080fd5b80639a90a8e1116100dc5780639a90a8e1146105255780639fb82db91461053a578063a3066aab1461055c578063b26025aa1461057c57600080fd5b806373f8fd4b146104575780637ecb8bcf1461049d57806389bc309e146104bd5780638da5cb5b146104f357600080fd5b80632e1a7d4d116101905780633adbb5af1161015f5780633adbb5af146103905780633eed98c3146104025780634df63baa146102db5780635c975abb14610417578063715018a61461044257600080fd5b80632e1a7d4d1461031b57806331ed0db41461033b57806333b921381461035057806336c194281461037057600080fd5b80630efe6a8b116101cc5780630efe6a8b146102a857806315f69012146102bb57806327106605146102db5780632e17de78146102fb57600080fd5b8062ca8af714610208578063034d501b14610251578063043cbe5b1461026657806306d26ab21461028657600080fd5b3661020357005b600080fd5b34801561021457600080fd5b5061023e610223366004612075565b6001600160a01b03166000908152600d602052604090205490565b6040519081526020015b60405180910390f35b34801561025d57600080fd5b5060035461023e565b34801561027257600080fd5b5061023e610281366004612090565b6106ee565b34801561029257600080fd5b506102a66102a13660046120b2565b61072a565b005b6102a66102b63660046120dc565b610860565b3480156102c757600080fd5b506102a66102d636600461210f565b610ccb565b3480156102e757600080fd5b506102a66102f6366004612075565b610e54565b34801561030757600080fd5b506102a661031636600461214b565b610e7e565b34801561032757600080fd5b506102a661033636600461214b565b611141565b34801561034757600080fd5b5060095461023e565b34801561035c57600080fd5b506102a661036b3660046120b2565b61144d565b34801561037c57600080fd5b506102a661038b366004612164565b611577565b34801561039c57600080fd5b506103b06103ab3660046120b2565b611670565b604051610248919081516001600160a01b031681526020808301519082015260408083015190820152606080830151908201526080808301519082015260a09182015115159181019190915260c00190565b34801561040e57600080fd5b5060085461023e565b34801561042357600080fd5b50600154600160a01b900460ff165b6040519015158152602001610248565b34801561044e57600080fd5b506102a66117a9565b34801561046357600080fd5b5061023e610472366004612190565b6001600160a01b039182166000908152600e6020908152604080832093909416825291909152205490565b3480156104a957600080fd5b506102a66104b83660046120b2565b6117bd565b3480156104c957600080fd5b5061023e6104d8366004612075565b6001600160a01b03166000908152600c602052604090205490565b3480156104ff57600080fd5b506001546001600160a01b03165b6040516001600160a01b039091168152602001610248565b34801561053157600080fd5b506102a6611891565b34801561054657600080fd5b5061054f6118e0565b60405161024891906121c3565b34801561056857600080fd5b506102a6610577366004612075565b611942565b34801561058857600080fd5b50600a5461023e565b34801561059d57600080fd5b5060045461023e565b3480156105b257600080fd5b5061054f611a8c565b6102a66105c93660046120b2565b611aec565b3480156105da57600080fd5b5061023e6105e9366004612190565b6001600160a01b039182166000908152600f6020908152604080832093909416825291909152205490565b34801561062057600080fd5b5061023e61062f366004612075565b6001600160a01b031660009081526005602052604090205490565b34801561065657600080fd5b5061050d61066536600461214b565b6000908152601260205260409020546001600160a01b031690565b34801561068c57600080fd5b5060025461023e565b3480156106a157600080fd5b506102a66106b0366004612075565b611c01565b3480156106c157600080fd5b506104326106d0366004612075565b6001600160a01b031660009081526006602052604090205460ff1690565b60006107006301e13380612710612225565b60025461070d8486612225565b6107179190612225565b610721919061223c565b90505b92915050565b610732611c3c565b6001600160a01b03821660009081526006602052604090205460ff166107935760405162461bcd60e51b8152602060048201526011602482015270151bdad95b881b9bdd08185b1b1bddd959607a1b60448201526064015b60405180910390fd5b6040516370a0823160e01b815230600482015281906001600160a01b038416906370a0823190602401602060405180830381865afa1580156107d9573d6000803e3d6000fd5b505050506040513d601f19601f820116820180604052508101906107fd919061225e565b10156108425760405162461bcd60e51b8152602060048201526014602482015273496e73756666696369656e742062616c616e636560601b604482015260640161078a565b60135461085c906001600160a01b03848116911683611c69565b5050565b610868611cc8565b610870611cf2565b6001600160a01b03831660009081526006602052604090205460ff166108cc5760405162461bcd60e51b8152602060048201526011602482015270151bdad95b881b9bdd08185b1b1bddd959607a1b604482015260640161078a565b6000821161090a5760405162461bcd60e51b815260206004820152600b60248201526a16995c9bc8185b5bdd5b9d60aa1b604482015260640161078a565b600354811015801561091e57506004548111155b61095d5760405162461bcd60e51b815260206004820152601060248201526f24b73b30b634b210323ab930ba34b7b760811b604482015260640161078a565b60006001600160a01b0384166109b2578234146109ab5760405162461bcd60e51b815260206004820152600c60248201526b08aa89040dad2e6dac2e8c6d60a31b604482015260640161078a565b5034610aac565b6040516370a0823160e01b81523060048201526000906001600160a01b038616906370a0823190602401602060405180830381865afa1580156109f9573d6000803e3d6000fd5b505050506040513d601f19601f82011682018060405250810190610a1d919061225e565b9050610a346001600160a01b038616333087611d1d565b6040516370a0823160e01b815230600482015281906001600160a01b038716906370a0823190602401602060405180830381865afa158015610a7a573d6000803e3d6000fd5b505050506040513d601f19601f82011682018060405250810190610a9e919061225e565b610aa89190612277565b9150505b336000908152600e602090815260408083206001600160a01b038816845290915281208054839290610adf90849061228a565b9250508190555080600a6000828254610af8919061228a565b9091555050336000908152601160205260408120549003610b7b5760108054336000818152600d602052604081208390556001830184559283527f1b6847dc741a1b0cd08d278845f9d819d87b734759afb55fe2de5cb82a9ae67290910180546001600160a01b03191690911790556009805491610b758361229d565b91905055505b336000818152601160209081526040808320815160c0810183526001600160a01b038a81168252600b80548387019081528386018a81524260608601908152608086018d815260a087018b8152885460018181018b55998d528b8d20985160069091029098018054989097166001600160a01b0319988916178755935197860197909755905160028501555160038401559351600483015592516005909101805491151560ff199092169190911790559054845260128352818420805490911685179055928252600c9052908120805491610c558361229d565b9091555050604080516001600160a01b03861681526020810183905290810183905233907ff5681f9d0db1b911ac18ee83d515a1cf1051853a9eae418316a2fdf7dea427c59060600160405180910390a2600b8054906000610cb68361229d565b919050555050610cc66001600055565b505050565b610cd3611c3c565b6001600160a01b038216610d335780610d2e5760405162461bcd60e51b815260206004820152601b60248201527f43616e6e6f742064697361626c65206e617469766520746f6b656e0000000000604482015260640161078a565b610d81565b6001600160a01b038216610d815760405162461bcd60e51b8152602060048201526015602482015274496e76616c696420746f6b656e206164647265737360581b604482015260640161078a565b6001600160a01b0382166000908152600660205260409020805460ff191682158015919091179091558190610dbc5750610dba82611d5c565b155b15610e0d57600780546001810182556000919091527fa66cc928b5edb82af9bd49922954155ab7b0942694bea4ce44661d9a8736c6880180546001600160a01b0319166001600160a01b0384161790555b604080516001600160a01b038416815282151560208201527f35ec8a295a68c142349d2e1ff041d419582a35f45de73279a3f0d331004c1e46910160405180910390a15050565b610e5c611c3c565b601380546001600160a01b0319166001600160a01b0392909216919091179055565b610e86611cc8565b610e8e611cf2565b6000818152601260205260409020546001600160a01b0316338114610ee15760405162461bcd60e51b81526020600482015260096024820152682737ba1037bbb732b960b91b604482015260640161078a565b6000610eed3384611dbb565b600581015490915060ff1615610f395760405162461bcd60e51b815260206004820152601160248201527020b63932b0b23c903bb4ba34323930bbb760791b604482015260640161078a565b60058101805460ff19166001179055600083815260126020526040812080546001600160a01b03191690556002820154600a805491929091610f7c908490612277565b90915550506002810154336000908152600e6020908152604080832085546001600160a01b0316845290915281208054909190610fba908490612277565b9091555050336000908152600c60205260408120805491610fda836122b6565b909155505060028101546004820154600383015460009291610ffb9161228a565b42101561109e57600a8360020154611013919061223c565b91508183600201546110259190612277565b83546001600160a01b031660009081526005602052604081208054929350849290919061105390849061228a565b90915550508254604080516001600160a01b039092168252602082018490527f95e4e31634d901a278d070a9b0f4bb74bd6cf4183a8e59b553d61db70794224c910160405180910390a15b336000908152600f6020908152604080832086546001600160a01b03168452909152812080548392906110d290849061228a565b909155506110e1905033611e77565b8254604080516001600160a01b0390921682526020820183905260009082015233907f91fb9d98b786c57d74c099ccd2beca1739e9f6a81fb49001ca465c4b7591bbe29060600160405180910390a25050505061113e6001600055565b50565b611149611cc8565b611151611cf2565b6000818152601260205260409020546001600160a01b03163381146111a45760405162461bcd60e51b81526020600482015260096024820152682737ba1037bbb732b960b91b604482015260640161078a565b60006111b03384611dbb565b600581015490915060ff16156111fc5760405162461bcd60e51b815260206004820152601160248201527020b63932b0b23c903bb4ba34323930bbb760791b604482015260640161078a565b80600401548160030154611210919061228a565b42101561124e5760405162461bcd60e51b815260206004820152600c60248201526b14dd1a5b1b081b1bd8dad95960a21b604482015260640161078a565b6000611262826002015483600401546106ee565b82546001600160a01b03166000908152600560205260409020549091508111156112c55760405162461bcd60e51b8152602060048201526014602482015273496e73756666696369656e74207265736572766560601b604482015260640161078a565b60058201805460ff19166001179055600084815260126020526040812080546001600160a01b03191690556002830154600a805491929091611308908490612277565b90915550506002820154336000908152600e6020908152604080832086546001600160a01b0316845290915281208054909190611346908490612277565b909155505081546001600160a01b031660009081526005602052604081208054839290611374908490612277565b9091555050336000908152600c60205260408120805491611394836122b6565b91905055508082600201546113a9919061228a565b336000908152600f6020908152604080832086546001600160a01b03168452909152812080549091906113dd90849061228a565b909155506113ec905033611e77565b81546002830154604080516001600160a01b0390931683526020830191909152810182905233907f91fb9d98b786c57d74c099ccd2beca1739e9f6a81fb49001ca465c4b7591bbe29060600160405180910390a250505061113e6001600055565b611455611c3c565b6008544210156114995760405162461bcd60e51b815260206004820152600f60248201526e54696d656c6f636b2061637469766560881b604482015260640161078a565b6001600160a01b0382166115515760006114bb6001546001600160a01b031690565b6001600160a01b03168260405160006040518083038185875af1925050503d8060008114611505576040519150601f19603f3d011682016040523d82523d6000602084013e61150a565b606091505b5050905080610cc65760405162461bcd60e51b8152602060048201526013602482015272115512081d1c985b9cd9995c8819985a5b1959606a1b604482015260640161078a565b61085c6115666001546001600160a01b031690565b6001600160a01b0384169083611c69565b61157f611c3c565b60008311801561159157506127108311155b6115cc5760405162461bcd60e51b815260206004820152600c60248201526b496e76616c6964207261746560a01b604482015260640161078a565b6000821180156115db57508181115b61161b5760405162461bcd60e51b8152602060048201526011602482015270496e76616c6964206475726174696f6e7360781b604482015260640161078a565b60028390556003829055600481905560408051848152602081018490529081018290527fefeeae12018cad4c8c8285ce10d106bd4084b37ddd067fb0b5ba5567d7f8d4eb9060600160405180910390a1505050565b6116b46040518060c0016040528060006001600160a01b03168152602001600081526020016000815260200160008152602001600081526020016000151581525090565b6001600160a01b03831660009081526011602052604090205482106117145760405162461bcd60e51b8152602060048201526016602482015275092dcecc2d8d2c840e0dee6d2e8d2dedc40d2dcc8caf60531b604482015260640161078a565b6001600160a01b038316600090815260116020526040902080548390811061173e5761173e6122cd565b60009182526020918290206040805160c081018252600690930290910180546001600160a01b03168352600181015493830193909352600283015490820152600382015460608201526004820154608082015260059091015460ff16151560a0820152905092915050565b6117b1611c3c565b6117bb6000611f96565b565b6013546001600160a01b031633146118215760405162461bcd60e51b815260206004820152602160248201527f4f6e6c7920426f72726f7750726f746f636f6c2063616e20616464207969656c6044820152601960fa1b606482015260840161078a565b6001600160a01b0382166000908152600560205260408120805483929061184990849061228a565b90915550506040518181526001600160a01b038316907f35c543a3594e5dff5a7c56dde0a6d287014d3c1da2d0778871707db4492a1d07906020015b60405180910390a25050565b611899611c3c565b6118a6620151804261228a565b60088190556040519081527f4408ecf6bb821f8e598152d6e36318b2c0967533735d3fc6c1694a9693d2bc329060200160405180910390a1565b6060601080548060200260200160405190810160405280929190818152602001828054801561193857602002820191906000526020600020905b81546001600160a01b0316815260019091019060200180831161191a575b5050505050905090565b61194a611cc8565b336000908152600f602090815260408083206001600160a01b0385168452909152902054806119ae5760405162461bcd60e51b815260206004820152601060248201526f4e6f7468696e6720746f20636c61696d60801b604482015260640161078a565b336000908152600f602090815260408083206001600160a01b0386168085529252822091909155611a6d57604051600090339083908381818185875af1925050503d8060008114611a1b576040519150601f19603f3d011682016040523d82523d6000602084013e611a20565b606091505b5050905080611a675760405162461bcd60e51b8152602060048201526013602482015272115512081d1c985b9cd9995c8819985a5b1959606a1b604482015260640161078a565b50611a81565b611a816001600160a01b0383163383611c69565b5061113e6001600055565b60606007805480602002602001604051908101604052809291908181526020018280548015611938576020028201919060005260206000209081546001600160a01b0316815260019091019060200180831161191a575050505050905090565b611af4611c3c565b60008111611b325760405162461bcd60e51b815260206004820152600b60248201526a16995c9bc8185b5bdd5b9d60aa1b604482015260640161078a565b6001600160a01b038216611bb157803414611b7e5760405162461bcd60e51b815260206004820152600c60248201526b08aa89040dad2e6dac2e8c6d60a31b604482015260640161078a565b6001600160a01b03821660009081526005602052604081208054349290611ba690849061228a565b90915550611bc69050565b6118216001600160a01b038316333084611d1d565b816001600160a01b03167f35c543a3594e5dff5a7c56dde0a6d287014d3c1da2d0778871707db4492a1d078260405161188591815260200190565b611c09611c3c565b6001600160a01b038116611c3357604051631e4fbdf760e01b81526000600482015260240161078a565b61113e81611f96565b6001546001600160a01b031633146117bb5760405163118cdaa760e01b815233600482015260240161078a565b6040516001600160a01b03838116602483015260448201839052610cc691859182169063a9059cbb906064015b604051602081830303815290604052915060e01b6020820180516001600160e01b038381831617835250505050611fe8565b600260005403611ceb57604051633ee5aeb560e01b815260040160405180910390fd5b6002600055565b600154600160a01b900460ff16156117bb5760405163d93c066560e01b815260040160405180910390fd5b6040516001600160a01b038481166024830152838116604483015260648201839052611d569186918216906323b872dd90608401611c96565b50505050565b6000805b600754811015611db257826001600160a01b031660078281548110611d8757611d876122cd565b6000918252602090912001546001600160a01b031603611daa5750600192915050565b600101611d60565b50600092915050565b6001600160a01b0382166000908152601160205260408120815b8154811015611e395783828281548110611df157611df16122cd565b90600052602060002090600602016001015403611e3157818181548110611e1a57611e1a6122cd565b906000526020600020906006020192505050610724565b600101611dd5565b5060405162461bcd60e51b8152602060048201526012602482015271141bdcda5d1a5bdb881b9bdd08199bdd5b9960721b604482015260640161078a565b6001600160a01b0381166000908152600c6020526040812054900361113e576001600160a01b0381166000908152600d6020526040812054601054909190611ec190600190612277565b9050600060108281548110611ed857611ed86122cd565b6000918252602090912001546001600160a01b03908116915084168114611f47578060108481548110611f0d57611f0d6122cd565b600091825260208083209190910180546001600160a01b0319166001600160a01b039485161790559183168152600d909152604090208390555b6010805480611f5857611f586122e3565b600082815260208120820160001990810180546001600160a01b03191690559091019091556009805491611f8b836122b6565b919050555050505050565b600180546001600160a01b038381166001600160a01b0319831681179093556040519116919082907f8be0079c531659141344cd1fd0a4f28419497f9722a3daafe3b4186f6b6457e090600090a35050565b600080602060008451602086016000885af18061200b576040513d6000823e3d81fd5b50506000513d91508115612023578060011415612030565b6001600160a01b0384163b155b15611d5657604051635274afe760e01b81526001600160a01b038516600482015260240161078a565b80356001600160a01b038116811461207057600080fd5b919050565b60006020828403121561208757600080fd5b61072182612059565b600080604083850312156120a357600080fd5b50508035926020909101359150565b600080604083850312156120c557600080fd5b6120ce83612059565b946020939093013593505050565b6000806000606084860312156120f157600080fd5b6120fa84612059565b95602085013595506040909401359392505050565b6000806040838503121561212257600080fd5b61212b83612059565b91506020830135801515811461214057600080fd5b809150509250929050565b60006020828403121561215d57600080fd5b5035919050565b60008060006060848603121561217957600080fd5b505081359360208301359350604090920135919050565b600080604083850312156121a357600080fd5b6121ac83612059565b91506121ba60208401612059565b90509250929050565b602080825282518282018190526000918401906040840190835b818110156122045783516001600160a01b03168352602093840193909201916001016121dd565b509095945050505050565b634e487b7160e01b600052601160045260246000fd5b80820281158282048414176107245761072461220f565b60008261225957634e487b7160e01b600052601260045260246000fd5b500490565b60006020828403121561227057600080fd5b5051919050565b818103818111156107245761072461220f565b808201808211156107245761072461220f565b6000600182016122af576122af61220f565b5060010190565b6000816122c5576122c561220f565b506000190190565b634e487b7160e01b600052603260045260246000fd5b634e487b7160e01b600052603160045260246000fdfea26469706673582212208633f473748ca59167594f0838180ef3e2e528d69c2ae56a6b53d147a83a858064736f6c634300081c0033",
  "linkReferences": {},
  "deployedLinkReferences": {}
}