{
  "_format": "hh-sol-artifact-1",
  "contractName": "MockDEDU",
  "sourceName": "contracts/external/mocks/MockDEDU.sol",
  "abi": [
    {
      "inputs": [],
      "stateMutability": "nonpayable",
      "type": "constructor"
    },
    {
      "inputs": [
        {
          "internalType": "address",
          "name": "spender",
          "type": "address"
        },
        {
          "internalType": "uint256",
          "name": "allowance",
          "type": "uint256"
        },
        {
          "internalType": "uint256",
          "name": "needed",
          "type": "uint256"
        }
      ],
      "name": "ERC20InsufficientAllowance",
      "type": "error"
    },
    {
      "inputs": [
        {
          "internalType": "address",
          "name": "sender",
          "type": "address"
        },
        {
          "internalType": "uint256",
          "name": "balance",
          "type": "uint256"
        },
        {
          "internalType": "uint256",
          "name": "needed",
          "type": "uint256"
        }
      ],
      "name": "ERC20InsufficientBalance",
      "type": "error"
    },
    {
      "inputs": [
        {
          "internalType": "address",
          "name": "approver",
          "type": "address"
        }
      ],
      "name": "ERC20InvalidApprover",
      "type": "error"
    },
    {
      "inputs": [
        {
          "internalType": "address",
          "name": "receiver",
          "type": "address"
        }
      ],
      "name": "ERC20InvalidReceiver",
      "type": "error"
    },
    {
      "inputs": [
        {
          "internalType": "address",
          "name": "sender",
          "type": "address"
        }
      ],
      "name": "ERC20InvalidSender",
      "type": "error"
    },
    {
      "inputs": [
        {
          "internalType": "address",
          "name": "spender",
          "type": "address"
        }
      ],
      "name": "ERC20InvalidSpender",
      "type": "error"
    },
    {
      "anonymous": false,
      "inputs": [
        {
          "indexed": true,
          "internalType": "address",
          "name": "owner",
          "type": "address"
        },
        {
          "indexed": true,
          "internalType": "address",
          "name": "spender",
          "type": "address"
        },
        {
          "indexed": false,
          "internalType": "uint256",
          "name": "value",
          "type": "uint256"
        }
      ],
      "name": "Approval",
      "type": "event"
    },
    {
      "anonymous": false,
      "inputs": [
        {
          "indexed": true,
          "internalType": "address",
          "name": "from",
          "type": "address"
        },
        {
          "indexed": true,
          "internalType": "address",
          "name": "to",
          "type": "address"
        },
        {
          "indexed": false,
          "internalType": "uint256",
          "name": "value",
          "type": "uint256"
        }
      ],
      "name": "Transfer",
      "type": "event"
    },
    {
      "inputs": [
        {
          "internalType": "address",
          "name": "owner",
          "type": "address"
        },
        {
          "internalType": "address",
          "name": "spender",
          "type": "address"
        }
      ],
      "name": "allowance",
      "outputs": [
        {
          "internalType": "uint256",
          "name": "",
          "type": "uint256"
        }
      ],
      "stateMutability": "view",
      "type": "function"
    },
    {
      "inputs": [
        {
          "internalType": "address",
          "name": "spender",
          "type": "address"
        },
        {
          "internalType": "uint256",
          "name": "value",
          "type": "uint256"
        }
      ],
      "name": "approve",
      "outputs": [
        {
          "internalType": "bool",
          "name": "",
          "type": "bool"
        }
      ],
      "stateMutability": "nonpayable",
      "type": "function"
    },
    {
      "inputs": [
        {
          "internalType": "address",
          "name": "account",
          "type": "address"
        }
      ],
      "name": "balanceOf",
      "outputs": [
        {
          "internalType": "uint256",
          "name": "",
          "type": "uint256"
        }
      ],
      "stateMutability": "view",
      "type": "function"
    },
    {
      "inputs": [],
      "name": "decimals",
      "outputs": [
        {
          "internalType": "uint8",
          "name": "",
          "type": "uint8"
        }
      ],
      "stateMutability": "view",
      "type": "function"
    },
    {
      "inputs": [
        {
          "internalType": "address",
          "name": "to",
          "type": "address"
        },
        {
          "internalType": "uint256",
          "name": "amount",
          "type": "uint256"
        }
      ],
      "name": "mint",
      "outputs": [],
      "stateMutability": "nonpayable",
      "type": "function"
    },
    {
      "inputs": [],
      "name": "name",
      "outputs": [
        {
          "internalType": "string",
          "name": "",
          "type": "string"
        }
      ],
      "stateMutability": "view",
      "type": "function"
    },
    {
      "inputs": [
        {
          "internalType": "address",
          "name": "to",
          "type": "address"
        }
      ],
      "name": "receiveFor",
      "outputs": [],
      "stateMutability": "payable",
      "type": "function"
    },
    {
      "inputs": [
        {
          "internalType": "address",
          "name": "owner",
          "type": "address"
        },
        {
          "internalType": "address",
          "name": "spender",
          "type": "address"
        }
      ],
      "name": "receiveForSpender",
      "outputs": [],
      "stateMutability": "payable",
      "type": "function"
    },
    {
      "inputs": [],
      "name": "symbol",
      "outputs": [
        {
          "internalType": "string",
          "name": "",
          "type": "string"
        }
      ],
      "stateMutability": "view",
      "type": "function"
    },
    {
      "inputs": [],
      "name": "totalSupply",
      "outputs": [
        {
          "internalType": "uint256",
          "name": "",
          "type": "uint256"
        }
      ],
      "stateMutability": "view",
      "type": "function"
    },
    {
      "inputs": [
        {
          "internalType": "address",
          "name": "to",
          "type": "address"
        },
        {
          "internalType": "uint256",
          "name": "value",
          "type": "uint256"
        }
      ],
      "name": "transfer",
      "outputs": [
        {
          "internalType": "bool",
          "name": "",
          "type": "bool"
        }
      ],
      "stateMutability": "nonpayable",
      "type": "function"
    },
    {
      "inputs": [
        {
          "internalType": "address",
          "name": "from",
          "type": "address"
        },
        {
          "internalType": "address",
          "name": "to",
          "type": "address"
        },
        {
          "internalType": "uint256",
          "name": "value",
          "type": "uint256"
        }
      ],
      "name": "transferFrom",
      "outputs": [
        {
          "internalType": "bool",
          "name": "",
          "type": "bool"
        }
      ],
      "stateMutability": "nonpayable",
      "type": "function"
    }
  ],
  "bytecode": "0x608060405234801561001057600080fd5b506040518060400160405280600981526020017f4d6f636b206445445500000000000000000000000000000000000000000000008152506040518060400160405280600481526020017f6445445500000000000000000000000000000000000000000000000000000000815250816003908161008c91906102f4565b50806004908161009c91906102f4565b5050506103c6565b600081519050919050565b7f4e487b7100000000000000000000000000000000000000000000000000000000600052604160045260246000fd5b7f4e487b7100000000000000000000000000000000000000000000000000000000600052602260045260246000fd5b6000600282049050600182168061012557607f821691505b602082108103610138576101376100de565b5b50919050565b60008190508160005260206000209050919050565b60006020601f8301049050919050565b600082821b905092915050565b6000600883026101a07fffffffffffffffffffffffffffffffffffffffffffffffffffffffffffffffff82610163565b6101aa8683610163565b95508019841693508086168417925050509392505050565b6000819050919050565b6000819050919050565b60006101f16101ec6101e7846101c2565b6101cc565b6101c2565b9050919050565b6000819050919050565b61020b836101d6565b61021f610217826101f8565b848454610170565b825550505050565b600090565b610234610227565b61023f818484610202565b505050565b5b818110156102635761025860008261022c565b600181019050610245565b5050565b601f8211156102a8576102798161013e565b61028284610153565b81016020851015610291578190505b6102a561029d85610153565b830182610244565b50505b505050565b600082821c905092915050565b60006102cb600019846008026102ad565b1980831691505092915050565b60006102e483836102ba565b9150826002028217905092915050565b6102fd826100a4565b67ffffffffffffffff811115610316576103156100af565b5b610320825461010d565b61032b828285610267565b600060209050601f83116001811461035e576000841561034c578287015190505b61035685826102d8565b8655506103be565b601f19841661036c8661013e565b60005b828110156103945784890151825560018201915060208501945060208101905061036f565b868310156103b157848901516103ad601f8916826102ba565b8355505b6001600288020188555050505b505050505050565b610ff6806103d56000396000f3fe6080604052600436106100a75760003560e01c806370a082311161006457806370a08231146101d057806388d32dd71461020d57806395d89b4114610229578063a9059cbb14610254578063dd62ed3e14610291578063f1adc251146102ce576100a7565b806306fdde03146100ac578063095ea7b3146100d757806318160ddd1461011457806323b872dd1461013f578063313ce5671461017c57806340c10f19146101a7575b600080fd5b3480156100b857600080fd5b506100c16102ea565b6040516100ce9190610c4a565b60405180910390f35b3480156100e357600080fd5b506100fe60048036038101906100f99190610d05565b61037c565b60405161010b9190610d60565b60405180910390f35b34801561012057600080fd5b5061012961039f565b6040516101369190610d8a565b60405180910390f35b34801561014b57600080fd5b5061016660048036038101906101619190610da5565b6103a9565b6040516101739190610d60565b60405180910390f35b34801561018857600080fd5b506101916103d8565b60405161019e9190610e14565b60405180910390f35b3480156101b357600080fd5b506101ce60048036038101906101c99190610d05565b6103e1565b005b3480156101dc57600080fd5b506101f760048036038101906101f29190610e2f565b6103ef565b6040516102049190610d8a565b60405180910390f35b61022760048036038101906102229190610e2f565b610437565b005b34801561023557600080fd5b5061023e610444565b60405161024b9190610c4a565b60405180910390f35b34801561026057600080fd5b5061027b60048036038101906102769190610d05565b6104d6565b6040516102889190610d60565b60405180910390f35b34801561029d57600080fd5b506102b860048036038101906102b39190610e5c565b6104f9565b6040516102c59190610d8a565b60405180910390f35b6102e860048036038101906102e39190610e5c565b610580565b005b6060600380546102f990610ecb565b80601f016020809104026020016040519081016040528092919081815260200182805461032590610ecb565b80156103725780601f1061034757610100808354040283529160200191610372565b820191906000526020600020905b81548152906001019060200180831161035557829003601f168201915b5050505050905090565b600080610387610599565b90506103948185856105a1565b600191505092915050565b6000600254905090565b6000806103b4610599565b90506103c18582856105b3565b6103cc858585610648565b60019150509392505050565b60006012905090565b6103eb828261073c565b5050565b60008060008373ffffffffffffffffffffffffffffffffffffffff1673ffffffffffffffffffffffffffffffffffffffff168152602001908152602001600020549050919050565b610441813461073c565b50565b60606004805461045390610ecb565b80601f016020809104026020016040519081016040528092919081815260200182805461047f90610ecb565b80156104cc5780601f106104a1576101008083540402835291602001916104cc565b820191906000526020600020905b8154815290600101906020018083116104af57829003601f168201915b5050505050905090565b6000806104e1610599565b90506104ee818585610648565b600191505092915050565b6000600160008473ffffffffffffffffffffffffffffffffffffffff1673ffffffffffffffffffffffffffffffffffffffff16815260200190815260200160002060008373ffffffffffffffffffffffffffffffffffffffff1673ffffffffffffffffffffffffffffffffffffffff16815260200190815260200160002054905092915050565b61058a823461073c565b6105958282346105a1565b5050565b600033905090565b6105ae83838360016107be565b505050565b60006105bf84846104f9565b90507fffffffffffffffffffffffffffffffffffffffffffffffffffffffffffffffff8110156106425781811015610632578281836040517ffb8f41b200000000000000000000000000000000000000000000000000000000815260040161062993929190610f0b565b60405180910390fd5b610641848484840360006107be565b5b50505050565b600073ffffffffffffffffffffffffffffffffffffffff168373ffffffffffffffffffffffffffffffffffffffff16036106ba5760006040517f96c6fd1e0000000000000000000000000000000000000000000000000000000081526004016106b19190610f42565b60405180910390fd5b600073ffffffffffffffffffffffffffffffffffffffff168273ffffffffffffffffffffffffffffffffffffffff160361072c5760006040517fec442f050000000000000000000000000000000000000000000000000000000081526004016107239190610f42565b60405180910390fd5b610737838383610995565b505050565b600073ffffffffffffffffffffffffffffffffffffffff168273ffffffffffffffffffffffffffffffffffffffff16036107ae5760006040517fec442f050000000000000000000000000000000000000000000000000000000081526004016107a59190610f42565b60405180910390fd5b6107ba60008383610995565b5050565b600073ffffffffffffffffffffffffffffffffffffffff168473ffffffffffffffffffffffffffffffffffffffff16036108305760006040517fe602df050000000000000000000000000000000000000000000000000000000081526004016108279190610f42565b60405180910390fd5b600073ffffffffffffffffffffffffffffffffffffffff168373ffffffffffffffffffffffffffffffffffffffff16036108a25760006040517f94280d620000000000000000000000000000000000000000000000000000000081526004016108999190610f42565b60405180910390fd5b81600160008673ffffffffffffffffffffffffffffffffffffffff1673ffffffffffffffffffffffffffffffffffffffff16815260200190815260200160002060008573ffffffffffffffffffffffffffffffffffffffff1673ffffffffffffffffffffffffffffffffffffffff16815260200190815260200160002081905550801561098f578273ffffffffffffffffffffffffffffffffffffffff168473ffffffffffffffffffffffffffffffffffffffff167f8c5be1e5ebec7d5bd14f71427d1e84f3dd0314c0f7b2291e5b200ac8c7c3b925846040516109869190610d8a565b60405180910390a35b50505050565b600073ffffffffffffffffffffffffffffffffffffffff168373ffffffffffffffffffffffffffffffffffffffff16036109e75780600260008282546109db9190610f8c565b92505081905550610aba565b60008060008573ffffffffffffffffffffffffffffffffffffffff1673ffffffffffffffffffffffffffffffffffffffff16815260200190815260200160002054905081811015610a73578381836040517fe450d38c000000000000000000000000000000000000000000000000000000008152600401610a6a93929190610f0b565b60405180910390fd5b8181036000808673ffffffffffffffffffffffffffffffffffffffff1673ffffffffffffffffffffffffffffffffffffffff16815260200190815260200160002081905550505b600073ffffffffffffffffffffffffffffffffffffffff168273ffffffffffffffffffffffffffffffffffffffff1603610b035780600260008282540392505081905550610b50565b806000808473ffffffffffffffffffffffffffffffffffffffff1673ffffffffffffffffffffffffffffffffffffffff168152602001908152602001600020600082825401925050819055505b8173ffffffffffffffffffffffffffffffffffffffff168373ffffffffffffffffffffffffffffffffffffffff167fddf252ad1be2c89b69c2b068fc378daa952ba7f163c4a11628f55a4df523b3ef83604051610bad9190610d8a565b60405180910390a3505050565b600081519050919050565b600082825260208201905092915050565b60005b83811015610bf4578082015181840152602081019050610bd9565b60008484015250505050565b6000601f19601f8301169050919050565b6000610c1c82610bba565b610c268185610bc5565b9350610c36818560208601610bd6565b610c3f81610c00565b840191505092915050565b60006020820190508181036000830152610c648184610c11565b905092915050565b600080fd5b600073ffffffffffffffffffffffffffffffffffffffff82169050919050565b6000610c9c82610c71565b9050919050565b610cac81610c91565b8114610cb757600080fd5b50565b600081359050610cc981610ca3565b92915050565b6000819050919050565b610ce281610ccf565b8114610ced57600080fd5b50565b600081359050610cff81610cd9565b92915050565b60008060408385031215610d1c57610d1b610c6c565b5b6000610d2a85828601610cba565b9250506020610d3b85828601610cf0565b9150509250929050565b60008115159050919050565b610d5a81610d45565b82525050565b6000602082019050610d756000830184610d51565b92915050565b610d8481610ccf565b82525050565b6000602082019050610d9f6000830184610d7b565b92915050565b600080600060608486031215610dbe57610dbd610c6c565b5b6000610dcc86828701610cba565b9350506020610ddd86828701610cba565b9250506040610dee86828701610cf0565b9150509250925092565b600060ff82169050919050565b610e0e81610df8565b82525050565b6000602082019050610e296000830184610e05565b92915050565b600060208284031215610e4557610e44610c6c565b5b6000610e5384828501610cba565b91505092915050565b60008060408385031215610e7357610e72610c6c565b5b6000610e8185828601610cba565b9250506020610e9285828601610cba565b9150509250929050565b7f4e487b7100000000000000000000000000000000000000000000000000000000600052602260045260246000fd5b60006002820490506001821680610ee357607f821691505b602082108103610ef657610ef5610e9c565b5b50919050565b610f0581610c91565b82525050565b6000606082019050610f206000830186610efc565b610f2d6020830185610d7b565b610f3a6040830184610d7b565b949350505050565b6000602082019050610f576000830184610efc565b92915050565b7f4e487b7100000000000000000000000000000000000000000000000000000000600052601160045260246000fd5b6000610f9782610ccf565b9150610fa283610ccf565b9250828201905080821115610fba57610fb9610f5d565b5b9291505056fea2646970667358221220f8b6bd6eca33f9996417080948efe4aefec90bb006e2c31581fcba579ff33e9a64736f6c634300081c0033",
  "linkReferences": {},
  "deployedLinkReferences": {}
}