{
  "_format": "hh-sol-artifact-1",
  "contractName": "Staking",
  "sourceName": "contracts/staking/Staking.sol",
  "abi": [
    {
      "inputs": [],
      "stateMutability": "nonpayable",
      "type": "constructor"
    },
    {
      "inputs": [
        {
          "internalType": "address",
          "name": "target",
          "type": "address"
        }
      ],
      "name": "AddressEmptyCode",
      "type": "error"
    },
    {
      "inputs": [
        {
          "internalType": "address",
          "name": "implementation",
          "type": "address"
        }
      ],
      "name": "ERC1967InvalidImplementation",
      "type": "error"
    },
    {
      "inputs": [],
      "name": "ERC1967NonPayable",
      "type": "error"
    },
    {
      "inputs": [],
      "name": "FailedCall",
      "type": "error"
    },
    {
      "inputs": [],
      "name": "InsufficientDEDU",
      "type": "error"
    },
    {
      "inputs": [],
      "name": "InvalidInitialization",
      "type": "error"
    },
    {
      "inputs": [],
      "name": "NotInitializing",
      "type": "error"
    },
    {
      "inputs": [
        {
          "internalType": "address",
          "name": "owner",
          "type": "address"
        }
      ],
      "name": "OwnableInvalidOwner",
      "type": "error"
    },
    {
      "inputs": [
        {
          "internalType": "address",
          "name": "account",
          "type": "address"
        }
      ],
      "name": "OwnableUnauthorizedAccount",
      "type": "error"
    },
    {
      "inputs": [],
      "name": "SupplyMismatch",
      "type": "error"
    },
    {
      "inputs": [],
      "name": "UUPSUnauthorizedCallContext",
      "type": "error"
    },
    {
      "inputs": [
        {
          "internalType": "bytes32",
          "name": "slot",
          "type": "bytes32"
        }
      ],
      "name": "UUPSUnsupportedProxiableUUID",
      "type": "error"
    },
    {
      "anonymous": false,
      "inputs": [
        {
          "indexed": false,
          "internalType": "uint64",
          "name": "version",
          "type": "uint64"
        }
      ],
      "name": "Initialized",
      "type": "event"
    },
    {
      "anonymous": false,
      "inputs": [
        {
          "indexed": true,
          "internalType": "address",
          "name": "previousOwner",
          "type": "address"
        },
        {
          "indexed": true,
          "internalType": "address",
          "name": "newOwner",
          "type": "address"
        }
      ],
      "name": "OwnershipTransferred",
      "type": "event"
    },
    {
      "anonymous": false,
      "inputs": [
        {
          "indexed": true,
          "internalType": "address",
          "name": "user",
          "type": "address"
        },
        {
          "indexed": true,
          "internalType": "uint256",
          "name": "tokenId",
          "type": "uint256"
        },
        {
          "indexed": false,
          "internalType": "uint256",
          "name": "amount",
          "type": "uint256"
        },
        {
          "indexed": false,
          "internalType": "uint256",
          "name": "shares",
          "type": "uint256"
        },
        {
          "indexed": false,
          "internalType": "enum ISToken.TokenType",
          "name": "tokenType",
          "type": "uint8"
        }
      ],
      "name": "Staked",
      "type": "event"
    },
    {
      "anonymous": false,
      "inputs": [
        {
          "indexed": true,
          "internalType": "address",
          "name": "user",
          "type": "address"
        },
        {
          "indexed": true,
          "internalType": "uint256",
          "name": "tokenId",
          "type": "uint256"
        },
        {
          "indexed": false,
          "internalType": "uint256",
          "name": "shares",
          "type": "uint256"
        },
        {
          "indexed": false,
          "internalType": "uint256",
          "name": "withdrawnAmount",
          "type": "uint256"
        },
        {
          "indexed": false,
          "internalType": "uint256",
          "name": "userAccrual",
          "type": "uint256"
        },
        {
          "indexed": false,
          "internalType": "uint256",
          "name": "protocolPloughBack",
          "type": "uint256"
        }
      ],
      "name": "Unstaked",
      "type": "event"
    },
    {
      "anonymous": false,
      "inputs": [
        {
          "indexed": true,
          "internalType": "address",
          "name": "implementation",
          "type": "address"
        }
      ],
      "name": "Upgraded",
      "type": "event"
    },
    {
      "inputs": [],
      "name": "UPGRADE_INTERFACE_VERSION",
      "outputs": [
        {
          "internalType": "string",
          "name": "",
          "type": "string"
        }
      ],
      "stateMutability": "view",
      "type": "function"
    },
    {
      "inputs": [],
      "name": "grantAUMInfiniteAllowance",
      "outputs": [],
      "stateMutability": "nonpayable",
      "type": "function"
    },
    {
      "inputs": [
        {
          "internalType": "address",
          "name": "_wedu",
          "type": "address"
        },
        {
          "internalType": "address",
          "name": "_sToken",
          "type": "address"
        },
        {
          "internalType": "address",
          "name": "_yld",
          "type": "address"
        },
        {
          "internalType": "address",
          "name": "owner",
          "type": "address"
        }
      ],
      "name": "initialize",
      "outputs": [],
      "stateMutability": "nonpayable",
      "type": "function"
    },
    {
      "inputs": [],
      "name": "owner",
      "outputs": [
        {
          "internalType": "address",
          "name": "",
          "type": "address"
        }
      ],
      "stateMutability": "view",
      "type": "function"
    },
    {
      "inputs": [],
      "name": "proxiableUUID",
      "outputs": [
        {
          "internalType": "bytes32",
          "name": "",
          "type": "bytes32"
        }
      ],
      "stateMutability": "view",
      "type": "function"
    },
    {
      "inputs": [],
      "name": "renounceOwnership",
      "outputs": [],
      "stateMutability": "nonpayable",
      "type": "function"
    },
    {
      "inputs": [
        {
          "internalType": "enum ISToken.TokenType",
          "name": "tokenType",
          "type": "uint8"
        },
        {
          "internalType": "uint256",
          "name": "amount",
          "type": "uint256"
        }
      ],
      "name": "stakeDEDU",
      "outputs": [
        {
          "internalType": "uint256",
          "name": "tokenId",
          "type": "uint256"
        },
        {
          "internalType": "uint256",
          "name": "shares",
          "type": "uint256"
        }
      ],
      "stateMutability": "nonpayable",
      "type": "function"
    },
    {
      "inputs": [
        {
          "internalType": "enum ISToken.TokenType",
          "name": "tokenType",
          "type": "uint8"
        }
      ],
      "name": "stakeEDU",
      "outputs": [
        {
          "internalType": "uint256",
          "name": "tokenId",
          "type": "uint256"
        },
        {
          "internalType": "uint256",
          "name": "shares",
          "type": "uint256"
        }
      ],
      "stateMutability": "payable",
      "type": "function"
    },
    {
      "inputs": [
        {
          "internalType": "enum ISToken.TokenType",
          "name": "tokenType",
          "type": "uint8"
        },
        {
          "internalType": "uint256",
          "name": "amount",
          "type": "uint256"
        }
      ],
      "name": "stakeWEDU",
      "outputs": [
        {
          "internalType": "uint256",
          "name": "tokenId",
          "type": "uint256"
        },
        {
          "internalType": "uint256",
          "name": "shares",
          "type": "uint256"
        }
      ],
      "stateMutability": "nonpayable",
      "type": "function"
    },
    {
      "inputs": [
        {
          "internalType": "address",
          "name": "newOwner",
          "type": "address"
        }
      ],
      "name": "transferOwnership",
      "outputs": [],
      "stateMutability": "nonpayable",
      "type": "function"
    },
    {
      "inputs": [
        {
          "internalType": "uint256",
          "name": "tokenId",
          "type": "uint256"
        },
        {
          "internalType": "uint256",
          "name": "shares",
          "type": "uint256"
        }
      ],
      "name": "unStake",
      "outputs": [
        {
          "internalType": "uint256",
          "name": "amount",
          "type": "uint256"
        }
      ],
      "stateMutability": "nonpayable",
      "type": "function"
    },
    {
      "inputs": [
        {
          "internalType": "address",
          "name": "newImplementation",
          "type": "address"
        },
        {
          "internalType": "bytes",
          "name": "data",
          "type": "bytes"
        }
      ],
      "name": "upgradeToAndCall",
      "outputs": [],
      "stateMutability": "payable",
      "type": "function"
    },
    {
      "stateMutability": "payable",
      "type": "receive"
    }
  ],
  "bytecode": "0x60a06040523073ffffffffffffffffffffffffffffffffffffffff1660809073ffffffffffffffffffffffffffffffffffffffff1681525034801561004357600080fd5b5061005261005760201b60201c565b6101de565b600061006761015b60201b60201c565b90508060000160089054906101000a900460ff16156100b2576040517ff92ee8a900000000000000000000000000000000000000000000000000000000815260040160405180910390fd5b67ffffffffffffffff80168160000160009054906101000a900467ffffffffffffffff1667ffffffffffffffff16146101585767ffffffffffffffff8160000160006101000a81548167ffffffffffffffff021916908367ffffffffffffffff1602179055507fc7f505b2f371ae2175ee4913f4499e1f2633a7b5936321eed1cdaeb6115181d267ffffffffffffffff60405161014f91906101c3565b60405180910390a15b50565b60008061016c61017560201b60201c565b90508091505090565b60007ff0c57e16840df040f15088dc2f81fe391c3923bec73e23a9662efc9c229c6a0060001b905090565b600067ffffffffffffffff82169050919050565b6101bd816101a0565b82525050565b60006020820190506101d860008301846101b4565b92915050565b6080516128a061020760003960008181611064015281816110b9015261127401526128a06000f3fe6080604052600436106100ab5760003560e01c8063a4d4e06e11610064578063a4d4e06e146101ae578063ad3cb1cc146101ec578063ba26863814610217578063e6193c9414610255578063f2fde38b1461026c578063f8c8765e14610295576100b2565b8063372caeb8146100b75780634f1ef286146100f457806352d1902d146101105780635a45f7871461013b578063715018a61461016c5780638da5cb5b14610183576100b2565b366100b257005b600080fd5b3480156100c357600080fd5b506100de60048036038101906100d99190611d8d565b6102be565b6040516100eb9190611ddc565b60405180910390f35b61010e60048036038101906101099190611f9b565b6106c9565b005b34801561011c57600080fd5b506101256106e8565b6040516101329190612010565b60405180910390f35b61015560048036038101906101509190612050565b61071b565b60405161016392919061207d565b60405180910390f35b34801561017857600080fd5b506101816107d5565b005b34801561018f57600080fd5b506101986107e9565b6040516101a591906120b5565b60405180910390f35b3480156101ba57600080fd5b506101d560048036038101906101d091906120d0565b610821565b6040516101e392919061207d565b60405180910390f35b3480156101f857600080fd5b506102016108f8565b60405161020e919061218f565b60405180910390f35b34801561022357600080fd5b5061023e600480360381019061023991906120d0565b610931565b60405161024c92919061207d565b60405180910390f35b34801561026157600080fd5b5061026a610b27565b005b34801561027857600080fd5b50610293600480360381019061028e91906121b1565b610c1d565b005b3480156102a157600080fd5b506102bc60048036038101906102b791906121de565b610ca3565b005b6000806102c9610ff0565b905060006102d561101d565b90508160020160009054906101000a900473ffffffffffffffffffffffffffffffffffffffff1673ffffffffffffffffffffffffffffffffffffffff1663ee638ee58287876040518463ffffffff1660e01b815260040161033893929190612245565b600060405180830381600087803b15801561035257600080fd5b505af1158015610366573d6000803e3d6000fd5b505050508160030160009054906101000a900473ffffffffffffffffffffffffffffffffffffffff1673ffffffffffffffffffffffffffffffffffffffff1663ba0876528530846040518463ffffffff1660e01b81526004016103cb9392919061227c565b6020604051808303816000875af11580156103ea573d6000803e3d6000fd5b505050506040513d601f19601f8201168201806040525081019061040e91906122c8565b508160010160009054906101000a900473ffffffffffffffffffffffffffffffffffffffff1673ffffffffffffffffffffffffffffffffffffffff166370a08231306040518263ffffffff1660e01b815260040161046c91906120b5565b602060405180830381865afa158015610489573d6000803e3d6000fd5b505050506040513d601f19601f820116820180604052508101906104ad91906122c8565b92506104b883611025565b600084846104c69190612324565b9050600060648260466104d99190612358565b6104e391906123c9565b9050600081866104f39190612324565b90508460010160009054906101000a900473ffffffffffffffffffffffffffffffffffffffff1673ffffffffffffffffffffffffffffffffffffffff1663a9059cbb85836040518363ffffffff1660e01b81526004016105549291906123fa565b6020604051808303816000875af1158015610573573d6000803e3d6000fd5b505050506040513d601f19601f82011682018060405250810190610597919061245b565b506000821115610669578460010160009054906101000a900473ffffffffffffffffffffffffffffffffffffffff1673ffffffffffffffffffffffffffffffffffffffff1663a9059cbb8660030160009054906101000a900473ffffffffffffffffffffffffffffffffffffffff16846040518363ffffffff1660e01b81526004016106249291906123fa565b6020604051808303816000875af1158015610643573d6000803e3d6000fd5b505050506040513d601f19601f82011682018060405250810190610667919061245b565b505b878473ffffffffffffffffffffffffffffffffffffffff167f055f388d8102e9e2bfeaa944b25b4cdb0c06fd1c42d5c2812a8f3c7ac1aa26d3898985876040516106b69493929190612488565b60405180910390a3505050505092915050565b6106d1611062565b6106da82611148565b6106e48282611153565b5050565b60006106f2611272565b7f360894a13ba1a3210667c828492db98dca3e2076cc3735a920a3ca505d382bbc60001b905090565b6000806000610728610ff0565b90508060010160009054906101000a900473ffffffffffffffffffffffffffffffffffffffff1673ffffffffffffffffffffffffffffffffffffffff166388d32dd734306040518363ffffffff1660e01b815260040161078891906120b5565b6000604051808303818588803b1580156107a157600080fd5b505af11580156107b5573d6000803e3d6000fd5b50505050506107cb6107c561101d565b856112f9565b9250925050915091565b6107dd6116ef565b6107e76000611776565b565b6000806107f461184d565b90508060000160009054906101000a900473ffffffffffffffffffffffffffffffffffffffff1691505090565b600080600061082e610ff0565b9050600061083a61101d565b90508160010160009054906101000a900473ffffffffffffffffffffffffffffffffffffffff1673ffffffffffffffffffffffffffffffffffffffff166323b872dd8230886040518463ffffffff1660e01b815260040161089d939291906124cd565b6020604051808303816000875af11580156108bc573d6000803e3d6000fd5b505050506040513d601f19601f820116820180604052508101906108e0919061245b565b506108eb81876112f9565b9350935050509250929050565b6040518060400160405280600581526020017f352e302e3000000000000000000000000000000000000000000000000000000081525081565b600080600061093e610ff0565b9050600061094a61101d565b90508160000160009054906101000a900473ffffffffffffffffffffffffffffffffffffffff1673ffffffffffffffffffffffffffffffffffffffff166323b872dd8230886040518463ffffffff1660e01b81526004016109ad939291906124cd565b6020604051808303816000875af11580156109cc573d6000803e3d6000fd5b505050506040513d601f19601f820116820180604052508101906109f0919061245b565b508160000160009054906101000a900473ffffffffffffffffffffffffffffffffffffffff1673ffffffffffffffffffffffffffffffffffffffff16632e1a7d4d866040518263ffffffff1660e01b8152600401610a4e9190611ddc565b600060405180830381600087803b158015610a6857600080fd5b505af1158015610a7c573d6000803e3d6000fd5b505050508160010160009054906101000a900473ffffffffffffffffffffffffffffffffffffffff1673ffffffffffffffffffffffffffffffffffffffff166388d32dd786306040518363ffffffff1660e01b8152600401610ade91906120b5565b6000604051808303818588803b158015610af757600080fd5b505af1158015610b0b573d6000803e3d6000fd5b5050505050610b1a81876112f9565b9350935050509250929050565b6000610b31610ff0565b90508060010160009054906101000a900473ffffffffffffffffffffffffffffffffffffffff1673ffffffffffffffffffffffffffffffffffffffff1663095ea7b38260030160009054906101000a900473ffffffffffffffffffffffffffffffffffffffff167fffffffffffffffffffffffffffffffffffffffffffffffffffffffffffffffff6040518363ffffffff1660e01b8152600401610bd69291906123fa565b6020604051808303816000875af1158015610bf5573d6000803e3d6000fd5b505050506040513d601f19601f82011682018060405250810190610c19919061245b565b5050565b610c256116ef565b600073ffffffffffffffffffffffffffffffffffffffff168173ffffffffffffffffffffffffffffffffffffffff1603610c975760006040517f1e4fbdf7000000000000000000000000000000000000000000000000000000008152600401610c8e91906120b5565b60405180910390fd5b610ca081611776565b50565b6000610cad611875565b905060008160000160089054906101000a900460ff1615905060008260000160009054906101000a900467ffffffffffffffff1690506000808267ffffffffffffffff16148015610cfb5750825b9050600060018367ffffffffffffffff16148015610d30575060003073ffffffffffffffffffffffffffffffffffffffff163b145b905081158015610d3e575080155b15610d75576040517ff92ee8a900000000000000000000000000000000000000000000000000000000815260040160405180910390fd5b60018560000160006101000a81548167ffffffffffffffff021916908367ffffffffffffffff1602179055508315610dc55760018560000160086101000a81548160ff0219169083151502179055505b610dce86611889565b610dd661189d565b6000610de0610ff0565b9050898160000160006101000a81548173ffffffffffffffffffffffffffffffffffffffff021916908373ffffffffffffffffffffffffffffffffffffffff160217905550888160020160006101000a81548173ffffffffffffffffffffffffffffffffffffffff021916908373ffffffffffffffffffffffffffffffffffffffff160217905550878160030160006101000a81548173ffffffffffffffffffffffffffffffffffffffff021916908373ffffffffffffffffffffffffffffffffffffffff1602179055508060030160009054906101000a900473ffffffffffffffffffffffffffffffffffffffff1673ffffffffffffffffffffffffffffffffffffffff166338d52e0f6040518163ffffffff1660e01b8152600401602060405180830381865afa158015610f1a573d6000803e3d6000fd5b505050506040513d601f19601f82011682018060405250810190610f3e9190612519565b8160010160006101000a81548173ffffffffffffffffffffffffffffffffffffffff021916908373ffffffffffffffffffffffffffffffffffffffff160217905550610f88610b27565b508315610fe55760008560000160086101000a81548160ff0219169083151502179055507fc7f505b2f371ae2175ee4913f4499e1f2633a7b5936321eed1cdaeb6115181d26001604051610fdc919061259f565b60405180910390a15b505050505050505050565b6000807f4f559511468ac155030f991ea655a0bbef3db00e3eac1d8da28c7f1a8699b58390508091505090565b600033905090565b6000810361105f576040517f88eee4f200000000000000000000000000000000000000000000000000000000815260040160405180910390fd5b50565b7f000000000000000000000000000000000000000000000000000000000000000073ffffffffffffffffffffffffffffffffffffffff163073ffffffffffffffffffffffffffffffffffffffff16148061110f57507f000000000000000000000000000000000000000000000000000000000000000073ffffffffffffffffffffffffffffffffffffffff166110f66118a7565b73ffffffffffffffffffffffffffffffffffffffff1614155b15611146576040517fe07c8dba00000000000000000000000000000000000000000000000000000000815260040160405180910390fd5b565b6111506116ef565b50565b8173ffffffffffffffffffffffffffffffffffffffff166352d1902d6040518163ffffffff1660e01b8152600401602060405180830381865afa9250505080156111bb57506040513d601f19601f820116820180604052508101906111b891906125e6565b60015b6111fc57816040517f4c9c8ce30000000000000000000000000000000000000000000000000000000081526004016111f391906120b5565b60405180910390fd5b7f360894a13ba1a3210667c828492db98dca3e2076cc3735a920a3ca505d382bbc60001b811461126357806040517faa1d49a400000000000000000000000000000000000000000000000000000000815260040161125a9190612010565b60405180910390fd5b61126d83836118fe565b505050565b7f000000000000000000000000000000000000000000000000000000000000000073ffffffffffffffffffffffffffffffffffffffff163073ffffffffffffffffffffffffffffffffffffffff16146112f7576040517fe07c8dba00000000000000000000000000000000000000000000000000000000815260040160405180910390fd5b565b600080611304611cee565b838160000190600181111561131c5761131b612613565b5b908160018111156113305761132f612613565b5b81525050600061133e610ff0565b905060008160010160009054906101000a900473ffffffffffffffffffffffffffffffffffffffff1673ffffffffffffffffffffffffffffffffffffffff166370a08231306040518263ffffffff1660e01b815260040161139f91906120b5565b602060405180830381865afa1580156113bc573d6000803e3d6000fd5b505050506040513d601f19601f820116820180604052508101906113e091906122c8565b90506113eb81611025565b8160030160009054906101000a900473ffffffffffffffffffffffffffffffffffffffff1673ffffffffffffffffffffffffffffffffffffffff16636e553f6582896040518363ffffffff1660e01b815260040161144a929190612642565b6020604051808303816000875af1158015611469573d6000803e3d6000fd5b505050506040513d601f19601f8201168201806040525081019061148d91906122c8565b93508160020160009054906101000a900473ffffffffffffffffffffffffffffffffffffffff1673ffffffffffffffffffffffffffffffffffffffff1663ab16332a8886866040518463ffffffff1660e01b81526004016114f09392919061278e565b6020604051808303816000875af115801561150f573d6000803e3d6000fd5b505050506040513d601f19601f8201168201806040525081019061153391906122c8565b94508160020160009054906101000a900473ffffffffffffffffffffffffffffffffffffffff1673ffffffffffffffffffffffffffffffffffffffff166318160ddd6040518163ffffffff1660e01b8152600401602060405180830381865afa1580156115a4573d6000803e3d6000fd5b505050506040513d601f19601f820116820180604052508101906115c891906122c8565b8260030160009054906101000a900473ffffffffffffffffffffffffffffffffffffffff1673ffffffffffffffffffffffffffffffffffffffff166318160ddd6040518163ffffffff1660e01b8152600401602060405180830381865afa158015611637573d6000803e3d6000fd5b505050506040513d601f19601f8201168201806040525081019061165b91906122c8565b14611692576040517ff6beef5200000000000000000000000000000000000000000000000000000000815260040160405180910390fd5b848773ffffffffffffffffffffffffffffffffffffffff167fe0b36cd6976cb8536f8ece5e0c92aa988fbd17c405a07c84cfef55bad6ded1a183878a6040516116dd939291906127d5565b60405180910390a35050509250929050565b6116f761101d565b73ffffffffffffffffffffffffffffffffffffffff166117156107e9565b73ffffffffffffffffffffffffffffffffffffffff16146117745761173861101d565b6040517f118cdaa700000000000000000000000000000000000000000000000000000000815260040161176b91906120b5565b60405180910390fd5b565b600061178061184d565b905060008160000160009054906101000a900473ffffffffffffffffffffffffffffffffffffffff169050828260000160006101000a81548173ffffffffffffffffffffffffffffffffffffffff021916908373ffffffffffffffffffffffffffffffffffffffff1602179055508273ffffffffffffffffffffffffffffffffffffffff168173ffffffffffffffffffffffffffffffffffffffff167f8be0079c531659141344cd1fd0a4f28419497f9722a3daafe3b4186f6b6457e060405160405180910390a3505050565b60007f9016d09d72d40fdae2fd8ceac6b6234c7706214fd39c1cd1e609a0528c199300905090565b600080611880611971565b90508091505090565b61189161199c565b61189a816119dc565b50565b6118a561199c565b565b60006118d57f360894a13ba1a3210667c828492db98dca3e2076cc3735a920a3ca505d382bbc60001b611a62565b60000160009054906101000a900473ffffffffffffffffffffffffffffffffffffffff16905090565b61190782611a6c565b8173ffffffffffffffffffffffffffffffffffffffff167fbc7cd75a20ee27fd9adebab32041f755214dbc6bffa90cc0225b39da2e5c2d3b60405160405180910390a26000815111156119645761195e8282611b39565b5061196d565b61196c611bbd565b5b5050565b60007ff0c57e16840df040f15088dc2f81fe391c3923bec73e23a9662efc9c229c6a0060001b905090565b6119a4611bfa565b6119da576040517fd7e6bcf800000000000000000000000000000000000000000000000000000000815260040160405180910390fd5b565b6119e461199c565b600073ffffffffffffffffffffffffffffffffffffffff168173ffffffffffffffffffffffffffffffffffffffff1603611a565760006040517f1e4fbdf7000000000000000000000000000000000000000000000000000000008152600401611a4d91906120b5565b60405180910390fd5b611a5f81611776565b50565b6000819050919050565b60008173ffffffffffffffffffffffffffffffffffffffff163b03611ac857806040517f4c9c8ce3000000000000000000000000000000000000000000000000000000008152600401611abf91906120b5565b60405180910390fd5b80611af57f360894a13ba1a3210667c828492db98dca3e2076cc3735a920a3ca505d382bbc60001b611a62565b60000160006101000a81548173ffffffffffffffffffffffffffffffffffffffff021916908373ffffffffffffffffffffffffffffffffffffffff16021790555050565b60606000808473ffffffffffffffffffffffffffffffffffffffff1684604051611b639190612853565b600060405180830381855af49150503d8060008114611b9e576040519150601f19603f3d011682016040523d82523d6000602084013e611ba3565b606091505b5091509150611bb3858383611c1a565b9250505092915050565b6000341115611bf8576040517fb398979f00000000000000000000000000000000000000000000000000000000815260040160405180910390fd5b565b6000611c04611875565b60000160089054906101000a900460ff16905090565b606082611c2f57611c2a82611ca9565b611ca1565b60008251148015611c57575060008473ffffffffffffffffffffffffffffffffffffffff163b145b15611c9957836040517f9996b315000000000000000000000000000000000000000000000000000000008152600401611c9091906120b5565b60405180910390fd5b819050611ca2565b5b9392505050565b600081511115611cbc5780518082602001fd5b6040517fd6bda27500000000000000000000000000000000000000000000000000000000815260040160405180910390fd5b604051806040016040528060006001811115611d0d57611d0c612613565b5b8152602001611d1a611d20565b81525090565b604051806106400160405280603290602082028036833780820191505090505090565b6000604051905090565b600080fd5b600080fd5b6000819050919050565b611d6a81611d57565b8114611d7557600080fd5b50565b600081359050611d8781611d61565b92915050565b60008060408385031215611da457611da3611d4d565b5b6000611db285828601611d78565b9250506020611dc385828601611d78565b9150509250929050565b611dd681611d57565b82525050565b6000602082019050611df16000830184611dcd565b92915050565b600073ffffffffffffffffffffffffffffffffffffffff82169050919050565b6000611e2282611df7565b9050919050565b611e3281611e17565b8114611e3d57600080fd5b50565b600081359050611e4f81611e29565b92915050565b600080fd5b600080fd5b6000601f19601f8301169050919050565b7f4e487b7100000000000000000000000000000000000000000000000000000000600052604160045260246000fd5b611ea882611e5f565b810181811067ffffffffffffffff82111715611ec757611ec6611e70565b5b80604052505050565b6000611eda611d43565b9050611ee68282611e9f565b919050565b600067ffffffffffffffff821115611f0657611f05611e70565b5b611f0f82611e5f565b9050602081019050919050565b82818337600083830152505050565b6000611f3e611f3984611eeb565b611ed0565b905082815260208101848484011115611f5a57611f59611e5a565b5b611f65848285611f1c565b509392505050565b600082601f830112611f8257611f81611e55565b5b8135611f92848260208601611f2b565b91505092915050565b60008060408385031215611fb257611fb1611d4d565b5b6000611fc085828601611e40565b925050602083013567ffffffffffffffff811115611fe157611fe0611d52565b5b611fed85828601611f6d565b9150509250929050565b6000819050919050565b61200a81611ff7565b82525050565b60006020820190506120256000830184612001565b92915050565b6002811061203857600080fd5b50565b60008135905061204a8161202b565b92915050565b60006020828403121561206657612065611d4d565b5b60006120748482850161203b565b91505092915050565b60006040820190506120926000830185611dcd565b61209f6020830184611dcd565b9392505050565b6120af81611e17565b82525050565b60006020820190506120ca60008301846120a6565b92915050565b600080604083850312156120e7576120e6611d4d565b5b60006120f58582860161203b565b925050602061210685828601611d78565b9150509250929050565b600081519050919050565b600082825260208201905092915050565b60005b8381101561214a57808201518184015260208101905061212f565b60008484015250505050565b600061216182612110565b61216b818561211b565b935061217b81856020860161212c565b61218481611e5f565b840191505092915050565b600060208201905081810360008301526121a98184612156565b905092915050565b6000602082840312156121c7576121c6611d4d565b5b60006121d584828501611e40565b91505092915050565b600080600080608085870312156121f8576121f7611d4d565b5b600061220687828801611e40565b945050602061221787828801611e40565b935050604061222887828801611e40565b925050606061223987828801611e40565b91505092959194509250565b600060608201905061225a60008301866120a6565b6122676020830185611dcd565b6122746040830184611dcd565b949350505050565b60006060820190506122916000830186611dcd565b61229e60208301856120a6565b6122ab60408301846120a6565b949350505050565b6000815190506122c281611d61565b92915050565b6000602082840312156122de576122dd611d4d565b5b60006122ec848285016122b3565b91505092915050565b7f4e487b7100000000000000000000000000000000000000000000000000000000600052601160045260246000fd5b600061232f82611d57565b915061233a83611d57565b9250828203905081811115612352576123516122f5565b5b92915050565b600061236382611d57565b915061236e83611d57565b925082820261237c81611d57565b91508282048414831517612393576123926122f5565b5b5092915050565b7f4e487b7100000000000000000000000000000000000000000000000000000000600052601260045260246000fd5b60006123d482611d57565b91506123df83611d57565b9250826123ef576123ee61239a565b5b828204905092915050565b600060408201905061240f60008301856120a6565b61241c6020830184611dcd565b9392505050565b60008115159050919050565b61243881612423565b811461244357600080fd5b50565b6000815190506124558161242f565b92915050565b60006020828403121561247157612470611d4d565b5b600061247f84828501612446565b91505092915050565b600060808201905061249d6000830187611dcd565b6124aa6020830186611dcd565b6124b76040830185611dcd565b6124c46060830184611dcd565b95945050505050565b60006060820190506124e260008301866120a6565b6124ef60208301856120a6565b6124fc6040830184611dcd565b949350505050565b60008151905061251381611e29565b92915050565b60006020828403121561252f5761252e611d4d565b5b600061253d84828501612504565b91505092915050565b6000819050919050565b600067ffffffffffffffff82169050919050565b6000819050919050565b600061258961258461257f84612546565b612564565b612550565b9050919050565b6125998161256e565b82525050565b60006020820190506125b46000830184612590565b92915050565b6125c381611ff7565b81146125ce57600080fd5b50565b6000815190506125e0816125ba565b92915050565b6000602082840312156125fc576125fb611d4d565b5b600061260a848285016125d1565b91505092915050565b7f4e487b7100000000000000000000000000000000000000000000000000000000600052602160045260246000fd5b60006040820190506126576000830185611dcd565b61266460208301846120a6565b9392505050565b6002811061267c5761267b612613565b5b50565b600081905061268d8261266b565b919050565b600061269d8261267f565b9050919050565b6126ad81612692565b82525050565b600060329050919050565b600081905092915050565b6000819050919050565b6126dc81611d57565b82525050565b60006126ee83836126d3565b60208301905092915050565b6000602082019050919050565b612710816126b3565b61271a81846126be565b9250612725826126c9565b8060005b8381101561275657815161273d87826126e2565b9650612748836126fa565b925050600181019050612729565b505050505050565b6106608201600082015161277560008501826126a4565b5060208201516127886020850182612707565b50505050565b60006106a0820190506127a460008301866120a6565b6127b16020830185611dcd565b6127be604083018461275e565b949350505050565b6127cf81612692565b82525050565b60006060820190506127ea6000830186611dcd565b6127f76020830185611dcd565b61280460408301846127c6565b949350505050565b600081519050919050565b600081905092915050565b600061282d8261280c565b6128378185612817565b935061284781856020860161212c565b80840191505092915050565b600061285f8284612822565b91508190509291505056fea264697066735822122018835cf35ad57b95a80dec627f1704009775f26c74c9bb011a52287d60b35dee64736f6c634300081c0033",
  "linkReferences": {},
  "deployedLinkReferences": {}
}