{
  "_format": "hh-sol-artifact-1",
  "contractName": "SToken",
  "sourceName": "contracts/tokens/sToken.sol",
  "abi": [
    {
      "inputs": [],
      "stateMutability": "nonpayable",
      "type": "constructor"
    },
    {
      "inputs": [],
      "name": "AccessControlBadConfirmation",
      "type": "error"
    },
    {
      "inputs": [
        {
          "internalType": "address",
          "name": "account",
          "type": "address"
        },
        {
          "internalType": "bytes32",
          "name": "neededRole",
          "type": "bytes32"
        }
      ],
      "name": "AccessControlUnauthorizedAccount",
      "type": "error"
    },
    {
      "inputs": [
        {
          "internalType": "address",
          "name": "target",
          "type": "address"
        }
      ],
      "name": "AddressEmptyCode",
      "type": "error"
    },
    {
      "inputs": [
        {
          "internalType": "address",
          "name": "sender",
          "type": "address"
        },
        {
          "internalType": "uint256",
          "name": "balance",
          "type": "uint256"
        },
        {
          "internalType": "uint256",
          "name": "needed",
          "type": "uint256"
        },
        {
          "internalType": "uint256",
          "name": "tokenId",
          "type": "uint256"
        }
      ],
      "name": "ERC1155InsufficientBalance",
      "type": "error"
    },
    {
      "inputs": [
        {
          "internalType": "address",
          "name": "approver",
          "type": "address"
        }
      ],
      "name": "ERC1155InvalidApprover",
      "type": "error"
    },
    {
      "inputs": [
        {
          "internalType": "uint256",
          "name": "idsLength",
          "type": "uint256"
        },
        {
          "internalType": "uint256",
          "name": "valuesLength",
          "type": "uint256"
        }
      ],
      "name": "ERC1155InvalidArrayLength",
      "type": "error"
    },
    {
      "inputs": [
        {
          "internalType": "address",
          "name": "operator",
          "type": "address"
        }
      ],
      "name": "ERC1155InvalidOperator",
      "type": "error"
    },
    {
      "inputs": [
        {
          "internalType": "address",
          "name": "receiver",
          "type": "address"
        }
      ],
      "name": "ERC1155InvalidReceiver",
      "type": "error"
    },
    {
      "inputs": [
        {
          "internalType": "address",
          "name": "sender",
          "type": "address"
        }
      ],
      "name": "ERC1155InvalidSender",
      "type": "error"
    },
    {
      "inputs": [
        {
          "internalType": "address",
          "name": "operator",
          "type": "address"
        },
        {
          "internalType": "address",
          "name": "owner",
          "type": "address"
        }
      ],
      "name": "ERC1155MissingApprovalForAll",
      "type": "error"
    },
    {
      "inputs": [
        {
          "internalType": "address",
          "name": "implementation",
          "type": "address"
        }
      ],
      "name": "ERC1967InvalidImplementation",
      "type": "error"
    },
    {
      "inputs": [],
      "name": "ERC1967NonPayable",
      "type": "error"
    },
    {
      "inputs": [],
      "name": "FailedCall",
      "type": "error"
    },
    {
      "inputs": [],
      "name": "InvalidInitialization",
      "type": "error"
    },
    {
      "inputs": [
        {
          "internalType": "uint256",
          "name": "amount",
          "type": "uint256"
        }
      ],
      "name": "MustTransferAllSFTAmount",
      "type": "error"
    },
    {
      "inputs": [],
      "name": "NotInitializing",
      "type": "error"
    },
    {
      "inputs": [
        {
          "internalType": "address",
          "name": "owner",
          "type": "address"
        }
      ],
      "name": "OwnableInvalidOwner",
      "type": "error"
    },
    {
      "inputs": [
        {
          "internalType": "address",
          "name": "account",
          "type": "address"
        }
      ],
      "name": "OwnableUnauthorizedAccount",
      "type": "error"
    },
    {
      "inputs": [],
      "name": "UUPSUnauthorizedCallContext",
      "type": "error"
    },
    {
      "inputs": [
        {
          "internalType": "bytes32",
          "name": "slot",
          "type": "bytes32"
        }
      ],
      "name": "UUPSUnsupportedProxiableUUID",
      "type": "error"
    },
    {
      "inputs": [
        {
          "internalType": "uint256",
          "name": "nonce",
          "type": "uint256"
        },
        {
          "internalType": "address",
          "name": "from",
          "type": "address"
        },
        {
          "internalType": "address",
          "name": "to",
          "type": "address"
        },
        {
          "internalType": "address",
          "name": "caller",
          "type": "address"
        }
      ],
      "name": "UnAuthorizedSFTTransfer",
      "type": "error"
    },
    {
      "anonymous": false,
      "inputs": [
        {
          "indexed": true,
          "internalType": "address",
          "name": "account",
          "type": "address"
        },
        {
          "indexed": true,
          "internalType": "address",
          "name": "operator",
          "type": "address"
        },
        {
          "indexed": false,
          "internalType": "bool",
          "name": "approved",
          "type": "bool"
        }
      ],
      "name": "ApprovalForAll",
      "type": "event"
    },
    {
      "anonymous": false,
      "inputs": [
        {
          "indexed": false,
          "internalType": "uint64",
          "name": "version",
          "type": "uint64"
        }
      ],
      "name": "Initialized",
      "type": "event"
    },
    {
      "anonymous": false,
      "inputs": [
        {
          "indexed": true,
          "internalType": "address",
          "name": "previousOwner",
          "type": "address"
        },
        {
          "indexed": true,
          "internalType": "address",
          "name": "newOwner",
          "type": "address"
        }
      ],
      "name": "OwnershipTransferred",
      "type": "event"
    },
    {
      "anonymous": false,
      "inputs": [
        {
          "indexed": true,
          "internalType": "bytes32",
          "name": "role",
          "type": "bytes32"
        },
        {
          "indexed": true,
          "internalType": "bytes32",
          "name": "previousAdminRole",
          "type": "bytes32"
        },
        {
          "indexed": true,
          "internalType": "bytes32",
          "name": "newAdminRole",
          "type": "bytes32"
        }
      ],
      "name": "RoleAdminChanged",
      "type": "event"
    },
    {
      "anonymous": false,
      "inputs": [
        {
          "indexed": true,
          "internalType": "bytes32",
          "name": "role",
          "type": "bytes32"
        },
        {
          "indexed": true,
          "internalType": "address",
          "name": "account",
          "type": "address"
        },
        {
          "indexed": true,
          "internalType": "address",
          "name": "sender",
          "type": "address"
        }
      ],
      "name": "RoleGranted",
      "type": "event"
    },
    {
      "anonymous": false,
      "inputs": [
        {
          "indexed": true,
          "internalType": "bytes32",
          "name": "role",
          "type": "bytes32"
        },
        {
          "indexed": true,
          "internalType": "address",
          "name": "account",
          "type": "address"
        },
        {
          "indexed": true,
          "internalType": "address",
          "name": "sender",
          "type": "address"
        }
      ],
      "name": "RoleRevoked",
      "type": "event"
    },
    {
      "anonymous": false,
      "inputs": [
        {
          "indexed": true,
          "internalType": "address",
          "name": "operator",
          "type": "address"
        },
        {
          "indexed": true,
          "internalType": "address",
          "name": "from",
          "type": "address"
        },
        {
          "indexed": true,
          "internalType": "address",
          "name": "to",
          "type": "address"
        },
        {
          "indexed": false,
          "internalType": "uint256[]",
          "name": "ids",
          "type": "uint256[]"
        },
        {
          "indexed": false,
          "internalType": "uint256[]",
          "name": "values",
          "type": "uint256[]"
        }
      ],
      "name": "TransferBatch",
      "type": "event"
    },
    {
      "anonymous": false,
      "inputs": [
        {
          "indexed": true,
          "internalType": "address",
          "name": "operator",
          "type": "address"
        },
        {
          "indexed": true,
          "internalType": "address",
          "name": "from",
          "type": "address"
        },
        {
          "indexed": true,
          "internalType": "address",
          "name": "to",
          "type": "address"
        },
        {
          "indexed": false,
          "internalType": "uint256",
          "name": "id",
          "type": "uint256"
        },
        {
          "indexed": false,
          "internalType": "uint256",
          "name": "value",
          "type": "uint256"
        }
      ],
      "name": "TransferSingle",
      "type": "event"
    },
    {
      "anonymous": false,
      "inputs": [
        {
          "indexed": false,
          "internalType": "string",
          "name": "value",
          "type": "string"
        },
        {
          "indexed": true,
          "internalType": "uint256",
          "name": "id",
          "type": "uint256"
        }
      ],
      "name": "URI",
      "type": "event"
    },
    {
      "anonymous": false,
      "inputs": [
        {
          "indexed": true,
          "internalType": "address",
          "name": "implementation",
          "type": "address"
        }
      ],
      "name": "Upgraded",
      "type": "event"
    },
    {
      "inputs": [],
      "name": "DEFAULT_ADMIN_ROLE",
      "outputs": [
        {
          "internalType": "bytes32",
          "name": "",
          "type": "bytes32"
        }
      ],
      "stateMutability": "view",
      "type": "function"
    },
    {
      "inputs": [],
      "name": "MINTER_ROLE",
      "outputs": [
        {
          "internalType": "bytes32",
          "name": "",
          "type": "bytes32"
        }
      ],
      "stateMutability": "view",
      "type": "function"
    },
    {
      "inputs": [],
      "name": "TRANSFER_ROLE",
      "outputs": [
        {
          "internalType": "bytes32",
          "name": "",
          "type": "bytes32"
        }
      ],
      "stateMutability": "view",
      "type": "function"
    },
    {
      "inputs": [],
      "name": "UPGRADE_INTERFACE_VERSION",
      "outputs": [
        {
          "internalType": "string",
          "name": "",
          "type": "string"
        }
      ],
      "stateMutability": "view",
      "type": "function"
    },
    {
      "inputs": [
        {
          "internalType": "string",
          "name": "name_",
          "type": "string"
        },
        {
          "internalType": "string",
          "name": "symbol_",
          "type": "string"
        },
        {
          "internalType": "address",
          "name": "admin",
          "type": "address"
        }
      ],
      "name": "__SFT_init",
      "outputs": [],
      "stateMutability": "nonpayable",
      "type": "function"
    },
    {
      "inputs": [
        {
          "internalType": "address",
          "name": "account",
          "type": "address"
        },
        {
          "internalType": "uint256",
          "name": "id",
          "type": "uint256"
        }
      ],
      "name": "balanceOf",
      "outputs": [
        {
          "internalType": "uint256",
          "name": "",
          "type": "uint256"
        }
      ],
      "stateMutability": "view",
      "type": "function"
    },
    {
      "inputs": [
        {
          "internalType": "address[]",
          "name": "accounts",
          "type": "address[]"
        },
        {
          "internalType": "uint256[]",
          "name": "ids",
          "type": "uint256[]"
        }
      ],
      "name": "balanceOfBatch",
      "outputs": [
        {
          "internalType": "uint256[]",
          "name": "",
          "type": "uint256[]"
        }
      ],
      "stateMutability": "view",
      "type": "function"
    },
    {
      "inputs": [],
      "name": "decimals",
      "outputs": [
        {
          "internalType": "uint8",
          "name": "",
          "type": "uint8"
        }
      ],
      "stateMutability": "view",
      "type": "function"
    },
    {
      "inputs": [
        {
          "internalType": "address",
          "name": "owner",
          "type": "address"
        }
      ],
      "name": "getNonces",
      "outputs": [
        {
          "internalType": "uint256[]",
          "name": "",
          "type": "uint256[]"
        }
      ],
      "stateMutability": "view",
      "type": "function"
    },
    {
      "inputs": [
        {
          "internalType": "bytes32",
          "name": "role",
          "type": "bytes32"
        }
      ],
      "name": "getRoleAdmin",
      "outputs": [
        {
          "internalType": "bytes32",
          "name": "",
          "type": "bytes32"
        }
      ],
      "stateMutability": "view",
      "type": "function"
    },
    {
      "inputs": [
        {
          "internalType": "bytes32",
          "name": "role",
          "type": "bytes32"
        },
        {
          "internalType": "address",
          "name": "account",
          "type": "address"
        }
      ],
      "name": "grantRole",
      "outputs": [],
      "stateMutability": "nonpayable",
      "type": "function"
    },
    {
      "inputs": [
        {
          "internalType": "bytes32",
          "name": "role",
          "type": "bytes32"
        },
        {
          "internalType": "address",
          "name": "account",
          "type": "address"
        }
      ],
      "name": "hasRole",
      "outputs": [
        {
          "internalType": "bool",
          "name": "",
          "type": "bool"
        }
      ],
      "stateMutability": "view",
      "type": "function"
    },
    {
      "inputs": [
        {
          "internalType": "string",
          "name": "name",
          "type": "string"
        },
        {
          "internalType": "string",
          "name": "symbol",
          "type": "string"
        },
        {
          "internalType": "address",
          "name": "owner",
          "type": "address"
        }
      ],
      "name": "initialize",
      "outputs": [],
      "stateMutability": "nonpayable",
      "type": "function"
    },
    {
      "inputs": [
        {
          "internalType": "address",
          "name": "account",
          "type": "address"
        },
        {
          "internalType": "address",
          "name": "operator",
          "type": "address"
        }
      ],
      "name": "isApprovedForAll",
      "outputs": [
        {
          "internalType": "bool",
          "name": "",
          "type": "bool"
        }
      ],
      "stateMutability": "view",
      "type": "function"
    },
    {
      "inputs": [],
      "name": "name",
      "outputs": [
        {
          "internalType": "string",
          "name": "",
          "type": "string"
        }
      ],
      "stateMutability": "view",
      "type": "function"
    },
    {
      "inputs": [],
      "name": "owner",
      "outputs": [
        {
          "internalType": "address",
          "name": "",
          "type": "address"
        }
      ],
      "stateMutability": "view",
      "type": "function"
    },
    {
      "inputs": [],
      "name": "proxiableUUID",
      "outputs": [
        {
          "internalType": "bytes32",
          "name": "",
          "type": "bytes32"
        }
      ],
      "stateMutability": "view",
      "type": "function"
    },
    {
      "inputs": [],
      "name": "renounceOwnership",
      "outputs": [],
      "stateMutability": "nonpayable",
      "type": "function"
    },
    {
      "inputs": [
        {
          "internalType": "bytes32",
          "name": "role",
          "type": "bytes32"
        },
        {
          "internalType": "address",
          "name": "callerConfirmation",
          "type": "address"
        }
      ],
      "name": "renounceRole",
      "outputs": [],
      "stateMutability": "nonpayable",
      "type": "function"
    },
    {
      "inputs": [
        {
          "internalType": "bytes32",
          "name": "role",
          "type": "bytes32"
        },
        {
          "internalType": "address",
          "name": "account",
          "type": "address"
        }
      ],
      "name": "revokeRole",
      "outputs": [],
      "stateMutability": "nonpayable",
      "type": "function"
    },
    {
      "inputs": [
        {
          "internalType": "address",
          "name": "from",
          "type": "address"
        },
        {
          "internalType": "uint256",
          "name": "nonce",
          "type": "uint256"
        },
        {
          "internalType": "uint256",
          "name": "amount",
          "type": "uint256"
        }
      ],
      "name": "sTokenBurn",
      "outputs": [],
      "stateMutability": "nonpayable",
      "type": "function"
    },
    {
      "inputs": [
        {
          "internalType": "address",
          "name": "to",
          "type": "address"
        },
        {
          "internalType": "uint256",
          "name": "amount",
          "type": "uint256"
        },
        {
          "components": [
            {
              "internalType": "enum ISToken.TokenType",
              "name": "tokenType",
              "type": "uint8"
            },
            {
              "internalType": "uint256[50]",
              "name": "__gap",
              "type": "uint256[50]"
            }
          ],
          "internalType": "struct ISToken.TokenAttributes",
          "name": "attributes",
          "type": "tuple"
        }
      ],
      "name": "sTokenMint",
      "outputs": [
        {
          "internalType": "uint256",
          "name": "nonce",
          "type": "uint256"
        }
      ],
      "stateMutability": "nonpayable",
      "type": "function"
    },
    {
      "inputs": [
        {
          "internalType": "address",
          "name": "from",
          "type": "address"
        },
        {
          "internalType": "address",
          "name": "to",
          "type": "address"
        },
        {
          "internalType": "uint256[]",
          "name": "ids",
          "type": "uint256[]"
        },
        {
          "internalType": "uint256[]",
          "name": "values",
          "type": "uint256[]"
        },
        {
          "internalType": "bytes",
          "name": "data",
          "type": "bytes"
        }
      ],
      "name": "safeBatchTransferFrom",
      "outputs": [],
      "stateMutability": "nonpayable",
      "type": "function"
    },
    {
      "inputs": [
        {
          "internalType": "address",
          "name": "from",
          "type": "address"
        },
        {
          "internalType": "address",
          "name": "to",
          "type": "address"
        },
        {
          "internalType": "uint256",
          "name": "id",
          "type": "uint256"
        },
        {
          "internalType": "uint256",
          "name": "value",
          "type": "uint256"
        },
        {
          "internalType": "bytes",
          "name": "data",
          "type": "bytes"
        }
      ],
      "name": "safeTransferFrom",
      "outputs": [],
      "stateMutability": "nonpayable",
      "type": "function"
    },
    {
      "inputs": [
        {
          "internalType": "address",
          "name": "operator",
          "type": "address"
        },
        {
          "internalType": "bool",
          "name": "approved",
          "type": "bool"
        }
      ],
      "name": "setApprovalForAll",
      "outputs": [],
      "stateMutability": "nonpayable",
      "type": "function"
    },
    {
      "inputs": [
        {
          "internalType": "bytes4",
          "name": "interfaceId",
          "type": "bytes4"
        }
      ],
      "name": "supportsInterface",
      "outputs": [
        {
          "internalType": "bool",
          "name": "",
          "type": "bool"
        }
      ],
      "stateMutability": "view",
      "type": "function"
    },
    {
      "inputs": [],
      "name": "symbol",
      "outputs": [
        {
          "internalType": "string",
          "name": "",
          "type": "string"
        }
      ],
      "stateMutability": "view",
      "type": "function"
    },
    {
      "inputs": [],
      "name": "totalSupply",
      "outputs": [
        {
          "internalType": "uint256",
          "name": "",
          "type": "uint256"
        }
      ],
      "stateMutability": "view",
      "type": "function"
    },
    {
      "inputs": [
        {
          "internalType": "address",
          "name": "newOwner",
          "type": "address"
        }
      ],
      "name": "transferOwnership",
      "outputs": [],
      "stateMutability": "nonpayable",
      "type": "function"
    },
    {
      "inputs": [
        {
          "internalType": "address",
          "name": "newImplementation",
          "type": "address"
        },
        {
          "internalType": "bytes",
          "name": "data",
          "type": "bytes"
        }
      ],
      "name": "upgradeToAndCall",
      "outputs": [],
      "stateMutability": "payable",
      "type": "function"
    },
    {
      "inputs": [
        {
          "internalType": "uint256",
          "name": "",
          "type": "uint256"
        }
      ],
      "name": "uri",
      "outputs": [
        {
          "internalType": "string",
          "name": "",
          "type": "string"
        }
      ],
      "stateMutability": "view",
      "type": "function"
    }
  ],
  "bytecode": "0x60a06040523073ffffffffffffffffffffffffffffffffffffffff1660809073ffffffffffffffffffffffffffffffffffffffff1681525034801561004357600080fd5b5061005261005760201b60201c565b6101de565b600061006761015b60201b60201c565b90508060000160089054906101000a900460ff16156100b2576040517ff92ee8a900000000000000000000000000000000000000000000000000000000815260040160405180910390fd5b67ffffffffffffffff80168160000160009054906101000a900467ffffffffffffffff1667ffffffffffffffff16146101585767ffffffffffffffff8160000160006101000a81548167ffffffffffffffff021916908367ffffffffffffffff1602179055507fc7f505b2f371ae2175ee4913f4499e1f2633a7b5936321eed1cdaeb6115181d267ffffffffffffffff60405161014f91906101c3565b60405180910390a15b50565b60008061016c61017560201b60201c565b90508091505090565b60007ff0c57e16840df040f15088dc2f81fe391c3923bec73e23a9662efc9c229c6a0060001b905090565b600067ffffffffffffffff82169050919050565b6101bd816101a0565b82525050565b60006020820190506101d860008301846101b4565b92915050565b608051614e90610207600039600081816117db015281816118300152611a0c0152614e906000f3fe6080604052600436106101d75760003560e01c80635124ae9511610102578063ab16332a11610095578063e985e9c511610064578063e985e9c5146106c4578063ee638ee514610701578063f242432a1461072a578063f2fde38b14610753576101d7565b8063ab16332a14610608578063ad3cb1cc14610645578063d539139314610670578063d547741f1461069b576101d7565b806391d14854116100d157806391d148541461054c57806395d89b4114610589578063a217fddf146105b4578063a22cb465146105df576101d7565b80635124ae95146104a257806352d1902d146104df578063715018a61461050a5780638da5cb5b14610521576101d7565b8063206b60f91161017a578063313ce56711610149578063313ce567146103f557806336568abe146104205780634e1273f4146104495780634f1ef28614610486576101d7565b8063206b60f91461033b578063248a9ca3146103665780632eb2c2d6146103a35780632f2ff15d146103cc576101d7565b806306fdde03116101b657806306fdde031461027f578063077f224a146102aa5780630e89341c146102d357806318160ddd14610310576101d7565b8062fdd58e146101dc57806301ffc9a714610219578063023e14b214610256575b600080fd5b3480156101e857600080fd5b5061020360048036038101906101fe919061361f565b61077c565b604051610210919061366e565b60405180910390f35b34801561022557600080fd5b50610240600480360381019061023b91906136e1565b6107e5565b60405161024d9190613729565b60405180910390f35b34801561026257600080fd5b5061027d6004803603810190610278919061388a565b6107f7565b005b34801561028b57600080fd5b50610294610863565b6040516102a19190613994565b60405180910390f35b3480156102b657600080fd5b506102d160048036038101906102cc919061388a565b6108fe565b005b3480156102df57600080fd5b506102fa60048036038101906102f591906139b6565b610aa2565b6040516103079190613994565b60405180910390f35b34801561031c57600080fd5b50610325610b45565b604051610332919061366e565b60405180910390f35b34801561034757600080fd5b50610350610b58565b60405161035d91906139fc565b60405180910390f35b34801561037257600080fd5b5061038d60048036038101906103889190613a43565b610b7c565b60405161039a91906139fc565b60405180910390f35b3480156103af57600080fd5b506103ca60048036038101906103c59190613bd9565b610baa565b005b3480156103d857600080fd5b506103f360048036038101906103ee9190613ca8565b610c52565b005b34801561040157600080fd5b5061040a610c74565b6040516104179190613d04565b60405180910390f35b34801561042c57600080fd5b5061044760048036038101906104429190613ca8565b610c7d565b005b34801561045557600080fd5b50610470600480360381019061046b9190613de2565b610cf8565b60405161047d9190613f18565b60405180910390f35b6104a0600480360381019061049b9190613f3a565b610e01565b005b3480156104ae57600080fd5b506104c960048036038101906104c49190613f96565b610e20565b6040516104d69190613f18565b60405180910390f35b3480156104eb57600080fd5b506104f4610e79565b60405161050191906139fc565b60405180910390f35b34801561051657600080fd5b5061051f610eac565b005b34801561052d57600080fd5b50610536610ec0565b6040516105439190613fd2565b60405180910390f35b34801561055857600080fd5b50610573600480360381019061056e9190613ca8565b610ef8565b6040516105809190613729565b60405180910390f35b34801561059557600080fd5b5061059e610f71565b6040516105ab9190613994565b60405180910390f35b3480156105c057600080fd5b506105c961100c565b6040516105d691906139fc565b60405180910390f35b3480156105eb57600080fd5b5061060660048036038101906106019190614019565b611013565b005b34801561061457600080fd5b5061062f600480360381019061062a9190614185565b611029565b60405161063c919061366e565b60405180910390f35b34801561065157600080fd5b5061065a611089565b6040516106679190613994565b60405180910390f35b34801561067c57600080fd5b506106856110c2565b60405161069291906139fc565b60405180910390f35b3480156106a757600080fd5b506106c260048036038101906106bd9190613ca8565b6110e6565b005b3480156106d057600080fd5b506106eb60048036038101906106e691906141d9565b611108565b6040516106f89190613729565b60405180910390f35b34801561070d57600080fd5b5061072860048036038101906107239190614219565b6111aa565b005b34801561073657600080fd5b50610751600480360381019061074c919061426c565b6111e5565b005b34801561075f57600080fd5b5061077a60048036038101906107759190613f96565b61128d565b005b600080610787611313565b905080600001600084815260200190815260200160002060008573ffffffffffffffffffffffffffffffffffffffff1673ffffffffffffffffffffffffffffffffffffffff1681526020019081526020016000205491505092915050565b60006107f08261133b565b9050919050565b6107ff6113b5565b610817604051806020016040528060008152506113f5565b61081f611409565b61082c6000801b82611413565b506000610837611514565b90508381600001908161084a919061450f565b508281600101908161085c919061450f565b5050505050565b606061086d611514565b600001805461087b90614332565b80601f01602080910402602001604051908101604052809291908181526020018280546108a790614332565b80156108f45780601f106108c9576101008083540402835291602001916108f4565b820191906000526020600020905b8154815290600101906020018083116108d757829003601f168201915b5050505050905090565b6000610908611541565b905060008160000160089054906101000a900460ff1615905060008260000160009054906101000a900467ffffffffffffffff1690506000808267ffffffffffffffff161480156109565750825b9050600060018367ffffffffffffffff1614801561098b575060003073ffffffffffffffffffffffffffffffffffffffff163b145b905081158015610999575080155b156109d0576040517ff92ee8a900000000000000000000000000000000000000000000000000000000815260040160405180910390fd5b60018560000160006101000a81548167ffffffffffffffff021916908367ffffffffffffffff1602179055508315610a205760018560000160086101000a81548160ff0219169083151502179055505b610a2b8888886107f7565b610a3486611555565b610a3c611569565b8315610a985760008560000160086101000a81548160ff0219169083151502179055507fc7f505b2f371ae2175ee4913f4499e1f2633a7b5936321eed1cdaeb6115181d26001604051610a8f9190614630565b60405180910390a15b5050505050505050565b60606000610aae611313565b9050806002018054610abf90614332565b80601f0160208091040260200160405190810160405280929190818152602001828054610aeb90614332565b8015610b385780601f10610b0d57610100808354040283529160200191610b38565b820191906000526020600020905b815481529060010190602001808311610b1b57829003601f168201915b5050505050915050919050565b6000610b4f611514565b60030154905090565b7f8502233096d909befbda0999bb8ea2f3a6be3c138b9fbf003752a4c8bce86f6c81565b600080610b87611573565b905080600001600084815260200190815260200160002060010154915050919050565b6000610bb461159b565b90508073ffffffffffffffffffffffffffffffffffffffff168673ffffffffffffffffffffffffffffffffffffffff1614158015610bf95750610bf78682611108565b155b15610c3d5780866040517fe237d922000000000000000000000000000000000000000000000000000000008152600401610c3492919061464b565b60405180910390fd5b610c4a86868686866115a3565b505050505050565b610c5b82610b7c565b610c648161169b565b610c6e8383611413565b50505050565b60006012905090565b610c8561159b565b73ffffffffffffffffffffffffffffffffffffffff168173ffffffffffffffffffffffffffffffffffffffff1614610ce9576040517f6697b23200000000000000000000000000000000000000000000000000000000815260040160405180910390fd5b610cf382826116af565b505050565b60608151835114610d4457815183516040517f5b059991000000000000000000000000000000000000000000000000000000008152600401610d3b929190614674565b60405180910390fd5b6000835167ffffffffffffffff811115610d6157610d6061375f565b5b604051908082528060200260200182016040528015610d8f5781602001602082028036833780820191505090505b50905060005b8451811015610df657610dcc610db482876117b190919063ffffffff16565b610dc783876117c590919063ffffffff16565b61077c565b828281518110610ddf57610dde61469d565b5b602002602001018181525050806001019050610d95565b508091505092915050565b610e096117d9565b610e12826118bf565b610e1c82826118ca565b5050565b6060610e72610e2d611514565b60040160008473ffffffffffffffffffffffffffffffffffffffff1673ffffffffffffffffffffffffffffffffffffffff1681526020019081526020016000206119e9565b9050919050565b6000610e83611a0a565b7f360894a13ba1a3210667c828492db98dca3e2076cc3735a920a3ca505d382bbc60001b905090565b610eb4611a91565b610ebe6000611b18565b565b600080610ecb611bef565b90508060000160009054906101000a900473ffffffffffffffffffffffffffffffffffffffff1691505090565b600080610f03611573565b905080600001600085815260200190815260200160002060000160008473ffffffffffffffffffffffffffffffffffffffff1673ffffffffffffffffffffffffffffffffffffffff16815260200190815260200160002060009054906101000a900460ff1691505092915050565b6060610f7b611514565b6001018054610f8990614332565b80601f0160208091040260200160405190810160405280929190818152602001828054610fb590614332565b80156110025780601f10610fd757610100808354040283529160200191611002565b820191906000526020600020905b815481529060010190602001808311610fe557829003601f168201915b5050505050905090565b6000801b81565b61102561101e61159b565b8383611c17565b5050565b60007f9f2df0fed2c77648de5860a4cc508cd0818c85b8b8a1ab4ceeef8d981c8956a66110558161169b565b61107f85858560405160200161106b91906147f7565b604051602081830303815290604052611d96565b9150509392505050565b6040518060400160405280600581526020017f352e302e3000000000000000000000000000000000000000000000000000000081525081565b7f9f2df0fed2c77648de5860a4cc508cd0818c85b8b8a1ab4ceeef8d981c8956a681565b6110ef82610b7c565b6110f88161169b565b61110283836116af565b50505050565b600080611113611313565b90508060010160008573ffffffffffffffffffffffffffffffffffffffff1673ffffffffffffffffffffffffffffffffffffffff16815260200190815260200160002060008473ffffffffffffffffffffffffffffffffffffffff1673ffffffffffffffffffffffffffffffffffffffff16815260200190815260200160002060009054906101000a900460ff1691505092915050565b7f9f2df0fed2c77648de5860a4cc508cd0818c85b8b8a1ab4ceeef8d981c8956a66111d48161169b565b6111df848484611e02565b50505050565b60006111ef61159b565b90508073ffffffffffffffffffffffffffffffffffffffff168673ffffffffffffffffffffffffffffffffffffffff161415801561123457506112328682611108565b155b156112785780866040517fe237d92200000000000000000000000000000000000000000000000000000000815260040161126f92919061464b565b60405180910390fd5b6112858686868686611ea9565b505050505050565b611295611a91565b600073ffffffffffffffffffffffffffffffffffffffff168173ffffffffffffffffffffffffffffffffffffffff16036113075760006040517f1e4fbdf70000000000000000000000000000000000000000000000000000000081526004016112fe9190613fd2565b60405180910390fd5b61131081611b18565b50565b60007f88be536d5240c274a3b1d3a1be54482fd9caa294f08c62a7cde569f49a3c4500905090565b60007f7965db0b000000000000000000000000000000000000000000000000000000007bffffffffffffffffffffffffffffffffffffffffffffffffffffffff1916827bffffffffffffffffffffffffffffffffffffffffffffffffffffffff191614806113ae57506113ad82611fb4565b5b9050919050565b6113bd612096565b6113f3576040517fd7e6bcf800000000000000000000000000000000000000000000000000000000815260040160405180910390fd5b565b6113fd6113b5565b611406816120b6565b50565b6114116113b5565b565b60008061141e611573565b905061142a8484610ef8565b61150857600181600001600086815260200190815260200160002060000160008573ffffffffffffffffffffffffffffffffffffffff1673ffffffffffffffffffffffffffffffffffffffff16815260200190815260200160002060006101000a81548160ff0219169083151502179055506114a461159b565b73ffffffffffffffffffffffffffffffffffffffff168373ffffffffffffffffffffffffffffffffffffffff16857f2f8788117e7eff1d82e926ec794901d17c78024a50270940304540a733656f0d60405160405180910390a4600191505061150e565b60009150505b92915050565b6000807ff00a5058366b86747d29ad17ea432d1ed21cd147ec92233cefecce191eb5f5a390508091505090565b60008061154c6120ca565b90508091505090565b61155d6113b5565b611566816120f5565b50565b6115716113b5565b565b60007f02dd7bc7dec4dceedda775e58dd541e08a116c6c53815c0bd028192f7b626800905090565b600033905090565b600073ffffffffffffffffffffffffffffffffffffffff168473ffffffffffffffffffffffffffffffffffffffff16036116155760006040517f57f447ce00000000000000000000000000000000000000000000000000000000815260040161160c9190613fd2565b60405180910390fd5b600073ffffffffffffffffffffffffffffffffffffffff168573ffffffffffffffffffffffffffffffffffffffff16036116875760006040517f01a8351400000000000000000000000000000000000000000000000000000000815260040161167e9190613fd2565b60405180910390fd5b611694858585858561217b565b5050505050565b6116ac816116a761159b565b61222d565b50565b6000806116ba611573565b90506116c68484610ef8565b156117a557600081600001600086815260200190815260200160002060000160008573ffffffffffffffffffffffffffffffffffffffff1673ffffffffffffffffffffffffffffffffffffffff16815260200190815260200160002060006101000a81548160ff02191690831515021790555061174161159b565b73ffffffffffffffffffffffffffffffffffffffff168373ffffffffffffffffffffffffffffffffffffffff16857ff6391f5c32d9c69d2a47ea670b442974b53935d1edc7fd64eb21e047a839171b60405160405180910390a460019150506117ab565b60009150505b92915050565b600060208202602084010151905092915050565b600060208202602084010151905092915050565b7f000000000000000000000000000000000000000000000000000000000000000073ffffffffffffffffffffffffffffffffffffffff163073ffffffffffffffffffffffffffffffffffffffff16148061188657507f000000000000000000000000000000000000000000000000000000000000000073ffffffffffffffffffffffffffffffffffffffff1661186d61227e565b73ffffffffffffffffffffffffffffffffffffffff1614155b156118bd576040517fe07c8dba00000000000000000000000000000000000000000000000000000000815260040160405180910390fd5b565b6118c7611a91565b50565b8173ffffffffffffffffffffffffffffffffffffffff166352d1902d6040518163ffffffff1660e01b8152600401602060405180830381865afa92505050801561193257506040513d601f19601f8201168201806040525081019061192f9190614828565b60015b61197357816040517f4c9c8ce300000000000000000000000000000000000000000000000000000000815260040161196a9190613fd2565b60405180910390fd5b7f360894a13ba1a3210667c828492db98dca3e2076cc3735a920a3ca505d382bbc60001b81146119da57806040517faa1d49a40000000000000000000000000000000000000000000000000000000081526004016119d191906139fc565b60405180910390fd5b6119e483836122d5565b505050565b606060006119f983600001612348565b905060608190508092505050919050565b7f000000000000000000000000000000000000000000000000000000000000000073ffffffffffffffffffffffffffffffffffffffff163073ffffffffffffffffffffffffffffffffffffffff1614611a8f576040517fe07c8dba00000000000000000000000000000000000000000000000000000000815260040160405180910390fd5b565b611a9961159b565b73ffffffffffffffffffffffffffffffffffffffff16611ab7610ec0565b73ffffffffffffffffffffffffffffffffffffffff1614611b1657611ada61159b565b6040517f118cdaa7000000000000000000000000000000000000000000000000000000008152600401611b0d9190613fd2565b60405180910390fd5b565b6000611b22611bef565b905060008160000160009054906101000a900473ffffffffffffffffffffffffffffffffffffffff169050828260000160006101000a81548173ffffffffffffffffffffffffffffffffffffffff021916908373ffffffffffffffffffffffffffffffffffffffff1602179055508273ffffffffffffffffffffffffffffffffffffffff168173ffffffffffffffffffffffffffffffffffffffff167f8be0079c531659141344cd1fd0a4f28419497f9722a3daafe3b4186f6b6457e060405160405180910390a3505050565b60007f9016d09d72d40fdae2fd8ceac6b6234c7706214fd39c1cd1e609a0528c199300905090565b6000611c21611313565b9050600073ffffffffffffffffffffffffffffffffffffffff168373ffffffffffffffffffffffffffffffffffffffff1603611c955760006040517fced3e100000000000000000000000000000000000000000000000000000000008152600401611c8c9190613fd2565b60405180910390fd5b818160010160008673ffffffffffffffffffffffffffffffffffffffff1673ffffffffffffffffffffffffffffffffffffffff16815260200190815260200160002060008573ffffffffffffffffffffffffffffffffffffffff1673ffffffffffffffffffffffffffffffffffffffff16815260200190815260200160002060006101000a81548160ff0219169083151502179055508273ffffffffffffffffffffffffffffffffffffffff168473ffffffffffffffffffffffffffffffffffffffff167f17307eab39ab6107e8899845ad3d59bd9653f200f220920489ca2b5937696c3184604051611d889190613729565b60405180910390a350505050565b600080611da1611514565b90508060020160008154611db490614884565b9190508190559150828160050160008481526020019081526020016000209081611dde9190614932565b50611dfa858386604051806020016040528060008152506123a4565b509392505050565b600073ffffffffffffffffffffffffffffffffffffffff168373ffffffffffffffffffffffffffffffffffffffff1603611e745760006040517f01a83514000000000000000000000000000000000000000000000000000000008152600401611e6b9190613fd2565b60405180910390fd5b600080611e81848461243d565b91509150611ea285600084846040518060200160405280600081525061217b565b5050505050565b600073ffffffffffffffffffffffffffffffffffffffff168473ffffffffffffffffffffffffffffffffffffffff1603611f1b5760006040517f57f447ce000000000000000000000000000000000000000000000000000000008152600401611f129190613fd2565b60405180910390fd5b600073ffffffffffffffffffffffffffffffffffffffff168573ffffffffffffffffffffffffffffffffffffffff1603611f8d5760006040517f01a83514000000000000000000000000000000000000000000000000000000008152600401611f849190613fd2565b60405180910390fd5b600080611f9a858561243d565b91509150611fab878784848761217b565b50505050505050565b60007fd9b67a26000000000000000000000000000000000000000000000000000000007bffffffffffffffffffffffffffffffffffffffffffffffffffffffff1916827bffffffffffffffffffffffffffffffffffffffffffffffffffffffff1916148061207f57507f0e89341c000000000000000000000000000000000000000000000000000000007bffffffffffffffffffffffffffffffffffffffffffffffffffffffff1916827bffffffffffffffffffffffffffffffffffffffffffffffffffffffff1916145b8061208f575061208e8261246d565b5b9050919050565b60006120a0611541565b60000160089054906101000a900460ff16905090565b6120be6113b5565b6120c7816124d7565b50565b60007ff0c57e16840df040f15088dc2f81fe391c3923bec73e23a9662efc9c229c6a0060001b905090565b6120fd6113b5565b600073ffffffffffffffffffffffffffffffffffffffff168173ffffffffffffffffffffffffffffffffffffffff160361216f5760006040517f1e4fbdf70000000000000000000000000000000000000000000000000000000081526004016121669190613fd2565b60405180910390fd5b61217881611b18565b50565b612187858585856124f9565b600073ffffffffffffffffffffffffffffffffffffffff168473ffffffffffffffffffffffffffffffffffffffff16146122265760006121c561159b565b905060018451036122155760006121e66000866117c590919063ffffffff16565b905060006121fe6000866117c590919063ffffffff16565b905061220e838989858589612899565b5050612224565b612223818787878787612a4d565b5b505b5050505050565b6122378282610ef8565b61227a5780826040517fe2517d3f000000000000000000000000000000000000000000000000000000008152600401612271929190614a04565b60405180910390fd5b5050565b60006122ac7f360894a13ba1a3210667c828492db98dca3e2076cc3735a920a3ca505d382bbc60001b612c01565b60000160009054906101000a900473ffffffffffffffffffffffffffffffffffffffff16905090565b6122de82612c0b565b8173ffffffffffffffffffffffffffffffffffffffff167fbc7cd75a20ee27fd9adebab32041f755214dbc6bffa90cc0225b39da2e5c2d3b60405160405180910390a260008151111561233b576123358282612cd8565b50612344565b612343612d5c565b5b5050565b60608160000180548060200260200160405190810160405280929190818152602001828054801561239857602002820191906000526020600020905b815481526020019060010190808311612384575b50505050509050919050565b600073ffffffffffffffffffffffffffffffffffffffff168473ffffffffffffffffffffffffffffffffffffffff16036124165760006040517f57f447ce00000000000000000000000000000000000000000000000000000000815260040161240d9190613fd2565b60405180910390fd5b600080612423858561243d565b9150915061243560008784848761217b565b505050505050565b60608060405191506001825283602083015260408201905060018152826020820152604081016040529250929050565b60007f01ffc9a7000000000000000000000000000000000000000000000000000000007bffffffffffffffffffffffffffffffffffffffffffffffffffffffff1916827bffffffffffffffffffffffffffffffffffffffffffffffffffffffff1916149050919050565b60006124e1611313565b9050818160020190816124f4919061450f565b505050565b6000612503611514565b905060005b83518110156128855760008482815181106125265761252561469d565b5b6020026020010151905060008483815181106125455761254461469d565b5b602002602001015190506125f8828989876005016000878152602001908152602001600020805461257590614332565b80601f01602080910402602001604051908101604052809291908181526020018280546125a190614332565b80156125ee5780601f106125c3576101008083540402835291602001916125ee565b820191906000526020600020905b8154815290600101906020018083116125d157829003601f168201915b5050505050612d99565b600073ffffffffffffffffffffffffffffffffffffffff168873ffffffffffffffffffffffffffffffffffffffff16146126d4576000612638898461077c565b905081811461267e57806040517f6e0584b3000000000000000000000000000000000000000000000000000000008152600401612675919061366e565b60405180910390fd5b6126d1838660040160008c73ffffffffffffffffffffffffffffffffffffffff1673ffffffffffffffffffffffffffffffffffffffff168152602001908152602001600020612f0a90919063ffffffff16565b50505b600073ffffffffffffffffffffffffffffffffffffffff168773ffffffffffffffffffffffffffffffffffffffff161461275d5761275b828560040160008a73ffffffffffffffffffffffffffffffffffffffff1673ffffffffffffffffffffffffffffffffffffffff168152602001908152602001600020612f2490919063ffffffff16565b505b600073ffffffffffffffffffffffffffffffffffffffff168873ffffffffffffffffffffffffffffffffffffffff161480156127c65750600073ffffffffffffffffffffffffffffffffffffffff168773ffffffffffffffffffffffffffffffffffffffff1614155b156127eb57808460030160008282546127df9190614a2d565b92505081905550612876565b600073ffffffffffffffffffffffffffffffffffffffff168873ffffffffffffffffffffffffffffffffffffffff16141580156128545750600073ffffffffffffffffffffffffffffffffffffffff168773ffffffffffffffffffffffffffffffffffffffff16145b15612875578084600301600082825461286d9190614a61565b925050819055505b5b50508080600101915050612508565b5061289285858585612f3e565b5050505050565b60008473ffffffffffffffffffffffffffffffffffffffff163b1115612a45578373ffffffffffffffffffffffffffffffffffffffff1663f23a6e6187878686866040518663ffffffff1660e01b81526004016128fa959493929190614adf565b6020604051808303816000875af192505050801561293657506040513d601f19601f820116820180604052508101906129339190614b4e565b60015b6129ba573d8060008114612966576040519150601f19603f3d011682016040523d82523d6000602084013e61296b565b606091505b5060008151036129b257846040517f57f447ce0000000000000000000000000000000000000000000000000000000081526004016129a99190613fd2565b60405180910390fd5b805181602001fd5b63f23a6e6160e01b7bffffffffffffffffffffffffffffffffffffffffffffffffffffffff1916817bffffffffffffffffffffffffffffffffffffffffffffffffffffffff191614612a4357846040517f57f447ce000000000000000000000000000000000000000000000000000000008152600401612a3a9190613fd2565b60405180910390fd5b505b505050505050565b60008473ffffffffffffffffffffffffffffffffffffffff163b1115612bf9578373ffffffffffffffffffffffffffffffffffffffff1663bc197c8187878686866040518663ffffffff1660e01b8152600401612aae959493929190614b7b565b6020604051808303816000875af1925050508015612aea57506040513d601f19601f82011682018060405250810190612ae79190614b4e565b60015b612b6e573d8060008114612b1a576040519150601f19603f3d011682016040523d82523d6000602084013e612b1f565b606091505b506000815103612b6657846040517f57f447ce000000000000000000000000000000000000000000000000000000008152600401612b5d9190613fd2565b60405180910390fd5b805181602001fd5b63bc197c8160e01b7bffffffffffffffffffffffffffffffffffffffffffffffffffffffff1916817bffffffffffffffffffffffffffffffffffffffffffffffffffffffff191614612bf757846040517f57f447ce000000000000000000000000000000000000000000000000000000008152600401612bee9190613fd2565b60405180910390fd5b505b505050505050565b6000819050919050565b60008173ffffffffffffffffffffffffffffffffffffffff163b03612c6757806040517f4c9c8ce3000000000000000000000000000000000000000000000000000000008152600401612c5e9190613fd2565b60405180910390fd5b80612c947f360894a13ba1a3210667c828492db98dca3e2076cc3735a920a3ca505d382bbc60001b612c01565b60000160006101000a81548173ffffffffffffffffffffffffffffffffffffffff021916908373ffffffffffffffffffffffffffffffffffffffff16021790555050565b60606000808473ffffffffffffffffffffffffffffffffffffffff1684604051612d029190614c1f565b600060405180830381855af49150503d8060008114612d3d576040519150601f19603f3d011682016040523d82523d6000602084013e612d42565b606091505b5091509150612d528583836132fc565b9250505092915050565b6000341115612d97576040517fb398979f00000000000000000000000000000000000000000000000000000000815260040160405180910390fd5b565b600081806020019051810190612daf9190614d3c565b905060006001811115612dc557612dc46146cc565b5b81600001516001811115612ddc57612ddb6146cc565b5b14612f03576000612deb61159b565b90506000612e197f9f2df0fed2c77648de5860a4cc508cd0818c85b8b8a1ab4ceeef8d981c8956a683610ef8565b80612e4a5750612e497f8502233096d909befbda0999bb8ea2f3a6be3c138b9fbf003752a4c8bce86f6c83610ef8565b5b90506000612e787f9f2df0fed2c77648de5860a4cc508cd0818c85b8b8a1ab4ceeef8d981c8956a687610ef8565b80612ea95750612ea87f8502233096d909befbda0999bb8ea2f3a6be3c138b9fbf003752a4c8bce86f6c87610ef8565b5b905081158015612eb7575080155b15612eff57878787856040517f4a5a909c000000000000000000000000000000000000000000000000000000008152600401612ef69493929190614d6a565b60405180910390fd5b5050505b5050505050565b6000612f1c836000018360001b61338b565b905092915050565b6000612f36836000018360001b61349f565b905092915050565b6000612f48611313565b90508151835114612f9457825182516040517f5b059991000000000000000000000000000000000000000000000000000000008152600401612f8b929190614674565b60405180910390fd5b6000612f9e61159b565b905060005b84518110156131b6576000612fc182876117c590919063ffffffff16565b90506000612fd883876117c590919063ffffffff16565b9050600073ffffffffffffffffffffffffffffffffffffffff168973ffffffffffffffffffffffffffffffffffffffff161461310b57600085600001600084815260200190815260200160002060008b73ffffffffffffffffffffffffffffffffffffffff1673ffffffffffffffffffffffffffffffffffffffff168152602001908152602001600020549050818110156130b057898183856040517f03dee4c50000000000000000000000000000000000000000000000000000000081526004016130a79493929190614daf565b60405180910390fd5b81810386600001600085815260200190815260200160002060008c73ffffffffffffffffffffffffffffffffffffffff1673ffffffffffffffffffffffffffffffffffffffff16815260200190815260200160002081905550505b600073ffffffffffffffffffffffffffffffffffffffff168873ffffffffffffffffffffffffffffffffffffffff16146131a9578085600001600084815260200190815260200160002060008a73ffffffffffffffffffffffffffffffffffffffff1673ffffffffffffffffffffffffffffffffffffffff16815260200190815260200160002060008282546131a19190614a2d565b925050819055505b5050806001019050612fa3565b5060018451036132755760006131d66000866117c590919063ffffffff16565b905060006131ee6000866117c590919063ffffffff16565b90508673ffffffffffffffffffffffffffffffffffffffff168873ffffffffffffffffffffffffffffffffffffffff168473ffffffffffffffffffffffffffffffffffffffff167fc3d58168c5ae7397731d063d5bbf3d657854427343f4c083240f7aacaa2d0f628585604051613266929190614674565b60405180910390a450506132f4565b8473ffffffffffffffffffffffffffffffffffffffff168673ffffffffffffffffffffffffffffffffffffffff168273ffffffffffffffffffffffffffffffffffffffff167f4a39dc06d4c0dbc64b70af90fd698a233a518aa5d07e595d983b8c0526c8f7fb87876040516132eb929190614df4565b60405180910390a45b505050505050565b6060826133115761330c8261350f565b613383565b60008251148015613339575060008473ffffffffffffffffffffffffffffffffffffffff163b145b1561337b57836040517f9996b3150000000000000000000000000000000000000000000000000000000081526004016133729190613fd2565b60405180910390fd5b819050613384565b5b9392505050565b600080836001016000848152602001908152602001600020549050600081146134935760006001826133bd9190614a61565b90506000600186600001805490506133d59190614a61565b90508082146134445760008660000182815481106133f6576133f561469d565b5b906000526020600020015490508087600001848154811061341a5761341961469d565b5b90600052602060002001819055508387600101600083815260200190815260200160002081905550505b8560000180548061345857613457614e2b565b5b600190038181906000526020600020016000905590558560010160008681526020019081526020016000206000905560019350505050613499565b60009150505b92915050565b60006134ab8383613554565b613504578260000182908060018154018082558091505060019003906000526020600020016000909190919091505582600001805490508360010160008481526020019081526020016000208190555060019050613509565b600090505b92915050565b6000815111156135225780518082602001fd5b6040517fd6bda27500000000000000000000000000000000000000000000000000000000815260040160405180910390fd5b600080836001016000848152602001908152602001600020541415905092915050565b6000604051905090565b600080fd5b600080fd5b600073ffffffffffffffffffffffffffffffffffffffff82169050919050565b60006135b68261358b565b9050919050565b6135c6816135ab565b81146135d157600080fd5b50565b6000813590506135e3816135bd565b92915050565b6000819050919050565b6135fc816135e9565b811461360757600080fd5b50565b600081359050613619816135f3565b92915050565b6000806040838503121561363657613635613581565b5b6000613644858286016135d4565b92505060206136558582860161360a565b9150509250929050565b613668816135e9565b82525050565b6000602082019050613683600083018461365f565b92915050565b60007fffffffff0000000000000000000000000000000000000000000000000000000082169050919050565b6136be81613689565b81146136c957600080fd5b50565b6000813590506136db816136b5565b92915050565b6000602082840312156136f7576136f6613581565b5b6000613705848285016136cc565b91505092915050565b60008115159050919050565b6137238161370e565b82525050565b600060208201905061373e600083018461371a565b92915050565b600080fd5b600080fd5b6000601f19601f8301169050919050565b7f4e487b7100000000000000000000000000000000000000000000000000000000600052604160045260246000fd5b6137978261374e565b810181811067ffffffffffffffff821117156137b6576137b561375f565b5b80604052505050565b60006137c9613577565b90506137d5828261378e565b919050565b600067ffffffffffffffff8211156137f5576137f461375f565b5b6137fe8261374e565b9050602081019050919050565b82818337600083830152505050565b600061382d613828846137da565b6137bf565b90508281526020810184848401111561384957613848613749565b5b61385484828561380b565b509392505050565b600082601f83011261387157613870613744565b5b813561388184826020860161381a565b91505092915050565b6000806000606084860312156138a3576138a2613581565b5b600084013567ffffffffffffffff8111156138c1576138c0613586565b5b6138cd8682870161385c565b935050602084013567ffffffffffffffff8111156138ee576138ed613586565b5b6138fa8682870161385c565b925050604061390b868287016135d4565b9150509250925092565b600081519050919050565b600082825260208201905092915050565b60005b8381101561394f578082015181840152602081019050613934565b60008484015250505050565b600061396682613915565b6139708185613920565b9350613980818560208601613931565b6139898161374e565b840191505092915050565b600060208201905081810360008301526139ae818461395b565b905092915050565b6000602082840312156139cc576139cb613581565b5b60006139da8482850161360a565b91505092915050565b6000819050919050565b6139f6816139e3565b82525050565b6000602082019050613a1160008301846139ed565b92915050565b613a20816139e3565b8114613a2b57600080fd5b50565b600081359050613a3d81613a17565b92915050565b600060208284031215613a5957613a58613581565b5b6000613a6784828501613a2e565b91505092915050565b600067ffffffffffffffff821115613a8b57613a8a61375f565b5b602082029050602081019050919050565b600080fd5b6000613ab4613aaf84613a70565b6137bf565b90508083825260208201905060208402830185811115613ad757613ad6613a9c565b5b835b81811015613b005780613aec888261360a565b845260208401935050602081019050613ad9565b5050509392505050565b600082601f830112613b1f57613b1e613744565b5b8135613b2f848260208601613aa1565b91505092915050565b600067ffffffffffffffff821115613b5357613b5261375f565b5b613b5c8261374e565b9050602081019050919050565b6000613b7c613b7784613b38565b6137bf565b905082815260208101848484011115613b9857613b97613749565b5b613ba384828561380b565b509392505050565b600082601f830112613bc057613bbf613744565b5b8135613bd0848260208601613b69565b91505092915050565b600080600080600060a08688031215613bf557613bf4613581565b5b6000613c03888289016135d4565b9550506020613c14888289016135d4565b945050604086013567ffffffffffffffff811115613c3557613c34613586565b5b613c4188828901613b0a565b935050606086013567ffffffffffffffff811115613c6257613c61613586565b5b613c6e88828901613b0a565b925050608086013567ffffffffffffffff811115613c8f57613c8e613586565b5b613c9b88828901613bab565b9150509295509295909350565b60008060408385031215613cbf57613cbe613581565b5b6000613ccd85828601613a2e565b9250506020613cde858286016135d4565b9150509250929050565b600060ff82169050919050565b613cfe81613ce8565b82525050565b6000602082019050613d196000830184613cf5565b92915050565b600067ffffffffffffffff821115613d3a57613d3961375f565b5b602082029050602081019050919050565b6000613d5e613d5984613d1f565b6137bf565b90508083825260208201905060208402830185811115613d8157613d80613a9c565b5b835b81811015613daa5780613d9688826135d4565b845260208401935050602081019050613d83565b5050509392505050565b600082601f830112613dc957613dc8613744565b5b8135613dd9848260208601613d4b565b91505092915050565b60008060408385031215613df957613df8613581565b5b600083013567ffffffffffffffff811115613e1757613e16613586565b5b613e2385828601613db4565b925050602083013567ffffffffffffffff811115613e4457613e43613586565b5b613e5085828601613b0a565b9150509250929050565b600081519050919050565b600082825260208201905092915050565b6000819050602082019050919050565b613e8f816135e9565b82525050565b6000613ea18383613e86565b60208301905092915050565b6000602082019050919050565b6000613ec582613e5a565b613ecf8185613e65565b9350613eda83613e76565b8060005b83811015613f0b578151613ef28882613e95565b9750613efd83613ead565b925050600181019050613ede565b5085935050505092915050565b60006020820190508181036000830152613f328184613eba565b905092915050565b60008060408385031215613f5157613f50613581565b5b6000613f5f858286016135d4565b925050602083013567ffffffffffffffff811115613f8057613f7f613586565b5b613f8c85828601613bab565b9150509250929050565b600060208284031215613fac57613fab613581565b5b6000613fba848285016135d4565b91505092915050565b613fcc816135ab565b82525050565b6000602082019050613fe76000830184613fc3565b92915050565b613ff68161370e565b811461400157600080fd5b50565b60008135905061401381613fed565b92915050565b600080604083850312156140305761402f613581565b5b600061403e858286016135d4565b925050602061404f85828601614004565b9150509250929050565b600080fd5b6002811061406b57600080fd5b50565b60008135905061407d8161405e565b92915050565b600067ffffffffffffffff82111561409e5761409d61375f565b5b602082029050919050565b60006140bc6140b784614083565b6137bf565b905080602084028301858111156140d6576140d5613a9c565b5b835b818110156140ff57806140eb888261360a565b8452602084019350506020810190506140d8565b5050509392505050565b600082601f83011261411e5761411d613744565b5b603261412b8482856140a9565b91505092915050565b6000610660828403121561414b5761414a614059565b5b61415560406137bf565b905060006141658482850161406e565b600083015250602061417984828501614109565b60208301525092915050565b60008060006106a0848603121561419f5761419e613581565b5b60006141ad868287016135d4565b93505060206141be8682870161360a565b92505060406141cf86828701614134565b9150509250925092565b600080604083850312156141f0576141ef613581565b5b60006141fe858286016135d4565b925050602061420f858286016135d4565b9150509250929050565b60008060006060848603121561423257614231613581565b5b6000614240868287016135d4565b93505060206142518682870161360a565b92505060406142628682870161360a565b9150509250925092565b600080600080600060a0868803121561428857614287613581565b5b6000614296888289016135d4565b95505060206142a7888289016135d4565b94505060406142b88882890161360a565b93505060606142c98882890161360a565b925050608086013567ffffffffffffffff8111156142ea576142e9613586565b5b6142f688828901613bab565b9150509295509295909350565b7f4e487b7100000000000000000000000000000000000000000000000000000000600052602260045260246000fd5b6000600282049050600182168061434a57607f821691505b60208210810361435d5761435c614303565b5b50919050565b60008190508160005260206000209050919050565b60006020601f8301049050919050565b600082821b905092915050565b6000600883026143c57fffffffffffffffffffffffffffffffffffffffffffffffffffffffffffffffff82614388565b6143cf8683614388565b95508019841693508086168417925050509392505050565b6000819050919050565b600061440c614407614402846135e9565b6143e7565b6135e9565b9050919050565b6000819050919050565b614426836143f1565b61443a61443282614413565b848454614395565b825550505050565b600090565b61444f614442565b61445a81848461441d565b505050565b5b8181101561447e57614473600082614447565b600181019050614460565b5050565b601f8211156144c35761449481614363565b61449d84614378565b810160208510156144ac578190505b6144c06144b885614378565b83018261445f565b50505b505050565b600082821c905092915050565b60006144e6600019846008026144c8565b1980831691505092915050565b60006144ff83836144d5565b9150826002028217905092915050565b61451882613915565b67ffffffffffffffff8111156145315761453061375f565b5b61453b8254614332565b614546828285614482565b600060209050601f8311600181146145795760008415614567578287015190505b61457185826144f3565b8655506145d9565b601f19841661458786614363565b60005b828110156145af5784890151825560018201915060208501945060208101905061458a565b868310156145cc57848901516145c8601f8916826144d5565b8355505b6001600288020188555050505b505050505050565b6000819050919050565b600067ffffffffffffffff82169050919050565b600061461a614615614610846145e1565b6143e7565b6145eb565b9050919050565b61462a816145ff565b82525050565b60006020820190506146456000830184614621565b92915050565b60006040820190506146606000830185613fc3565b61466d6020830184613fc3565b9392505050565b6000604082019050614689600083018561365f565b614696602083018461365f565b9392505050565b7f4e487b7100000000000000000000000000000000000000000000000000000000600052603260045260246000fd5b7f4e487b7100000000000000000000000000000000000000000000000000000000600052602160045260246000fd5b6002811061470c5761470b6146cc565b5b50565b600081905061471d826146fb565b919050565b600061472d8261470f565b9050919050565b61473d81614722565b82525050565b600060329050919050565b600081905092915050565b6000819050919050565b6000602082019050919050565b61477981614743565b614783818461474e565b925061478e82614759565b8060005b838110156147bf5781516147a68782613e95565b96506147b183614763565b925050600181019050614792565b505050505050565b610660820160008201516147de6000850182614734565b5060208201516147f16020850182614770565b50505050565b60006106608201905061480d60008301846147c7565b92915050565b60008151905061482281613a17565b92915050565b60006020828403121561483e5761483d613581565b5b600061484c84828501614813565b91505092915050565b7f4e487b7100000000000000000000000000000000000000000000000000000000600052601160045260246000fd5b600061488f826135e9565b91507fffffffffffffffffffffffffffffffffffffffffffffffffffffffffffffffff82036148c1576148c0614855565b5b600182019050919050565b600081519050919050565b60008190508160005260206000209050919050565b601f82111561492d576148fe816148d7565b61490784614378565b81016020851015614916578190505b61492a61492285614378565b83018261445f565b50505b505050565b61493b826148cc565b67ffffffffffffffff8111156149545761495361375f565b5b61495e8254614332565b6149698282856148ec565b600060209050601f83116001811461499c576000841561498a578287015190505b61499485826144f3565b8655506149fc565b601f1984166149aa866148d7565b60005b828110156149d2578489015182556001820191506020850194506020810190506149ad565b868310156149ef57848901516149eb601f8916826144d5565b8355505b6001600288020188555050505b505050505050565b6000604082019050614a196000830185613fc3565b614a2660208301846139ed565b9392505050565b6000614a38826135e9565b9150614a43836135e9565b9250828201905080821115614a5b57614a5a614855565b5b92915050565b6000614a6c826135e9565b9150614a77836135e9565b9250828203905081811115614a8f57614a8e614855565b5b92915050565b600082825260208201905092915050565b6000614ab1826148cc565b614abb8185614a95565b9350614acb818560208601613931565b614ad48161374e565b840191505092915050565b600060a082019050614af46000830188613fc3565b614b016020830187613fc3565b614b0e604083018661365f565b614b1b606083018561365f565b8181036080830152614b2d8184614aa6565b90509695505050505050565b600081519050614b48816136b5565b92915050565b600060208284031215614b6457614b63613581565b5b6000614b7284828501614b39565b91505092915050565b600060a082019050614b906000830188613fc3565b614b9d6020830187613fc3565b8181036040830152614baf8186613eba565b90508181036060830152614bc38185613eba565b90508181036080830152614bd78184614aa6565b90509695505050505050565b600081905092915050565b6000614bf9826148cc565b614c038185614be3565b9350614c13818560208601613931565b80840191505092915050565b6000614c2b8284614bee565b915081905092915050565b600081519050614c458161405e565b92915050565b600081519050614c5a816135f3565b92915050565b6000614c73614c6e84614083565b6137bf565b90508060208402830185811115614c8d57614c8c613a9c565b5b835b81811015614cb65780614ca28882614c4b565b845260208401935050602081019050614c8f565b5050509392505050565b600082601f830112614cd557614cd4613744565b5b6032614ce2848285614c60565b91505092915050565b60006106608284031215614d0257614d01614059565b5b614d0c60406137bf565b90506000614d1c84828501614c36565b6000830152506020614d3084828501614cc0565b60208301525092915050565b60006106608284031215614d5357614d52613581565b5b6000614d6184828501614ceb565b91505092915050565b6000608082019050614d7f600083018761365f565b614d8c6020830186613fc3565b614d996040830185613fc3565b614da66060830184613fc3565b95945050505050565b6000608082019050614dc46000830187613fc3565b614dd1602083018661365f565b614dde604083018561365f565b614deb606083018461365f565b95945050505050565b60006040820190508181036000830152614e0e8185613eba565b90508181036020830152614e228184613eba565b90509392505050565b7f4e487b7100000000000000000000000000000000000000000000000000000000600052603160045260246000fdfea2646970667358221220cfe888d3074c5bf0fd4e4c4e1baafb7d16f71eff6bd09e614ba1c505311775c664736f6c634300081c0033",
  "linkReferences": {},
  "deployedLinkReferences": {}
}