{
  "_format": "hh-sol-artifact-1",
  "contractName": "YLDToken",
  "sourceName": "contracts/tokens/YLDToken.sol",
  "abi": [
    {
      "inputs": [],
      "stateMutability": "nonpayable",
      "type": "constructor"
    },
    {
      "inputs": [],
      "name": "AccessControlBadConfirmation",
      "type": "error"
    },
    {
      "inputs": [
        {
          "internalType": "address",
          "name": "account",
          "type": "address"
        },
        {
          "internalType": "bytes32",
          "name": "neededRole",
          "type": "bytes32"
        }
      ],
      "name": "AccessControlUnauthorizedAccount",
      "type": "error"
    },
    {
      "inputs": [
        {
          "internalType": "address",
          "name": "target",
          "type": "address"
        }
      ],
      "name": "AddressEmptyCode",
      "type": "error"
    },
    {
      "inputs": [
        {
          "internalType": "address",
          "name": "implementation",
          "type": "address"
        }
      ],
      "name": "ERC1967InvalidImplementation",
      "type": "error"
    },
    {
      "inputs": [],
      "name": "ERC1967NonPayable",
      "type": "error"
    },
    {
      "inputs": [
        {
          "internalType": "address",
          "name": "spender",
          "type": "address"
        },
        {
          "internalType": "uint256",
          "name": "allowance",
          "type": "uint256"
        },
        {
          "internalType": "uint256",
          "name": "needed",
          "type": "uint256"
        }
      ],
      "name": "ERC20InsufficientAllowance",
      "type": "error"
    },
    {
      "inputs": [
        {
          "internalType": "address",
          "name": "sender",
          "type": "address"
        },
        {
          "internalType": "uint256",
          "name": "balance",
          "type": "uint256"
        },
        {
          "internalType": "uint256",
          "name": "needed",
          "type": "uint256"
        }
      ],
      "name": "ERC20InsufficientBalance",
      "type": "error"
    },
    {
      "inputs": [
        {
          "internalType": "address",
          "name": "approver",
          "type": "address"
        }
      ],
      "name": "ERC20InvalidApprover",
      "type": "error"
    },
    {
      "inputs": [
        {
          "internalType": "address",
          "name": "receiver",
          "type": "address"
        }
      ],
      "name": "ERC20InvalidReceiver",
      "type": "error"
    },
    {
      "inputs": [
        {
          "internalType": "address",
          "name": "sender",
          "type": "address"
        }
      ],
      "name": "ERC20InvalidSender",
      "type": "error"
    },
    {
      "inputs": [
        {
          "internalType": "address",
          "name": "spender",
          "type": "address"
        }
      ],
      "name": "ERC20InvalidSpender",
      "type": "error"
    },
    {
      "inputs": [
        {
          "internalType": "address",
          "name": "receiver",
          "type": "address"
        },
        {
          "internalType": "uint256",
          "name": "assets",
          "type": "uint256"
        },
        {
          "internalType": "uint256",
          "name": "max",
          "type": "uint256"
        }
      ],
      "name": "ERC4626ExceededMaxDeposit",
      "type": "error"
    },
    {
      "inputs": [
        {
          "internalType": "address",
          "name": "receiver",
          "type": "address"
        },
        {
          "internalType": "uint256",
          "name": "shares",
          "type": "uint256"
        },
        {
          "internalType": "uint256",
          "name": "max",
          "type": "uint256"
        }
      ],
      "name": "ERC4626ExceededMaxMint",
      "type": "error"
    },
    {
      "inputs": [
        {
          "internalType": "address",
          "name": "owner",
          "type": "address"
        },
        {
          "internalType": "uint256",
          "name": "shares",
          "type": "uint256"
        },
        {
          "internalType": "uint256",
          "name": "max",
          "type": "uint256"
        }
      ],
      "name": "ERC4626ExceededMaxRedeem",
      "type": "error"
    },
    {
      "inputs": [
        {
          "internalType": "address",
          "name": "owner",
          "type": "address"
        },
        {
          "internalType": "uint256",
          "name": "assets",
          "type": "uint256"
        },
        {
          "internalType": "uint256",
          "name": "max",
          "type": "uint256"
        }
      ],
      "name": "ERC4626ExceededMaxWithdraw",
      "type": "error"
    },
    {
      "inputs": [],
      "name": "FailedCall",
      "type": "error"
    },
    {
      "inputs": [],
      "name": "InvalidInitialization",
      "type": "error"
    },
    {
      "inputs": [],
      "name": "NotInitializing",
      "type": "error"
    },
    {
      "inputs": [
        {
          "internalType": "address",
          "name": "owner",
          "type": "address"
        }
      ],
      "name": "OwnableInvalidOwner",
      "type": "error"
    },
    {
      "inputs": [
        {
          "internalType": "address",
          "name": "account",
          "type": "address"
        }
      ],
      "name": "OwnableUnauthorizedAccount",
      "type": "error"
    },
    {
      "inputs": [
        {
          "internalType": "address",
          "name": "token",
          "type": "address"
        }
      ],
      "name": "SafeERC20FailedOperation",
      "type": "error"
    },
    {
      "inputs": [],
      "name": "UUPSUnauthorizedCallContext",
      "type": "error"
    },
    {
      "inputs": [
        {
          "internalType": "bytes32",
          "name": "slot",
          "type": "bytes32"
        }
      ],
      "name": "UUPSUnsupportedProxiableUUID",
      "type": "error"
    },
    {
      "anonymous": false,
      "inputs": [
        {
          "indexed": true,
          "internalType": "address",
          "name": "owner",
          "type": "address"
        },
        {
          "indexed": true,
          "internalType": "address",
          "name": "spender",
          "type": "address"
        },
        {
          "indexed": false,
          "internalType": "uint256",
          "name": "value",
          "type": "uint256"
        }
      ],
      "name": "Approval",
      "type": "event"
    },
    {
      "anonymous": false,
      "inputs": [
        {
          "indexed": true,
          "internalType": "address",
          "name": "sender",
          "type": "address"
        },
        {
          "indexed": true,
          "internalType": "address",
          "name": "owner",
          "type": "address"
        },
        {
          "indexed": false,
          "internalType": "uint256",
          "name": "assets",
          "type": "uint256"
        },
        {
          "indexed": false,
          "internalType": "uint256",
          "name": "shares",
          "type": "uint256"
        }
      ],
      "name": "Deposit",
      "type": "event"
    },
    {
      "anonymous": false,
      "inputs": [
        {
          "indexed": false,
          "internalType": "uint64",
          "name": "version",
          "type": "uint64"
        }
      ],
      "name": "Initialized",
      "type": "event"
    },
    {
      "anonymous": false,
      "inputs": [
        {
          "indexed": true,
          "internalType": "address",
          "name": "previousOwner",
          "type": "address"
        },
        {
          "indexed": true,
          "internalType": "address",
          "name": "newOwner",
          "type": "address"
        }
      ],
      "name": "OwnershipTransferred",
      "type": "event"
    },
    {
      "anonymous": false,
      "inputs": [
        {
          "indexed": true,
          "internalType": "bytes32",
          "name": "role",
          "type": "bytes32"
        },
        {
          "indexed": true,
          "internalType": "bytes32",
          "name": "previousAdminRole",
          "type": "bytes32"
        },
        {
          "indexed": true,
          "internalType": "bytes32",
          "name": "newAdminRole",
          "type": "bytes32"
        }
      ],
      "name": "RoleAdminChanged",
      "type": "event"
    },
    {
      "anonymous": false,
      "inputs": [
        {
          "indexed": true,
          "internalType": "bytes32",
          "name": "role",
          "type": "bytes32"
        },
        {
          "indexed": true,
          "internalType": "address",
          "name": "account",
          "type": "address"
        },
        {
          "indexed": true,
          "internalType": "address",
          "name": "sender",
          "type": "address"
        }
      ],
      "name": "RoleGranted",
      "type": "event"
    },
    {
      "anonymous": false,
      "inputs": [
        {
          "indexed": true,
          "internalType": "bytes32",
          "name": "role",
          "type": "bytes32"
        },
        {
          "indexed": true,
          "internalType": "address",
          "name": "account",
          "type": "address"
        },
        {
          "indexed": true,
          "internalType": "address",
          "name": "sender",
          "type": "address"
        }
      ],
      "name": "RoleRevoked",
      "type": "event"
    },
    {
      "anonymous": false,
      "inputs": [
        {
          "indexed": true,
          "internalType": "address",
          "name": "from",
          "type": "address"
        },
        {
          "indexed": true,
          "internalType": "address",
          "name": "to",
          "type": "address"
        },
        {
          "indexed": false,
          "internalType": "uint256",
          "name": "value",
          "type": "uint256"
        }
      ],
      "name": "Transfer",
      "type": "event"
    },
    {
      "anonymous": false,
      "inputs": [
        {
          "indexed": true,
          "internalType": "address",
          "name": "implementation",
          "type": "address"
        }
      ],
      "name": "Upgraded",
      "type": "event"
    },
    {
      "anonymous": false,
      "inputs": [
        {
          "indexed": true,
          "internalType": "address",
          "name": "sender",
          "type": "address"
        },
        {
          "indexed": true,
          "internalType": "address",
          "name": "receiver",
          "type": "address"
        },
        {
          "indexed": true,
          "internalType": "address",
          "name": "owner",
          "type": "address"
        },
        {
          "indexed": false,
          "internalType": "uint256",
          "name": "assets",
          "type": "uint256"
        },
        {
          "indexed": false,
          "internalType": "uint256",
          "name": "shares",
          "type": "uint256"
        }
      ],
      "name": "Withdraw",
      "type": "event"
    },
    {
      "inputs": [],
      "name": "DEFAULT_ADMIN_ROLE",
      "outputs": [
        {
          "internalType": "bytes32",
          "name": "",
          "type": "bytes32"
        }
      ],
      "stateMutability": "view",
      "type": "function"
    },
    {
      "inputs": [],
      "name": "MINTER_ROLE",
      "outputs": [
        {
          "internalType": "bytes32",
          "name": "",
          "type": "bytes32"
        }
      ],
      "stateMutability": "view",
      "type": "function"
    },
    {
      "inputs": [],
      "name": "UPGRADE_INTERFACE_VERSION",
      "outputs": [
        {
          "internalType": "string",
          "name": "",
          "type": "string"
        }
      ],
      "stateMutability": "view",
      "type": "function"
    },
    {
      "inputs": [
        {
          "internalType": "address",
          "name": "owner",
          "type": "address"
        },
        {
          "internalType": "address",
          "name": "spender",
          "type": "address"
        }
      ],
      "name": "allowance",
      "outputs": [
        {
          "internalType": "uint256",
          "name": "",
          "type": "uint256"
        }
      ],
      "stateMutability": "view",
      "type": "function"
    },
    {
      "inputs": [
        {
          "internalType": "address",
          "name": "spender",
          "type": "address"
        },
        {
          "internalType": "uint256",
          "name": "value",
          "type": "uint256"
        }
      ],
      "name": "approve",
      "outputs": [
        {
          "internalType": "bool",
          "name": "",
          "type": "bool"
        }
      ],
      "stateMutability": "nonpayable",
      "type": "function"
    },
    {
      "inputs": [],
      "name": "asset",
      "outputs": [
        {
          "internalType": "address",
          "name": "",
          "type": "address"
        }
      ],
      "stateMutability": "view",
      "type": "function"
    },
    {
      "inputs": [
        {
          "internalType": "address",
          "name": "account",
          "type": "address"
        }
      ],
      "name": "balanceOf",
      "outputs": [
        {
          "internalType": "uint256",
          "name": "",
          "type": "uint256"
        }
      ],
      "stateMutability": "view",
      "type": "function"
    },
    {
      "inputs": [
        {
          "internalType": "uint256",
          "name": "shares",
          "type": "uint256"
        }
      ],
      "name": "convertToAssets",
      "outputs": [
        {
          "internalType": "uint256",
          "name": "",
          "type": "uint256"
        }
      ],
      "stateMutability": "view",
      "type": "function"
    },
    {
      "inputs": [
        {
          "internalType": "uint256",
          "name": "assets",
          "type": "uint256"
        }
      ],
      "name": "convertToShares",
      "outputs": [
        {
          "internalType": "uint256",
          "name": "",
          "type": "uint256"
        }
      ],
      "stateMutability": "view",
      "type": "function"
    },
    {
      "inputs": [],
      "name": "decimals",
      "outputs": [
        {
          "internalType": "uint8",
          "name": "",
          "type": "uint8"
        }
      ],
      "stateMutability": "view",
      "type": "function"
    },
    {
      "inputs": [
        {
          "internalType": "uint256",
          "name": "assets",
          "type": "uint256"
        },
        {
          "internalType": "address",
          "name": "receiver",
          "type": "address"
        }
      ],
      "name": "deposit",
      "outputs": [
        {
          "internalType": "uint256",
          "name": "",
          "type": "uint256"
        }
      ],
      "stateMutability": "nonpayable",
      "type": "function"
    },
    {
      "inputs": [
        {
          "internalType": "bytes32",
          "name": "role",
          "type": "bytes32"
        }
      ],
      "name": "getRoleAdmin",
      "outputs": [
        {
          "internalType": "bytes32",
          "name": "",
          "type": "bytes32"
        }
      ],
      "stateMutability": "view",
      "type": "function"
    },
    {
      "inputs": [
        {
          "internalType": "bytes32",
          "name": "role",
          "type": "bytes32"
        },
        {
          "internalType": "address",
          "name": "account",
          "type": "address"
        }
      ],
      "name": "grantRole",
      "outputs": [],
      "stateMutability": "nonpayable",
      "type": "function"
    },
    {
      "inputs": [
        {
          "internalType": "bytes32",
          "name": "role",
          "type": "bytes32"
        },
        {
          "internalType": "address",
          "name": "account",
          "type": "address"
        }
      ],
      "name": "hasRole",
      "outputs": [
        {
          "internalType": "bool",
          "name": "",
          "type": "bool"
        }
      ],
      "stateMutability": "view",
      "type": "function"
    },
    {
      "inputs": [
        {
          "internalType": "string",
          "name": "name",
          "type": "string"
        },
        {
          "internalType": "string",
          "name": "symbol",
          "type": "string"
        },
        {
          "internalType": "address",
          "name": "initialOwner",
          "type": "address"
        },
        {
          "internalType": "contract IERC20",
          "name": "asset",
          "type": "address"
        }
      ],
      "name": "initialize",
      "outputs": [],
      "stateMutability": "nonpayable",
      "type": "function"
    },
    {
      "inputs": [
        {
          "internalType": "address",
          "name": "",
          "type": "address"
        }
      ],
      "name": "maxDeposit",
      "outputs": [
        {
          "internalType": "uint256",
          "name": "",
          "type": "uint256"
        }
      ],
      "stateMutability": "view",
      "type": "function"
    },
    {
      "inputs": [
        {
          "internalType": "address",
          "name": "",
          "type": "address"
        }
      ],
      "name": "maxMint",
      "outputs": [
        {
          "internalType": "uint256",
          "name": "",
          "type": "uint256"
        }
      ],
      "stateMutability": "view",
      "type": "function"
    },
    {
      "inputs": [
        {
          "internalType": "address",
          "name": "owner",
          "type": "address"
        }
      ],
      "name": "maxRedeem",
      "outputs": [
        {
          "internalType": "uint256",
          "name": "",
          "type": "uint256"
        }
      ],
      "stateMutability": "view",
      "type": "function"
    },
    {
      "inputs": [
        {
          "internalType": "address",
          "name": "owner",
          "type": "address"
        }
      ],
      "name": "maxWithdraw",
      "outputs": [
        {
          "internalType": "uint256",
          "name": "",
          "type": "uint256"
        }
      ],
      "stateMutability": "view",
      "type": "function"
    },
    {
      "inputs": [
        {
          "internalType": "uint256",
          "name": "shares",
          "type": "uint256"
        },
        {
          "internalType": "address",
          "name": "receiver",
          "type": "address"
        }
      ],
      "name": "mint",
      "outputs": [
        {
          "internalType": "uint256",
          "name": "",
          "type": "uint256"
        }
      ],
      "stateMutability": "nonpayable",
      "type": "function"
    },
    {
      "inputs": [],
      "name": "name",
      "outputs": [
        {
          "internalType": "string",
          "name": "",
          "type": "string"
        }
      ],
      "stateMutability": "view",
      "type": "function"
    },
    {
      "inputs": [],
      "name": "owner",
      "outputs": [
        {
          "internalType": "address",
          "name": "",
          "type": "address"
        }
      ],
      "stateMutability": "view",
      "type": "function"
    },
    {
      "inputs": [
        {
          "internalType": "uint256",
          "name": "assets",
          "type": "uint256"
        }
      ],
      "name": "previewDeposit",
      "outputs": [
        {
          "internalType": "uint256",
          "name": "",
          "type": "uint256"
        }
      ],
      "stateMutability": "view",
      "type": "function"
    },
    {
      "inputs": [
        {
          "internalType": "uint256",
          "name": "shares",
          "type": "uint256"
        }
      ],
      "name": "previewMint",
      "outputs": [
        {
          "internalType": "uint256",
          "name": "",
          "type": "uint256"
        }
      ],
      "stateMutability": "view",
      "type": "function"
    },
    {
      "inputs": [
        {
          "internalType": "uint256",
          "name": "shares",
          "type": "uint256"
        }
      ],
      "name": "previewRedeem",
      "outputs": [
        {
          "internalType": "uint256",
          "name": "",
          "type": "uint256"
        }
      ],
      "stateMutability": "view",
      "type": "function"
    },
    {
      "inputs": [
        {
          "internalType": "uint256",
          "name": "assets",
          "type": "uint256"
        }
      ],
      "name": "previewWithdraw",
      "outputs": [
        {
          "internalType": "uint256",
          "name": "",
          "type": "uint256"
        }
      ],
      "stateMutability": "view",
      "type": "function"
    },
    {
      "inputs": [],
      "name": "proxiableUUID",
      "outputs": [
        {
          "internalType": "bytes32",
          "name": "",
          "type": "bytes32"
        }
      ],
      "stateMutability": "view",
      "type": "function"
    },
    {
      "inputs": [
        {
          "internalType": "uint256",
          "name": "shares",
          "type": "uint256"
        },
        {
          "internalType": "address",
          "name": "receiver",
          "type": "address"
        },
        {
          "internalType": "address",
          "name": "owner",
          "type": "address"
        }
      ],
      "name": "redeem",
      "outputs": [
        {
          "internalType": "uint256",
          "name": "",
          "type": "uint256"
        }
      ],
      "stateMutability": "nonpayable",
      "type": "function"
    },
    {
      "inputs": [],
      "name": "renounceOwnership",
      "outputs": [],
      "stateMutability": "nonpayable",
      "type": "function"
    },
    {
      "inputs": [
        {
          "internalType": "bytes32",
          "name": "role",
          "type": "bytes32"
        },
        {
          "internalType": "address",
          "name": "callerConfirmation",
          "type": "address"
        }
      ],
      "name": "renounceRole",
      "outputs": [],
      "stateMutability": "nonpayable",
      "type": "function"
    },
    {
      "inputs": [
        {
          "internalType": "bytes32",
          "name": "role",
          "type": "bytes32"
        },
        {
          "internalType": "address",
          "name": "account",
          "type": "address"
        }
      ],
      "name": "revokeRole",
      "outputs": [],
      "stateMutability": "nonpayable",
      "type": "function"
    },
    {
      "inputs": [
        {
          "internalType": "bytes4",
          "name": "interfaceId",
          "type": "bytes4"
        }
      ],
      "name": "supportsInterface",
      "outputs": [
        {
          "internalType": "bool",
          "name": "",
          "type": "bool"
        }
      ],
      "stateMutability": "view",
      "type": "function"
    },
    {
      "inputs": [],
      "name": "symbol",
      "outputs": [
        {
          "internalType": "string",
          "name": "",
          "type": "string"
        }
      ],
      "stateMutability": "view",
      "type": "function"
    },
    {
      "inputs": [],
      "name": "totalAssets",
      "outputs": [
        {
          "internalType": "uint256",
          "name": "",
          "type": "uint256"
        }
      ],
      "stateMutability": "view",
      "type": "function"
    },
    {
      "inputs": [],
      "name": "totalSupply",
      "outputs": [
        {
          "internalType": "uint256",
          "name": "",
          "type": "uint256"
        }
      ],
      "stateMutability": "view",
      "type": "function"
    },
    {
      "inputs": [
        {
          "internalType": "address",
          "name": "to",
          "type": "address"
        },
        {
          "internalType": "uint256",
          "name": "value",
          "type": "uint256"
        }
      ],
      "name": "transfer",
      "outputs": [
        {
          "internalType": "bool",
          "name": "",
          "type": "bool"
        }
      ],
      "stateMutability": "nonpayable",
      "type": "function"
    },
    {
      "inputs": [
        {
          "internalType": "address",
          "name": "from",
          "type": "address"
        },
        {
          "internalType": "address",
          "name": "to",
          "type": "address"
        },
        {
          "internalType": "uint256",
          "name": "value",
          "type": "uint256"
        }
      ],
      "name": "transferFrom",
      "outputs": [
        {
          "internalType": "bool",
          "name": "",
          "type": "bool"
        }
      ],
      "stateMutability": "nonpayable",
      "type": "function"
    },
    {
      "inputs": [
        {
          "internalType": "address",
          "name": "newOwner",
          "type": "address"
        }
      ],
      "name": "transferOwnership",
      "outputs": [],
      "stateMutability": "nonpayable",
      "type": "function"
    },
    {
      "inputs": [
        {
          "internalType": "address",
          "name": "newImplementation",
          "type": "address"
        },
        {
          "internalType": "bytes",
          "name": "data",
          "type": "bytes"
        }
      ],
      "name": "upgradeToAndCall",
      "outputs": [],
      "stateMutability": "payable",
      "type": "function"
    },
    {
      "inputs": [
        {
          "internalType": "uint256",
          "name": "assets",
          "type": "uint256"
        },
        {
          "internalType": "address",
          "name": "receiver",
          "type": "address"
        },
        {
          "internalType": "address",
          "name": "owner",
          "type": "address"
        }
      ],
      "name": "withdraw",
      "outputs": [
        {
          "internalType": "uint256",
          "name": "",
          "type": "uint256"
        }
      ],
      "stateMutability": "nonpayable",
      "type": "function"
    }
  ],
  "bytecode": "0x60a06040523073ffffffffffffffffffffffffffffffffffffffff1660809073ffffffffffffffffffffffffffffffffffffffff1681525034801561004357600080fd5b5061005261005760201b60201c565b6101de565b600061006761015b60201b60201c565b90508060000160089054906101000a900460ff16156100b2576040517ff92ee8a900000000000000000000000000000000000000000000000000000000815260040160405180910390fd5b67ffffffffffffffff80168160000160009054906101000a900467ffffffffffffffff1667ffffffffffffffff16146101585767ffffffffffffffff8160000160006101000a81548167ffffffffffffffff021916908367ffffffffffffffff1602179055507fc7f505b2f371ae2175ee4913f4499e1f2633a7b5936321eed1cdaeb6115181d267ffffffffffffffff60405161014f91906101c3565b60405180910390a15b50565b60008061016c61017560201b60201c565b90508091505090565b60007ff0c57e16840df040f15088dc2f81fe391c3923bec73e23a9662efc9c229c6a0060001b905090565b600067ffffffffffffffff82169050919050565b6101bd816101a0565b82525050565b60006020820190506101d860008301846101b4565b92915050565b60805161412461020760003960008181611b8f01528181611be40152611d9f01526141246000f3fe60806040526004361061023b5760003560e01c80638da5cb5b1161012e578063ba087652116100ab578063d547741f1161006f578063d547741f1461094e578063d905777e14610977578063dd62ed3e146109b4578063ef8b30f7146109f1578063f2fde38b14610a2e5761023b565b8063ba0876521461082f578063c63d75b61461086c578063c6e6f592146108a9578063ce96cb77146108e6578063d5391393146109235761023b565b8063a217fddf116100f2578063a217fddf14610722578063a9059cbb1461074d578063ad3cb1cc1461078a578063b3d7f6b9146107b5578063b460af94146107f25761023b565b80638da5cb5b146106295780638f15b4141461065457806391d148541461067d57806394bf804d146106ba57806395d89b41146106f75761023b565b8063313ce567116101bc5780634f1ef286116101805780634f1ef2861461055157806352d1902d1461056d5780636e553f651461059857806370a08231146105d5578063715018a6146106125761023b565b8063313ce5671461045857806336568abe1461048357806338d52e0f146104ac578063402d267d146104d75780634cdad506146105145761023b565b80630a28a477116102035780630a28a4771461034d57806318160ddd1461038a57806323b872dd146103b5578063248a9ca3146103f25780632f2ff15d1461042f5761023b565b806301e1d1141461024057806301ffc9a71461026b57806306fdde03146102a857806307a2d13a146102d3578063095ea7b314610310575b600080fd5b34801561024c57600080fd5b50610255610a57565b6040516102629190613113565b60405180910390f35b34801561027757600080fd5b50610292600480360381019061028d919061319a565b610adf565b60405161029f91906131e2565b60405180910390f35b3480156102b457600080fd5b506102bd610b59565b6040516102ca919061328d565b60405180910390f35b3480156102df57600080fd5b506102fa60048036038101906102f591906132db565b610bfa565b6040516103079190613113565b60405180910390f35b34801561031c57600080fd5b5061033760048036038101906103329190613366565b610c0e565b60405161034491906131e2565b60405180910390f35b34801561035957600080fd5b50610374600480360381019061036f91906132db565b610c31565b6040516103819190613113565b60405180910390f35b34801561039657600080fd5b5061039f610c45565b6040516103ac9190613113565b60405180910390f35b3480156103c157600080fd5b506103dc60048036038101906103d791906133a6565b610c5d565b6040516103e991906131e2565b60405180910390f35b3480156103fe57600080fd5b506104196004803603810190610414919061342f565b610c8c565b604051610426919061346b565b60405180910390f35b34801561043b57600080fd5b5061045660048036038101906104519190613486565b610cba565b005b34801561046457600080fd5b5061046d610cdc565b60405161047a91906134e2565b60405180910390f35b34801561048f57600080fd5b506104aa60048036038101906104a59190613486565b610d13565b005b3480156104b857600080fd5b506104c1610d8e565b6040516104ce919061350c565b60405180910390f35b3480156104e357600080fd5b506104fe60048036038101906104f99190613527565b610dc6565b60405161050b9190613113565b60405180910390f35b34801561052057600080fd5b5061053b600480360381019061053691906132db565b610df0565b6040516105489190613113565b60405180910390f35b61056b60048036038101906105669190613689565b610e04565b005b34801561057957600080fd5b50610582610e23565b60405161058f919061346b565b60405180910390f35b3480156105a457600080fd5b506105bf60048036038101906105ba91906136e5565b610e56565b6040516105cc9190613113565b60405180910390f35b3480156105e157600080fd5b506105fc60048036038101906105f79190613527565b610ed8565b6040516106099190613113565b60405180910390f35b34801561061e57600080fd5b50610627610f2f565b005b34801561063557600080fd5b5061063e610f43565b60405161064b919061350c565b60405180910390f35b34801561066057600080fd5b5061067b60048036038101906106769190613804565b610f7b565b005b34801561068957600080fd5b506106a4600480360381019061069f9190613486565b61113e565b6040516106b191906131e2565b60405180910390f35b3480156106c657600080fd5b506106e160048036038101906106dc91906136e5565b6111b7565b6040516106ee9190613113565b60405180910390f35b34801561070357600080fd5b5061070c611239565b604051610719919061328d565b60405180910390f35b34801561072e57600080fd5b506107376112da565b604051610744919061346b565b60405180910390f35b34801561075957600080fd5b50610774600480360381019061076f9190613366565b6112e1565b60405161078191906131e2565b60405180910390f35b34801561079657600080fd5b5061079f611304565b6040516107ac919061328d565b60405180910390f35b3480156107c157600080fd5b506107dc60048036038101906107d791906132db565b61133d565b6040516107e99190613113565b60405180910390f35b3480156107fe57600080fd5b50610819600480360381019061081491906138a3565b611351565b6040516108269190613113565b60405180910390f35b34801561083b57600080fd5b50610856600480360381019061085191906138a3565b6113d5565b6040516108639190613113565b60405180910390f35b34801561087857600080fd5b50610893600480360381019061088e9190613527565b611459565b6040516108a09190613113565b60405180910390f35b3480156108b557600080fd5b506108d060048036038101906108cb91906132db565b611483565b6040516108dd9190613113565b60405180910390f35b3480156108f257600080fd5b5061090d60048036038101906109089190613527565b611497565b60405161091a9190613113565b60405180910390f35b34801561092f57600080fd5b506109386114b3565b604051610945919061346b565b60405180910390f35b34801561095a57600080fd5b5061097560048036038101906109709190613486565b6114d7565b005b34801561098357600080fd5b5061099e60048036038101906109999190613527565b6114f9565b6040516109ab9190613113565b60405180910390f35b3480156109c057600080fd5b506109db60048036038101906109d691906138f6565b61150b565b6040516109e89190613113565b60405180910390f35b3480156109fd57600080fd5b50610a186004803603810190610a1391906132db565b6115a0565b604051610a259190613113565b60405180910390f35b348015610a3a57600080fd5b50610a556004803603810190610a509190613527565b6115b4565b005b6000610a61610d8e565b73ffffffffffffffffffffffffffffffffffffffff166370a08231306040518263ffffffff1660e01b8152600401610a99919061350c565b602060405180830381865afa158015610ab6573d6000803e3d6000fd5b505050506040513d601f19601f82011682018060405250810190610ada919061394b565b905090565b60007f7965db0b000000000000000000000000000000000000000000000000000000007bffffffffffffffffffffffffffffffffffffffffffffffffffffffff1916827bffffffffffffffffffffffffffffffffffffffffffffffffffffffff19161480610b525750610b518261163a565b5b9050919050565b60606000610b656116a4565b9050806003018054610b76906139a7565b80601f0160208091040260200160405190810160405280929190818152602001828054610ba2906139a7565b8015610bef5780601f10610bc457610100808354040283529160200191610bef565b820191906000526020600020905b815481529060010190602001808311610bd257829003601f168201915b505050505091505090565b6000610c078260006116cc565b9050919050565b600080610c19611725565b9050610c2681858561172d565b600191505092915050565b6000610c3e82600161173f565b9050919050565b600080610c506116a4565b9050806002015491505090565b600080610c68611725565b9050610c75858285611798565b610c8085858561182d565b60019150509392505050565b600080610c97611921565b905080600001600084815260200190815260200160002060010154915050919050565b610cc382610c8c565b610ccc81611949565b610cd6838361195d565b50505050565b600080610ce7611a5e565b9050610cf1611a86565b8160000160149054906101000a900460ff16610d0d9190613a07565b91505090565b610d1b611725565b73ffffffffffffffffffffffffffffffffffffffff168173ffffffffffffffffffffffffffffffffffffffff1614610d7f576040517f6697b23200000000000000000000000000000000000000000000000000000000815260040160405180910390fd5b610d898282611a8b565b505050565b600080610d99611a5e565b90508060000160009054906101000a900473ffffffffffffffffffffffffffffffffffffffff1691505090565b60007fffffffffffffffffffffffffffffffffffffffffffffffffffffffffffffffff9050919050565b6000610dfd8260006116cc565b9050919050565b610e0c611b8d565b610e1582611c73565b610e1f8282611c7e565b5050565b6000610e2d611d9d565b7f360894a13ba1a3210667c828492db98dca3e2076cc3735a920a3ca505d382bbc60001b905090565b600080610e6283610dc6565b905080841115610ead578284826040517f79012fb2000000000000000000000000000000000000000000000000000000008152600401610ea493929190613a3c565b60405180910390fd5b6000610eb8856115a0565b9050610ecd610ec5611725565b858784611e24565b809250505092915050565b600080610ee36116a4565b90508060000160008473ffffffffffffffffffffffffffffffffffffffff1673ffffffffffffffffffffffffffffffffffffffff16815260200190815260200160002054915050919050565b610f37611e61565b610f416000611ee8565b565b600080610f4e611fbf565b90508060000160009054906101000a900473ffffffffffffffffffffffffffffffffffffffff1691505090565b6000610f85611fe7565b905060008160000160089054906101000a900460ff1615905060008260000160009054906101000a900467ffffffffffffffff1690506000808267ffffffffffffffff16148015610fd35750825b9050600060018367ffffffffffffffff16148015611008575060003073ffffffffffffffffffffffffffffffffffffffff163b145b905081158015611016575080155b1561104d576040517ff92ee8a900000000000000000000000000000000000000000000000000000000815260040160405180910390fd5b60018560000160006101000a81548167ffffffffffffffff021916908367ffffffffffffffff160217905550831561109d5760018560000160086101000a81548160ff0219169083151502179055505b6110a5611ffb565b6110af8989612005565b6110b88661201b565b6110c061202f565b6110c987612039565b6110d66000801b8861195d565b5083156111335760008560000160086101000a81548160ff0219169083151502179055507fc7f505b2f371ae2175ee4913f4499e1f2633a7b5936321eed1cdaeb6115181d2600160405161112a9190613acc565b60405180910390a15b505050505050505050565b600080611149611921565b905080600001600085815260200190815260200160002060000160008473ffffffffffffffffffffffffffffffffffffffff1673ffffffffffffffffffffffffffffffffffffffff16815260200190815260200160002060009054906101000a900460ff1691505092915050565b6000806111c383611459565b90508084111561120e578284826040517f284ff66700000000000000000000000000000000000000000000000000000000815260040161120593929190613a3c565b60405180910390fd5b60006112198561133d565b905061122e611226611725565b858388611e24565b809250505092915050565b606060006112456116a4565b9050806004018054611256906139a7565b80601f0160208091040260200160405190810160405280929190818152602001828054611282906139a7565b80156112cf5780601f106112a4576101008083540402835291602001916112cf565b820191906000526020600020905b8154815290600101906020018083116112b257829003601f168201915b505050505091505090565b6000801b81565b6000806112ec611725565b90506112f981858561182d565b600191505092915050565b6040518060400160405280600581526020017f352e302e3000000000000000000000000000000000000000000000000000000081525081565b600061134a8260016116cc565b9050919050565b60008061135d83611497565b9050808511156113a8578285826040517ffe9cceec00000000000000000000000000000000000000000000000000000000815260040161139f93929190613a3c565b60405180910390fd5b60006113b386610c31565b90506113c96113c0611725565b8686898561204d565b80925050509392505050565b6000806113e1836114f9565b90508085111561142c578285826040517fb94abeec00000000000000000000000000000000000000000000000000000000815260040161142393929190613a3c565b60405180910390fd5b600061143786610df0565b905061144d611444611725565b8686848a61204d565b80925050509392505050565b60007fffffffffffffffffffffffffffffffffffffffffffffffffffffffffffffffff9050919050565b600061149082600061173f565b9050919050565b60006114ac6114a583610ed8565b60006116cc565b9050919050565b7f9f2df0fed2c77648de5860a4cc508cd0818c85b8b8a1ab4ceeef8d981c8956a681565b6114e082610c8c565b6114e981611949565b6114f38383611a8b565b50505050565b600061150482610ed8565b9050919050565b6000806115166116a4565b90508060010160008573ffffffffffffffffffffffffffffffffffffffff1673ffffffffffffffffffffffffffffffffffffffff16815260200190815260200160002060008473ffffffffffffffffffffffffffffffffffffffff1673ffffffffffffffffffffffffffffffffffffffff1681526020019081526020016000205491505092915050565b60006115ad82600061173f565b9050919050565b6115bc611e61565b600073ffffffffffffffffffffffffffffffffffffffff168173ffffffffffffffffffffffffffffffffffffffff160361162e5760006040517f1e4fbdf7000000000000000000000000000000000000000000000000000000008152600401611625919061350c565b60405180910390fd5b61163781611ee8565b50565b60007f01ffc9a7000000000000000000000000000000000000000000000000000000007bffffffffffffffffffffffffffffffffffffffffffffffffffffffff1916827bffffffffffffffffffffffffffffffffffffffffffffffffffffffff1916149050919050565b60007f52c63247e1f47db19d5ce0460030c497f067ca4cebf71ba98eeadabe20bace00905090565b600061171d60016116db610a57565b6116e59190613ae7565b6116ed611a86565b600a6116f99190613c4e565b611701610c45565b61170b9190613ae7565b848661208c909392919063ffffffff16565b905092915050565b600033905090565b61173a83838360016120db565b505050565b600061179061174c611a86565b600a6117589190613c4e565b611760610c45565b61176a9190613ae7565b6001611774610a57565b61177e9190613ae7565b848661208c909392919063ffffffff16565b905092915050565b60006117a4848461150b565b90507fffffffffffffffffffffffffffffffffffffffffffffffffffffffffffffffff8110156118275781811015611817578281836040517ffb8f41b200000000000000000000000000000000000000000000000000000000815260040161180e93929190613a3c565b60405180910390fd5b611826848484840360006120db565b5b50505050565b600073ffffffffffffffffffffffffffffffffffffffff168373ffffffffffffffffffffffffffffffffffffffff160361189f5760006040517f96c6fd1e000000000000000000000000000000000000000000000000000000008152600401611896919061350c565b60405180910390fd5b600073ffffffffffffffffffffffffffffffffffffffff168273ffffffffffffffffffffffffffffffffffffffff16036119115760006040517fec442f05000000000000000000000000000000000000000000000000000000008152600401611908919061350c565b60405180910390fd5b61191c8383836122c1565b505050565b60007f02dd7bc7dec4dceedda775e58dd541e08a116c6c53815c0bd028192f7b626800905090565b61195a81611955611725565b612500565b50565b600080611968611921565b9050611974848461113e565b611a5257600181600001600086815260200190815260200160002060000160008573ffffffffffffffffffffffffffffffffffffffff1673ffffffffffffffffffffffffffffffffffffffff16815260200190815260200160002060006101000a81548160ff0219169083151502179055506119ee611725565b73ffffffffffffffffffffffffffffffffffffffff168373ffffffffffffffffffffffffffffffffffffffff16857f2f8788117e7eff1d82e926ec794901d17c78024a50270940304540a733656f0d60405160405180910390a46001915050611a58565b60009150505b92915050565b60007f0773e532dfede91f04b12a73d3d2acd361424f41f76b4fb79f090161e36b4e00905090565b600090565b600080611a96611921565b9050611aa2848461113e565b15611b8157600081600001600086815260200190815260200160002060000160008573ffffffffffffffffffffffffffffffffffffffff1673ffffffffffffffffffffffffffffffffffffffff16815260200190815260200160002060006101000a81548160ff021916908315150217905550611b1d611725565b73ffffffffffffffffffffffffffffffffffffffff168373ffffffffffffffffffffffffffffffffffffffff16857ff6391f5c32d9c69d2a47ea670b442974b53935d1edc7fd64eb21e047a839171b60405160405180910390a46001915050611b87565b60009150505b92915050565b7f000000000000000000000000000000000000000000000000000000000000000073ffffffffffffffffffffffffffffffffffffffff163073ffffffffffffffffffffffffffffffffffffffff161480611c3a57507f000000000000000000000000000000000000000000000000000000000000000073ffffffffffffffffffffffffffffffffffffffff16611c21612551565b73ffffffffffffffffffffffffffffffffffffffff1614155b15611c71576040517fe07c8dba00000000000000000000000000000000000000000000000000000000815260040160405180910390fd5b565b611c7b611e61565b50565b8173ffffffffffffffffffffffffffffffffffffffff166352d1902d6040518163ffffffff1660e01b8152600401602060405180830381865afa925050508015611ce657506040513d601f19601f82011682018060405250810190611ce39190613cae565b60015b611d2757816040517f4c9c8ce3000000000000000000000000000000000000000000000000000000008152600401611d1e919061350c565b60405180910390fd5b7f360894a13ba1a3210667c828492db98dca3e2076cc3735a920a3ca505d382bbc60001b8114611d8e57806040517faa1d49a4000000000000000000000000000000000000000000000000000000008152600401611d85919061346b565b60405180910390fd5b611d9883836125a8565b505050565b7f000000000000000000000000000000000000000000000000000000000000000073ffffffffffffffffffffffffffffffffffffffff163073ffffffffffffffffffffffffffffffffffffffff1614611e22576040517fe07c8dba00000000000000000000000000000000000000000000000000000000815260040160405180910390fd5b565b7f9f2df0fed2c77648de5860a4cc508cd0818c85b8b8a1ab4ceeef8d981c8956a6611e4e81611949565b611e5a8585858561261b565b5050505050565b611e69611725565b73ffffffffffffffffffffffffffffffffffffffff16611e87610f43565b73ffffffffffffffffffffffffffffffffffffffff1614611ee657611eaa611725565b6040517f118cdaa7000000000000000000000000000000000000000000000000000000008152600401611edd919061350c565b60405180910390fd5b565b6000611ef2611fbf565b905060008160000160009054906101000a900473ffffffffffffffffffffffffffffffffffffffff169050828260000160006101000a81548173ffffffffffffffffffffffffffffffffffffffff021916908373ffffffffffffffffffffffffffffffffffffffff1602179055508273ffffffffffffffffffffffffffffffffffffffff168173ffffffffffffffffffffffffffffffffffffffff167f8be0079c531659141344cd1fd0a4f28419497f9722a3daafe3b4186f6b6457e060405160405180910390a3505050565b60007f9016d09d72d40fdae2fd8ceac6b6234c7706214fd39c1cd1e609a0528c199300905090565b600080611ff26126a5565b90508091505090565b6120036126d0565b565b61200d6126d0565b6120178282612710565b5050565b6120236126d0565b61202c8161274d565b50565b6120376126d0565b565b6120416126d0565b61204a816127e4565b50565b7f9f2df0fed2c77648de5860a4cc508cd0818c85b8b8a1ab4ceeef8d981c8956a661207781611949565b612084868686868661286a565b505050505050565b60006120bc61209a8361294a565b80156120b75750600084806120b2576120b1613cdb565b5b868809115b612978565b6120c7868686612984565b6120d19190613ae7565b9050949350505050565b60006120e56116a4565b9050600073ffffffffffffffffffffffffffffffffffffffff168573ffffffffffffffffffffffffffffffffffffffff16036121595760006040517fe602df05000000000000000000000000000000000000000000000000000000008152600401612150919061350c565b60405180910390fd5b600073ffffffffffffffffffffffffffffffffffffffff168473ffffffffffffffffffffffffffffffffffffffff16036121cb5760006040517f94280d620000000000000000000000000000000000000000000000000000000081526004016121c2919061350c565b60405180910390fd5b828160010160008773ffffffffffffffffffffffffffffffffffffffff1673ffffffffffffffffffffffffffffffffffffffff16815260200190815260200160002060008673ffffffffffffffffffffffffffffffffffffffff1673ffffffffffffffffffffffffffffffffffffffff1681526020019081526020016000208190555081156122ba578373ffffffffffffffffffffffffffffffffffffffff168573ffffffffffffffffffffffffffffffffffffffff167f8c5be1e5ebec7d5bd14f71427d1e84f3dd0314c0f7b2291e5b200ac8c7c3b925856040516122b19190613113565b60405180910390a35b5050505050565b60006122cb6116a4565b9050600073ffffffffffffffffffffffffffffffffffffffff168473ffffffffffffffffffffffffffffffffffffffff160361232157818160020160008282546123159190613ae7565b925050819055506123fa565b60008160000160008673ffffffffffffffffffffffffffffffffffffffff1673ffffffffffffffffffffffffffffffffffffffff168152602001908152602001600020549050828110156123b0578481846040517fe450d38c0000000000000000000000000000000000000000000000000000000081526004016123a793929190613a3c565b60405180910390fd5b8281038260000160008773ffffffffffffffffffffffffffffffffffffffff1673ffffffffffffffffffffffffffffffffffffffff16815260200190815260200160002081905550505b600073ffffffffffffffffffffffffffffffffffffffff168373ffffffffffffffffffffffffffffffffffffffff160361244557818160020160008282540392505081905550612495565b818160000160008573ffffffffffffffffffffffffffffffffffffffff1673ffffffffffffffffffffffffffffffffffffffff168152602001908152602001600020600082825401925050819055505b8273ffffffffffffffffffffffffffffffffffffffff168473ffffffffffffffffffffffffffffffffffffffff167fddf252ad1be2c89b69c2b068fc378daa952ba7f163c4a11628f55a4df523b3ef846040516124f29190613113565b60405180910390a350505050565b61250a828261113e565b61254d5780826040517fe2517d3f000000000000000000000000000000000000000000000000000000008152600401612544929190613d0a565b60405180910390fd5b5050565b600061257f7f360894a13ba1a3210667c828492db98dca3e2076cc3735a920a3ca505d382bbc60001b612a6c565b60000160009054906101000a900473ffffffffffffffffffffffffffffffffffffffff16905090565b6125b182612a76565b8173ffffffffffffffffffffffffffffffffffffffff167fbc7cd75a20ee27fd9adebab32041f755214dbc6bffa90cc0225b39da2e5c2d3b60405160405180910390a260008151111561260e576126088282612b43565b50612617565b612616612bc7565b5b5050565b61262e612626610d8e565b853085612c04565b6126388382612c86565b8273ffffffffffffffffffffffffffffffffffffffff168473ffffffffffffffffffffffffffffffffffffffff167fdcbc1c05240f31ff3ad067ef1ee35ce4997762752e3a095284754544f4c709d78484604051612697929190613d33565b60405180910390a350505050565b60007ff0c57e16840df040f15088dc2f81fe391c3923bec73e23a9662efc9c229c6a0060001b905090565b6126d8612d08565b61270e576040517fd7e6bcf800000000000000000000000000000000000000000000000000000000815260040160405180910390fd5b565b6127186126d0565b60006127226116a4565b9050828160030190816127359190613efe565b50818160040190816127479190613efe565b50505050565b6127556126d0565b600061275f611a5e565b905060008061276d84612d28565b915091508161277d57601261277f565b805b8360000160146101000a81548160ff021916908360ff160217905550838360000160006101000a81548173ffffffffffffffffffffffffffffffffffffffff021916908373ffffffffffffffffffffffffffffffffffffffff16021790555050505050565b6127ec6126d0565b600073ffffffffffffffffffffffffffffffffffffffff168173ffffffffffffffffffffffffffffffffffffffff160361285e5760006040517f1e4fbdf7000000000000000000000000000000000000000000000000000000008152600401612855919061350c565b60405180910390fd5b61286781611ee8565b50565b8273ffffffffffffffffffffffffffffffffffffffff168573ffffffffffffffffffffffffffffffffffffffff16146128a9576128a8838683611798565b5b6128b38382612e38565b6128c56128be610d8e565b8584612eba565b8273ffffffffffffffffffffffffffffffffffffffff168473ffffffffffffffffffffffffffffffffffffffff168673ffffffffffffffffffffffffffffffffffffffff167ffbde797d201c681b91056529119e0b02407c7bb96a4a2c75c01fc9667232c8db858560405161293b929190613d33565b60405180910390a45050505050565b60006001600283600381111561296357612962613fd0565b5b61296d9190613fff565b60ff16149050919050565b60008115159050919050565b60008060006129938686612f39565b91509150600082036129b9578381816129af576129ae613cdb565b5b0492505050612a65565b8184116129d9576129d86129d36000861460126011612f58565b612f72565b5b600084868809905081811183039250808203915060008560000386169050808604955080830492506001818260000304019050808402831792506000600287600302189050808702600203810290508087026002038102905080870260020381029050808702600203810290508087026002038102905080870260020381029050808402955050505050505b9392505050565b6000819050919050565b60008173ffffffffffffffffffffffffffffffffffffffff163b03612ad257806040517f4c9c8ce3000000000000000000000000000000000000000000000000000000008152600401612ac9919061350c565b60405180910390fd5b80612aff7f360894a13ba1a3210667c828492db98dca3e2076cc3735a920a3ca505d382bbc60001b612a6c565b60000160006101000a81548173ffffffffffffffffffffffffffffffffffffffff021916908373ffffffffffffffffffffffffffffffffffffffff16021790555050565b60606000808473ffffffffffffffffffffffffffffffffffffffff1684604051612b6d9190614077565b600060405180830381855af49150503d8060008114612ba8576040519150601f19603f3d011682016040523d82523d6000602084013e612bad565b606091505b5091509150612bbd858383612f84565b9250505092915050565b6000341115612c02576040517fb398979f00000000000000000000000000000000000000000000000000000000815260040160405180910390fd5b565b612c80848573ffffffffffffffffffffffffffffffffffffffff166323b872dd868686604051602401612c399392919061408e565b604051602081830303815290604052915060e01b6020820180517bffffffffffffffffffffffffffffffffffffffffffffffffffffffff8381831617835250505050613013565b50505050565b600073ffffffffffffffffffffffffffffffffffffffff168273ffffffffffffffffffffffffffffffffffffffff1603612cf85760006040517fec442f05000000000000000000000000000000000000000000000000000000008152600401612cef919061350c565b60405180910390fd5b612d04600083836122c1565b5050565b6000612d12611fe7565b60000160089054906101000a900460ff16905090565b6000806000808473ffffffffffffffffffffffffffffffffffffffff1660405160240160405160208183030381529060405263313ce56760e01b6020820180517bffffffffffffffffffffffffffffffffffffffffffffffffffffffff8381831617835250505050604051612d9d9190614077565b600060405180830381855afa9150503d8060008114612dd8576040519150601f19603f3d011682016040523d82523d6000602084013e612ddd565b606091505b5091509150818015612df157506020815110155b15612e2957600081806020019051810190612e0c919061394b565b905060ff80168111612e275760018194509450505050612e33565b505b6000809350935050505b915091565b600073ffffffffffffffffffffffffffffffffffffffff168273ffffffffffffffffffffffffffffffffffffffff1603612eaa5760006040517f96c6fd1e000000000000000000000000000000000000000000000000000000008152600401612ea1919061350c565b60405180910390fd5b612eb6826000836122c1565b5050565b612f34838473ffffffffffffffffffffffffffffffffffffffff1663a9059cbb8585604051602401612eed9291906140c5565b604051602081830303815290604052915060e01b6020820180517bffffffffffffffffffffffffffffffffffffffffffffffffffffffff8381831617835250505050613013565b505050565b6000806000198385098385029150818110828203039250509250929050565b6000612f6384612978565b82841802821890509392505050565b634e487b71600052806020526024601cfd5b606082612f9957612f94826130b5565b61300b565b60008251148015612fc1575060008473ffffffffffffffffffffffffffffffffffffffff163b145b1561300357836040517f9996b315000000000000000000000000000000000000000000000000000000008152600401612ffa919061350c565b60405180910390fd5b81905061300c565b5b9392505050565b600080602060008451602086016000885af180613036576040513d6000823e3d81fd5b3d92506000519150506000821461305157600181141561306d565b60008473ffffffffffffffffffffffffffffffffffffffff163b145b156130af57836040517f5274afe70000000000000000000000000000000000000000000000000000000081526004016130a6919061350c565b60405180910390fd5b50505050565b6000815111156130c85780518082602001fd5b6040517fd6bda27500000000000000000000000000000000000000000000000000000000815260040160405180910390fd5b6000819050919050565b61310d816130fa565b82525050565b60006020820190506131286000830184613104565b92915050565b6000604051905090565b600080fd5b600080fd5b60007fffffffff0000000000000000000000000000000000000000000000000000000082169050919050565b61317781613142565b811461318257600080fd5b50565b6000813590506131948161316e565b92915050565b6000602082840312156131b0576131af613138565b5b60006131be84828501613185565b91505092915050565b60008115159050919050565b6131dc816131c7565b82525050565b60006020820190506131f760008301846131d3565b92915050565b600081519050919050565b600082825260208201905092915050565b60005b8381101561323757808201518184015260208101905061321c565b60008484015250505050565b6000601f19601f8301169050919050565b600061325f826131fd565b6132698185613208565b9350613279818560208601613219565b61328281613243565b840191505092915050565b600060208201905081810360008301526132a78184613254565b905092915050565b6132b8816130fa565b81146132c357600080fd5b50565b6000813590506132d5816132af565b92915050565b6000602082840312156132f1576132f0613138565b5b60006132ff848285016132c6565b91505092915050565b600073ffffffffffffffffffffffffffffffffffffffff82169050919050565b600061333382613308565b9050919050565b61334381613328565b811461334e57600080fd5b50565b6000813590506133608161333a565b92915050565b6000806040838503121561337d5761337c613138565b5b600061338b85828601613351565b925050602061339c858286016132c6565b9150509250929050565b6000806000606084860312156133bf576133be613138565b5b60006133cd86828701613351565b93505060206133de86828701613351565b92505060406133ef868287016132c6565b9150509250925092565b6000819050919050565b61340c816133f9565b811461341757600080fd5b50565b60008135905061342981613403565b92915050565b60006020828403121561344557613444613138565b5b60006134538482850161341a565b91505092915050565b613465816133f9565b82525050565b6000602082019050613480600083018461345c565b92915050565b6000806040838503121561349d5761349c613138565b5b60006134ab8582860161341a565b92505060206134bc85828601613351565b9150509250929050565b600060ff82169050919050565b6134dc816134c6565b82525050565b60006020820190506134f760008301846134d3565b92915050565b61350681613328565b82525050565b600060208201905061352160008301846134fd565b92915050565b60006020828403121561353d5761353c613138565b5b600061354b84828501613351565b91505092915050565b600080fd5b600080fd5b7f4e487b7100000000000000000000000000000000000000000000000000000000600052604160045260246000fd5b61359682613243565b810181811067ffffffffffffffff821117156135b5576135b461355e565b5b80604052505050565b60006135c861312e565b90506135d4828261358d565b919050565b600067ffffffffffffffff8211156135f4576135f361355e565b5b6135fd82613243565b9050602081019050919050565b82818337600083830152505050565b600061362c613627846135d9565b6135be565b90508281526020810184848401111561364857613647613559565b5b61365384828561360a565b509392505050565b600082601f8301126136705761366f613554565b5b8135613680848260208601613619565b91505092915050565b600080604083850312156136a05761369f613138565b5b60006136ae85828601613351565b925050602083013567ffffffffffffffff8111156136cf576136ce61313d565b5b6136db8582860161365b565b9150509250929050565b600080604083850312156136fc576136fb613138565b5b600061370a858286016132c6565b925050602061371b85828601613351565b9150509250929050565b600067ffffffffffffffff8211156137405761373f61355e565b5b61374982613243565b9050602081019050919050565b600061376961376484613725565b6135be565b90508281526020810184848401111561378557613784613559565b5b61379084828561360a565b509392505050565b600082601f8301126137ad576137ac613554565b5b81356137bd848260208601613756565b91505092915050565b60006137d182613328565b9050919050565b6137e1816137c6565b81146137ec57600080fd5b50565b6000813590506137fe816137d8565b92915050565b6000806000806080858703121561381e5761381d613138565b5b600085013567ffffffffffffffff81111561383c5761383b61313d565b5b61384887828801613798565b945050602085013567ffffffffffffffff8111156138695761386861313d565b5b61387587828801613798565b935050604061388687828801613351565b9250506060613897878288016137ef565b91505092959194509250565b6000806000606084860312156138bc576138bb613138565b5b60006138ca868287016132c6565b93505060206138db86828701613351565b92505060406138ec86828701613351565b9150509250925092565b6000806040838503121561390d5761390c613138565b5b600061391b85828601613351565b925050602061392c85828601613351565b9150509250929050565b600081519050613945816132af565b92915050565b60006020828403121561396157613960613138565b5b600061396f84828501613936565b91505092915050565b7f4e487b7100000000000000000000000000000000000000000000000000000000600052602260045260246000fd5b600060028204905060018216806139bf57607f821691505b6020821081036139d2576139d1613978565b5b50919050565b7f4e487b7100000000000000000000000000000000000000000000000000000000600052601160045260246000fd5b6000613a12826134c6565b9150613a1d836134c6565b9250828201905060ff811115613a3657613a356139d8565b5b92915050565b6000606082019050613a5160008301866134fd565b613a5e6020830185613104565b613a6b6040830184613104565b949350505050565b6000819050919050565b600067ffffffffffffffff82169050919050565b6000819050919050565b6000613ab6613ab1613aac84613a73565b613a91565b613a7d565b9050919050565b613ac681613a9b565b82525050565b6000602082019050613ae16000830184613abd565b92915050565b6000613af2826130fa565b9150613afd836130fa565b9250828201905080821115613b1557613b146139d8565b5b92915050565b60008160011c9050919050565b6000808291508390505b6001851115613b7257808604811115613b4e57613b4d6139d8565b5b6001851615613b5d5780820291505b8081029050613b6b85613b1b565b9450613b32565b94509492505050565b600082613b8b5760019050613c47565b81613b995760009050613c47565b8160018114613baf5760028114613bb957613be8565b6001915050613c47565b60ff841115613bcb57613bca6139d8565b5b8360020a915084821115613be257613be16139d8565b5b50613c47565b5060208310610133831016604e8410600b8410161715613c1d5782820a905083811115613c1857613c176139d8565b5b613c47565b613c2a8484846001613b28565b92509050818404811115613c4157613c406139d8565b5b81810290505b9392505050565b6000613c59826130fa565b9150613c64836134c6565b9250613c917fffffffffffffffffffffffffffffffffffffffffffffffffffffffffffffffff8484613b7b565b905092915050565b600081519050613ca881613403565b92915050565b600060208284031215613cc457613cc3613138565b5b6000613cd284828501613c99565b91505092915050565b7f4e487b7100000000000000000000000000000000000000000000000000000000600052601260045260246000fd5b6000604082019050613d1f60008301856134fd565b613d2c602083018461345c565b9392505050565b6000604082019050613d486000830185613104565b613d556020830184613104565b9392505050565b60008190508160005260206000209050919050565b60006020601f8301049050919050565b600082821b905092915050565b600060088302613dbe7fffffffffffffffffffffffffffffffffffffffffffffffffffffffffffffffff82613d81565b613dc88683613d81565b95508019841693508086168417925050509392505050565b6000613dfb613df6613df1846130fa565b613a91565b6130fa565b9050919050565b6000819050919050565b613e1583613de0565b613e29613e2182613e02565b848454613d8e565b825550505050565b600090565b613e3e613e31565b613e49818484613e0c565b505050565b5b81811015613e6d57613e62600082613e36565b600181019050613e4f565b5050565b601f821115613eb257613e8381613d5c565b613e8c84613d71565b81016020851015613e9b578190505b613eaf613ea785613d71565b830182613e4e565b50505b505050565b600082821c905092915050565b6000613ed560001984600802613eb7565b1980831691505092915050565b6000613eee8383613ec4565b9150826002028217905092915050565b613f07826131fd565b67ffffffffffffffff811115613f2057613f1f61355e565b5b613f2a82546139a7565b613f35828285613e71565b600060209050601f831160018114613f685760008415613f56578287015190505b613f608582613ee2565b865550613fc8565b601f198416613f7686613d5c565b60005b82811015613f9e57848901518255600182019150602085019450602081019050613f79565b86831015613fbb5784890151613fb7601f891682613ec4565b8355505b6001600288020188555050505b505050505050565b7f4e487b7100000000000000000000000000000000000000000000000000000000600052602160045260246000fd5b600061400a826134c6565b9150614015836134c6565b92508261402557614024613cdb565b5b828206905092915050565b600081519050919050565b600081905092915050565b600061405182614030565b61405b818561403b565b935061406b818560208601613219565b80840191505092915050565b60006140838284614046565b915081905092915050565b60006060820190506140a360008301866134fd565b6140b060208301856134fd565b6140bd6040830184613104565b949350505050565b60006040820190506140da60008301856134fd565b6140e76020830184613104565b939250505056fea2646970667358221220a551792b550fd32edb5ab807becc11546afd70de4187f873db7a9df64a0029e264736f6c634300081c0033",
  "linkReferences": {},
  "deployedLinkReferences": {}
}